{
  "_format": "hh-sol-artifact-1",
  "contractName": "DoArt",
  "sourceName": "contracts/DoArt.sol",
  "abi": [
    {
      "inputs": [
        {
          "internalType": "address",
          "name": "_storageContract",
          "type": "address"
        }
      ],
      "stateMutability": "nonpayable",
      "type": "constructor"
    },
    {
      "anonymous": false,
      "inputs": [
        {
          "indexed": true,
          "internalType": "address",
          "name": "owner",
          "type": "address"
        },
        {
          "indexed": true,
          "internalType": "address",
          "name": "approved",
          "type": "address"
        },
        {
          "indexed": true,
          "internalType": "uint256",
          "name": "tokenId",
          "type": "uint256"
        }
      ],
      "name": "Approval",
      "type": "event"
    },
    {
      "anonymous": false,
      "inputs": [
        {
          "indexed": true,
          "internalType": "address",
          "name": "owner",
          "type": "address"
        },
        {
          "indexed": true,
          "internalType": "address",
          "name": "operator",
          "type": "address"
        },
        {
          "indexed": false,
          "internalType": "bool",
          "name": "approved",
          "type": "bool"
        }
      ],
      "name": "ApprovalForAll",
      "type": "event"
    },
    {
      "anonymous": false,
      "inputs": [
        {
          "indexed": true,
          "internalType": "address",
          "name": "artist",
          "type": "address"
        },
        {
          "indexed": false,
          "internalType": "string",
          "name": "name",
          "type": "string"
        },
        {
          "indexed": false,
          "internalType": "string",
          "name": "bio",
          "type": "string"
        },
        {
          "indexed": false,
          "internalType": "string",
          "name": "portfolioUrl",
          "type": "string"
        }
      ],
      "name": "ArtistMetadataUpdated",
      "type": "event"
    },
    {
      "anonymous": false,
      "inputs": [
        {
          "indexed": false,
          "internalType": "uint256",
          "name": "_fromTokenId",
          "type": "uint256"
        },
        {
          "indexed": false,
          "internalType": "uint256",
          "name": "_toTokenId",
          "type": "uint256"
        }
      ],
      "name": "BatchMetadataUpdate",
      "type": "event"
    },
    {
      "anonymous": false,
      "inputs": [
        {
          "indexed": false,
          "internalType": "uint256",
          "name": "_tokenId",
          "type": "uint256"
        }
      ],
      "name": "MetadataUpdate",
      "type": "event"
    },
    {
      "anonymous": false,
      "inputs": [
        {
          "indexed": false,
          "internalType": "address",
          "name": "account",
          "type": "address"
        }
      ],
      "name": "Paused",
      "type": "event"
    },
    {
      "anonymous": false,
      "inputs": [
        {
          "indexed": true,
          "internalType": "bytes32",
          "name": "role",
          "type": "bytes32"
        },
        {
          "indexed": true,
          "internalType": "bytes32",
          "name": "previousAdminRole",
          "type": "bytes32"
        },
        {
          "indexed": true,
          "internalType": "bytes32",
          "name": "newAdminRole",
          "type": "bytes32"
        }
      ],
      "name": "RoleAdminChanged",
      "type": "event"
    },
    {
      "anonymous": false,
      "inputs": [
        {
          "indexed": true,
          "internalType": "bytes32",
          "name": "role",
          "type": "bytes32"
        },
        {
          "indexed": true,
          "internalType": "address",
          "name": "account",
          "type": "address"
        },
        {
          "indexed": true,
          "internalType": "address",
          "name": "sender",
          "type": "address"
        }
      ],
      "name": "RoleGranted",
      "type": "event"
    },
    {
      "anonymous": false,
      "inputs": [
        {
          "indexed": true,
          "internalType": "bytes32",
          "name": "role",
          "type": "bytes32"
        },
        {
          "indexed": true,
          "internalType": "address",
          "name": "account",
          "type": "address"
        },
        {
          "indexed": true,
          "internalType": "address",
          "name": "sender",
          "type": "address"
        }
      ],
      "name": "RoleRevoked",
      "type": "event"
    },
    {
      "anonymous": false,
      "inputs": [
        {
          "indexed": true,
          "internalType": "uint256",
          "name": "tokenId",
          "type": "uint256"
        }
      ],
      "name": "TokenBurned",
      "type": "event"
    },
    {
      "anonymous": false,
      "inputs": [
        {
          "indexed": true,
          "internalType": "address",
          "name": "owner",
          "type": "address"
        },
        {
          "indexed": true,
          "internalType": "uint256",
          "name": "tokenId",
          "type": "uint256"
        },
        {
          "indexed": false,
          "internalType": "string",
          "name": "metadataURI",
          "type": "string"
        }
      ],
      "name": "TokenMinted",
      "type": "event"
    },
    {
      "anonymous": false,
      "inputs": [
        {
          "indexed": true,
          "internalType": "address",
          "name": "from",
          "type": "address"
        },
        {
          "indexed": true,
          "internalType": "address",
          "name": "to",
          "type": "address"
        },
        {
          "indexed": true,
          "internalType": "uint256",
          "name": "tokenId",
          "type": "uint256"
        }
      ],
      "name": "Transfer",
      "type": "event"
    },
    {
      "anonymous": false,
      "inputs": [
        {
          "indexed": false,
          "internalType": "address",
          "name": "account",
          "type": "address"
        }
      ],
      "name": "Unpaused",
      "type": "event"
    },
    {
      "inputs": [],
      "name": "ARTIST_ROLE",
      "outputs": [
        {
          "internalType": "bytes32",
          "name": "",
          "type": "bytes32"
        }
      ],
      "stateMutability": "view",
      "type": "function"
    },
    {
      "inputs": [],
      "name": "DEFAULT_ADMIN_ROLE",
      "outputs": [
        {
          "internalType": "bytes32",
          "name": "",
          "type": "bytes32"
        }
      ],
      "stateMutability": "view",
      "type": "function"
    },
    {
      "inputs": [],
      "name": "MINTER_ROLE",
      "outputs": [
        {
          "internalType": "bytes32",
          "name": "",
          "type": "bytes32"
        }
      ],
      "stateMutability": "view",
      "type": "function"
    },
    {
      "inputs": [],
      "name": "PAUSER_ROLE",
      "outputs": [
        {
          "internalType": "bytes32",
          "name": "",
          "type": "bytes32"
        }
      ],
      "stateMutability": "view",
      "type": "function"
    },
    {
      "inputs": [
        {
          "internalType": "address",
          "name": "to",
          "type": "address"
        },
        {
          "internalType": "uint256",
          "name": "tokenId",
          "type": "uint256"
        }
      ],
      "name": "approve",
      "outputs": [],
      "stateMutability": "nonpayable",
      "type": "function"
    },
    {
      "inputs": [
        {
          "internalType": "address",
          "name": "owner",
          "type": "address"
        }
      ],
      "name": "balanceOf",
      "outputs": [
        {
          "internalType": "uint256",
          "name": "",
          "type": "uint256"
        }
      ],
      "stateMutability": "view",
      "type": "function"
    },
    {
      "inputs": [
        {
          "internalType": "string[]",
          "name": "metadataURIs",
          "type": "string[]"
        },
        {
          "internalType": "uint96[]",
          "name": "royaltyBps",
          "type": "uint96[]"
        }
      ],
      "name": "batchMint",
      "outputs": [
        {
          "internalType": "uint256[]",
          "name": "",
          "type": "uint256[]"
        }
      ],
      "stateMutability": "nonpayable",
      "type": "function"
    },
    {
      "inputs": [
        {
          "internalType": "uint256",
          "name": "tokenId",
          "type": "uint256"
        }
      ],
      "name": "burn",
      "outputs": [],
      "stateMutability": "nonpayable",
      "type": "function"
    },
    {
      "inputs": [
        {
          "internalType": "uint256",
          "name": "tokenId",
          "type": "uint256"
        }
      ],
      "name": "getApproved",
      "outputs": [
        {
          "internalType": "address",
          "name": "",
          "type": "address"
        }
      ],
      "stateMutability": "view",
      "type": "function"
    },
    {
      "inputs": [
        {
          "internalType": "address",
          "name": "artist",
          "type": "address"
        }
      ],
      "name": "getArtistMetadata",
      "outputs": [
        {
          "internalType": "string",
          "name": "name",
          "type": "string"
        },
        {
          "internalType": "string",
          "name": "bio",
          "type": "string"
        },
        {
          "internalType": "string",
          "name": "portfolioUrl",
          "type": "string"
        }
      ],
      "stateMutability": "view",
      "type": "function"
    },
    {
      "inputs": [
        {
          "internalType": "bytes32",
          "name": "role",
          "type": "bytes32"
        }
      ],
      "name": "getRoleAdmin",
      "outputs": [
        {
          "internalType": "bytes32",
          "name": "",
          "type": "bytes32"
        }
      ],
      "stateMutability": "view",
      "type": "function"
    },
    {
      "inputs": [
        {
          "internalType": "uint256",
          "name": "tokenId",
          "type": "uint256"
        }
      ],
      "name": "getTokenDetails",
      "outputs": [
        {
          "internalType": "address",
          "name": "owner",
          "type": "address"
        },
        {
          "internalType": "string",
          "name": "uri",
          "type": "string"
        },
        {
          "internalType": "address",
          "name": "royaltyRecipient",
          "type": "address"
        },
        {
          "internalType": "uint256",
          "name": "royaltyBps",
          "type": "uint256"
        }
      ],
      "stateMutability": "view",
      "type": "function"
    },
    {
      "inputs": [
        {
          "internalType": "address",
          "name": "owner",
          "type": "address"
        }
      ],
      "name": "getTokensOfOwner",
      "outputs": [
        {
          "internalType": "uint256[]",
          "name": "",
          "type": "uint256[]"
        }
      ],
      "stateMutability": "view",
      "type": "function"
    },
    {
      "inputs": [
        {
          "internalType": "bytes32",
          "name": "role",
          "type": "bytes32"
        },
        {
          "internalType": "address",
          "name": "account",
          "type": "address"
        }
      ],
      "name": "grantRole",
      "outputs": [],
      "stateMutability": "nonpayable",
      "type": "function"
    },
    {
      "inputs": [
        {
          "internalType": "bytes32",
          "name": "role",
          "type": "bytes32"
        },
        {
          "internalType": "address",
          "name": "account",
          "type": "address"
        }
      ],
      "name": "hasRole",
      "outputs": [
        {
          "internalType": "bool",
          "name": "",
          "type": "bool"
        }
      ],
      "stateMutability": "view",
      "type": "function"
    },
    {
      "inputs": [
        {
          "internalType": "address",
          "name": "owner",
          "type": "address"
        },
        {
          "internalType": "address",
          "name": "operator",
          "type": "address"
        }
      ],
      "name": "isApprovedForAll",
      "outputs": [
        {
          "internalType": "bool",
          "name": "",
          "type": "bool"
        }
      ],
      "stateMutability": "view",
      "type": "function"
    },
    {
      "inputs": [
        {
          "internalType": "string",
          "name": "metadataURI",
          "type": "string"
        },
        {
          "internalType": "uint96",
          "name": "royaltyBps",
          "type": "uint96"
        }
      ],
      "name": "mint",
      "outputs": [
        {
          "internalType": "uint256",
          "name": "",
          "type": "uint256"
        }
      ],
      "stateMutability": "nonpayable",
      "type": "function"
    },
    {
      "inputs": [
        {
          "internalType": "address",
          "name": "to",
          "type": "address"
        },
        {
          "internalType": "string",
          "name": "metadataURI",
          "type": "string"
        },
        {
          "internalType": "uint96",
          "name": "royaltyBps",
          "type": "uint96"
        }
      ],
      "name": "mintFor",
      "outputs": [
        {
          "internalType": "uint256",
          "name": "",
          "type": "uint256"
        }
      ],
      "stateMutability": "nonpayable",
      "type": "function"
    },
    {
      "inputs": [],
      "name": "name",
      "outputs": [
        {
          "internalType": "string",
          "name": "",
          "type": "string"
        }
      ],
      "stateMutability": "view",
      "type": "function"
    },
    {
      "inputs": [
        {
          "internalType": "uint256",
          "name": "tokenId",
          "type": "uint256"
        }
      ],
      "name": "ownerOf",
      "outputs": [
        {
          "internalType": "address",
          "name": "",
          "type": "address"
        }
      ],
      "stateMutability": "view",
      "type": "function"
    },
    {
      "inputs": [],
      "name": "pause",
      "outputs": [],
      "stateMutability": "nonpayable",
      "type": "function"
    },
    {
      "inputs": [],
      "name": "paused",
      "outputs": [
        {
          "internalType": "bool",
          "name": "",
          "type": "bool"
        }
      ],
      "stateMutability": "view",
      "type": "function"
    },
    {
      "inputs": [
        {
          "internalType": "bytes32",
          "name": "role",
          "type": "bytes32"
        },
        {
          "internalType": "address",
          "name": "account",
          "type": "address"
        }
      ],
      "name": "renounceRole",
      "outputs": [],
      "stateMutability": "nonpayable",
      "type": "function"
    },
    {
      "inputs": [
        {
          "internalType": "bytes32",
          "name": "role",
          "type": "bytes32"
        },
        {
          "internalType": "address",
          "name": "account",
          "type": "address"
        }
      ],
      "name": "revokeRole",
      "outputs": [],
      "stateMutability": "nonpayable",
      "type": "function"
    },
    {
      "inputs": [
        {
          "internalType": "uint256",
          "name": "tokenId",
          "type": "uint256"
        },
        {
          "internalType": "uint256",
          "name": "salePrice",
          "type": "uint256"
        }
      ],
      "name": "royaltyInfo",
      "outputs": [
        {
          "internalType": "address",
          "name": "",
          "type": "address"
        },
        {
          "internalType": "uint256",
          "name": "",
          "type": "uint256"
        }
      ],
      "stateMutability": "view",
      "type": "function"
    },
    {
      "inputs": [
        {
          "internalType": "address",
          "name": "from",
          "type": "address"
        },
        {
          "internalType": "address",
          "name": "to",
          "type": "address"
        },
        {
          "internalType": "uint256",
          "name": "tokenId",
          "type": "uint256"
        }
      ],
      "name": "safeTransferFrom",
      "outputs": [],
      "stateMutability": "nonpayable",
      "type": "function"
    },
    {
      "inputs": [
        {
          "internalType": "address",
          "name": "from",
          "type": "address"
        },
        {
          "internalType": "address",
          "name": "to",
          "type": "address"
        },
        {
          "internalType": "uint256",
          "name": "tokenId",
          "type": "uint256"
        },
        {
          "internalType": "bytes",
          "name": "data",
          "type": "bytes"
        }
      ],
      "name": "safeTransferFrom",
      "outputs": [],
      "stateMutability": "nonpayable",
      "type": "function"
    },
    {
      "inputs": [
        {
          "internalType": "address",
          "name": "operator",
          "type": "address"
        },
        {
          "internalType": "bool",
          "name": "approved",
          "type": "bool"
        }
      ],
      "name": "setApprovalForAll",
      "outputs": [],
      "stateMutability": "nonpayable",
      "type": "function"
    },
    {
      "inputs": [
        {
          "internalType": "string",
          "name": "name",
          "type": "string"
        },
        {
          "internalType": "string",
          "name": "bio",
          "type": "string"
        },
        {
          "internalType": "string",
          "name": "portfolioUrl",
          "type": "string"
        }
      ],
      "name": "setArtistMetadata",
      "outputs": [],
      "stateMutability": "nonpayable",
      "type": "function"
    },
    {
      "inputs": [
        {
          "internalType": "address",
          "name": "_storageContract",
          "type": "address"
        }
      ],
      "name": "setStorageContract",
      "outputs": [],
      "stateMutability": "nonpayable",
      "type": "function"
    },
    {
      "inputs": [
        {
          "internalType": "uint256",
          "name": "tokenId",
          "type": "uint256"
        },
        {
          "internalType": "address",
          "name": "recipient",
          "type": "address"
        },
        {
          "internalType": "uint96",
          "name": "royaltyBps",
          "type": "uint96"
        }
      ],
      "name": "setTokenRoyalty",
      "outputs": [],
      "stateMutability": "nonpayable",
      "type": "function"
    },
    {
      "inputs": [],
      "name": "storageContract",
      "outputs": [
        {
          "internalType": "contract EscrowStorage",
          "name": "",
          "type": "address"
        }
      ],
      "stateMutability": "view",
      "type": "function"
    },
    {
      "inputs": [
        {
          "internalType": "bytes4",
          "name": "interfaceId",
          "type": "bytes4"
        }
      ],
      "name": "supportsInterface",
      "outputs": [
        {
          "internalType": "bool",
          "name": "",
          "type": "bool"
        }
      ],
      "stateMutability": "view",
      "type": "function"
    },
    {
      "inputs": [],
      "name": "symbol",
      "outputs": [
        {
          "internalType": "string",
          "name": "",
          "type": "string"
        }
      ],
      "stateMutability": "view",
      "type": "function"
    },
    {
      "inputs": [
        {
          "internalType": "uint256",
          "name": "tokenId",
          "type": "uint256"
        }
      ],
      "name": "tokenURI",
      "outputs": [
        {
          "internalType": "string",
          "name": "",
          "type": "string"
        }
      ],
      "stateMutability": "view",
      "type": "function"
    },
    {
      "inputs": [],
      "name": "totalSupply",
      "outputs": [
        {
          "internalType": "uint256",
          "name": "",
          "type": "uint256"
        }
      ],
      "stateMutability": "view",
      "type": "function"
    },
    {
      "inputs": [
        {
          "internalType": "address",
          "name": "from",
          "type": "address"
        },
        {
          "internalType": "address",
          "name": "to",
          "type": "address"
        },
        {
          "internalType": "uint256",
          "name": "tokenId",
          "type": "uint256"
        }
      ],
      "name": "transferFrom",
      "outputs": [],
      "stateMutability": "nonpayable",
      "type": "function"
    },
    {
      "inputs": [],
      "name": "unpause",
      "outputs": [],
      "stateMutability": "nonpayable",
      "type": "function"
    }
  ],
  "bytecode": "0x60806040523480156200001157600080fd5b5060405162003733380380620037338339810160408190526200003491620002b5565b60405180604001604052806005815260200164111bd05c9d60da1b81525060405180604001604052806002815260200161444160f01b8152508160029080519060200190620000859291906200020f565b5080516200009b9060039060208401906200020f565b5050600a805460ff1916905550600c80546001600160a01b0319166001600160a01b038316179055620000d06000336200015b565b620000fc7f877a78dc988c0ec5f58453b44888a55eb39755c3d5ed8d8ea990912aa3ef29c6336200015b565b620001287f65d7a28e3265b37a6474929f336521b332c1681b933f6cb9f3376673440d862a336200015b565b620001547f9f2df0fed2c77648de5860a4cc508cd0818c85b8b8a1ab4ceeef8d981c8956a6336200015b565b5062000324565b6200016782826200016b565b5050565b60008281526009602090815260408083206001600160a01b038516845290915290205460ff16620001675760008281526009602090815260408083206001600160a01b03851684529091529020805460ff19166001179055620001cb3390565b6001600160a01b0316816001600160a01b0316837f2f8788117e7eff1d82e926ec794901d17c78024a50270940304540a733656f0d60405160405180910390a45050565b8280546200021d90620002e7565b90600052602060002090601f0160209004810192826200024157600085556200028c565b82601f106200025c57805160ff19168380011785556200028c565b828001600101855582156200028c579182015b828111156200028c5782518255916020019190600101906200026f565b506200029a9291506200029e565b5090565b5b808211156200029a57600081556001016200029f565b600060208284031215620002c857600080fd5b81516001600160a01b0381168114620002e057600080fd5b9392505050565b600181811c90821680620002fc57607f821691505b602082108114156200031e57634e487b7160e01b600052602260045260246000fd5b50919050565b6133ff80620003346000396000f3fe608060405234801561001057600080fd5b50600436106102325760003560e01c806370a0823111610130578063b88d4fde116100b8578063d547741f1161007c578063d547741f1461050c578063dc38b0a21461051f578063e63ab1e914610532578063e985e9c514610559578063f15111b31461059557600080fd5b8063b88d4fde14610489578063c1e037281461049c578063c87b56dd146104bf578063cbbb20a4146104d2578063d5391393146104e557600080fd5b806395d89b41116100ff57806395d89b411461043e578063a217fddf14610446578063a22cb4651461044e578063a966a0df14610461578063ae7f3c0f1461047657600080fd5b806370a08231146103fd5780637e59ff3d146104105780638456cb591461042357806391d148541461042b57600080fd5b80632f2ff15d116101be5780635944c753116101825780635944c753146103995780635c975abb146103ac5780635dc7c38f146103b75780635de6dc55146103ca5780636352211e146103ea57600080fd5b80632f2ff15d1461034557806336568abe146103585780633f4ba83a1461036b57806342842e0e1461037357806342966c681461038657600080fd5b806311ce02671161020557806311ce0267146102b457806318160ddd146102c757806323b872dd146102dd578063248a9ca3146102f05780632a55205a1461031357600080fd5b806301ffc9a71461023757806306fdde031461025f578063081812fc14610274578063095ea7b31461029f575b600080fd5b61024a6102453660046129b3565b6105b7565b60405190151581526020015b60405180910390f35b6102676105c8565b6040516102569190612a28565b610287610282366004612a3b565b61065a565b6040516001600160a01b039091168152602001610256565b6102b26102ad366004612a70565b610681565b005b600c54610287906001600160a01b031681565b6102cf61079c565b604051908152602001610256565b6102b26102eb366004612a9a565b6107ac565b6102cf6102fe366004612a3b565b60009081526009602052604090206001015490565b610326610321366004612ad6565b6107dd565b604080516001600160a01b039093168352602083019190915201610256565b6102b2610353366004612af8565b610889565b6102b2610366366004612af8565b6108ae565b6102b261092c565b6102b2610381366004612a9a565b610961565b6102b2610394366004612a3b565b61097c565b6102b26103a7366004612b3b565b610a36565b600a5460ff1661024a565b6102b26103c5366004612c36565b610acc565b6103dd6103d8366004612cbe565b610d9e565b6040516102569190612cd9565b6102876103f8366004612a3b565b610e7d565b6102cf61040b366004612cbe565b610edd565b6103dd61041e366004612db3565b610f63565b6102b2611142565b61024a610439366004612af8565b611174565b61026761119f565b6102cf600081565b6102b261045c366004612e87565b6111ae565b6102cf6000805160206133aa83398151915281565b6102cf610484366004612ec3565b6111b9565b6102b2610497366004612f18565b611201565b6104af6104aa366004612a3b565b611233565b6040516102569493929190612f94565b6102676104cd366004612a3b565b611297565b6102cf6104e0366004612fc8565b6112a2565b6102cf7f9f2df0fed2c77648de5860a4cc508cd0818c85b8b8a1ab4ceeef8d981c8956a681565b6102b261051a366004612af8565b6112d7565b6102b261052d366004612cbe565b6112fc565b6102cf7f65d7a28e3265b37a6474929f336521b332c1681b933f6cb9f3376673440d862a81565b61024a61056736600461300d565b6001600160a01b03918216600090815260076020908152604080832093909416825291909152205460ff1690565b6105a86105a3366004612cbe565b611372565b60405161025693929190613037565b60006105c28261157b565b92915050565b6060600280546105d79061307a565b80601f01602080910402602001604051908101604052809291908181526020018280546106039061307a565b80156106505780601f1061062557610100808354040283529160200191610650565b820191906000526020600020905b81548152906001019060200180831161063357829003601f168201915b5050505050905090565b6000610665826115a0565b506000908152600660205260409020546001600160a01b031690565b600061068c82610e7d565b9050806001600160a01b0316836001600160a01b031614156106ff5760405162461bcd60e51b815260206004820152602160248201527f4552433732313a20617070726f76616c20746f2063757272656e74206f776e656044820152603960f91b60648201526084015b60405180910390fd5b336001600160a01b038216148061071b575061071b8133610567565b61078d5760405162461bcd60e51b815260206004820152603d60248201527f4552433732313a20617070726f76652063616c6c6572206973206e6f7420746f60448201527f6b656e206f776e6572206f7220617070726f76656420666f7220616c6c00000060648201526084016106f6565b61079783836115f0565b505050565b60006107a7600b5490565b905090565b6107b6338261165e565b6107d25760405162461bcd60e51b81526004016106f6906130b5565b6107978383836116dc565b60008281526001602090815260408083208151808301909252546001600160a01b038116808352600160a01b9091046001600160601b03169282019290925282916108525750604080518082019091526000546001600160a01b0381168252600160a01b90046001600160601b031660208201525b602081015160009061271090610871906001600160601b031687613118565b61087b9190613137565b915196919550909350505050565b6000828152600960205260409020600101546108a481611840565b610797838361184a565b6001600160a01b038116331461091e5760405162461bcd60e51b815260206004820152602f60248201527f416363657373436f6e74726f6c3a2063616e206f6e6c792072656e6f756e636560448201526e103937b632b9903337b91039b2b63360891b60648201526084016106f6565b61092882826118d0565b5050565b7f65d7a28e3265b37a6474929f336521b332c1681b933f6cb9f3376673440d862a61095681611840565b61095e611937565b50565b61079783838360405180602001604052806000815250611201565b610984611989565b61098d816119d1565b6109a95760405162461bcd60e51b81526004016106f690613159565b6109b3338261165e565b6109ff5760405162461bcd60e51b815260206004820181905260248201527f43616c6c6572206973206e6f74206f776e6572206e6f7220617070726f76656460448201526064016106f6565b610a08816119ee565b60405181907f0c526103b8f47af5516191d0c89a598755bd00faa211a3cb52e4c2cc782f7fe290600090a250565b6000610a4181611840565b610a4a846119d1565b610a665760405162461bcd60e51b81526004016106f690613159565b612710826001600160601b03161115610abb5760405162461bcd60e51b8152602060048201526017602482015276526f79616c7479206d757374206265203c3d203130302560481b60448201526064016106f6565b610ac68484846119f7565b50505050565b610ad4611989565b610aec6000805160206133aa83398151915233611174565b80610afd5750610afd600033611174565b610b495760405162461bcd60e51b815260206004820152601d60248201527f43616c6c6572206973206e6f7420617274697374206f722061646d696e00000060448201526064016106f6565b6000835111610b915760405162461bcd60e51b81526020600482015260146024820152734e616d652063616e6e6f7420626520656d70747960601b60448201526064016106f6565b603283511115610bd35760405162461bcd60e51b815260206004820152600d60248201526c4e616d6520746f6f206c6f6e6760981b60448201526064016106f6565b6101f482511115610c155760405162461bcd60e51b815260206004820152600c60248201526b42696f20746f6f206c6f6e6760a01b60448201526064016106f6565b60c881511115610c605760405162461bcd60e51b8152602060048201526016602482015275506f7274666f6c696f2055524c20746f6f206c6f6e6760501b60448201526064016106f6565b610c6981611b05565b610ce55760405162461bcd60e51b815260206004820152604160248201527f496e76616c696420706f7274666f6c696f2055524c20666f726d61743a206d7560448201527f737420737461727420776974682068747470733a2f2f206f7220697066733a2f6064820152602f60f81b608482015260a4016106f6565b604080516060810182528481526020808201859052818301849052336000908152600d8252929092208151805192939192610d2392849201906128ce565b506020828101518051610d3c92600185019201906128ce565b5060408201518051610d589160028401916020909101906128ce565b50506040513391507fe9927784634a05109ee24a89a84586a8fb404cbd7a9e83aa4bd60f2e9a5b9bd490610d9190869086908690613037565b60405180910390a2505050565b60606000610dab83610edd565b905060008167ffffffffffffffff811115610dc857610dc8612b77565b604051908082528060200260200182016040528015610df1578160200160208202803683370190505b509050600060015b600b548111610e7357610e0b816119d1565b8015610e305750856001600160a01b0316610e2582610e7d565b6001600160a01b0316145b15610e615780838381518110610e4857610e48613187565b602090810291909101015281610e5d8161319d565b9250505b80610e6b8161319d565b915050610df9565b5090949350505050565b6000818152600460205260408120546001600160a01b0316806105c25760405162461bcd60e51b8152602060048201526018602482015277115490cdcc8c4e881a5b9d985b1a59081d1bdad95b88125160421b60448201526064016106f6565b60006001600160a01b038216610f475760405162461bcd60e51b815260206004820152602960248201527f4552433732313a2061646472657373207a65726f206973206e6f7420612076616044820152683634b21037bbb732b960b91b60648201526084016106f6565b506001600160a01b031660009081526005602052604090205490565b60606000805160206133aa833981519152610f7d81611840565b610f85611989565b6000845111610fd65760405162461bcd60e51b815260206004820152601960248201527f4e6f206d6574616461746120555249732070726f76696465640000000000000060448201526064016106f6565b82518451146110275760405162461bcd60e51b815260206004820152601860248201527f4d69736d617463686564206172726179206c656e67746873000000000000000060448201526064016106f6565b6032845111156110795760405162461bcd60e51b815260206004820152601860248201527f42617463682073697a652065786365656473206c696d6974000000000000000060448201526064016106f6565b6000845167ffffffffffffffff81111561109557611095612b77565b6040519080825280602002602001820160405280156110be578160200160208202803683370190505b50905060005b85518110156111395761110a338783815181106110e3576110e3613187565b60200260200101518784815181106110fd576110fd613187565b6020026020010151611b67565b82828151811061111c5761111c613187565b6020908102919091010152806111318161319d565b9150506110c4565b50949350505050565b7f65d7a28e3265b37a6474929f336521b332c1681b933f6cb9f3376673440d862a61116c81611840565b61095e611bd6565b60009182526009602090815260408084206001600160a01b0393909316845291905290205460ff1690565b6060600380546105d79061307a565b610928338383611c13565b60007f9f2df0fed2c77648de5860a4cc508cd0818c85b8b8a1ab4ceeef8d981c8956a66111e581611840565b6111ed611989565b6111f8858585611b67565b95945050505050565b61120b338361165e565b6112275760405162461bcd60e51b81526004016106f6906130b5565b610ac684848484611ce2565b60006060600080611243856119d1565b61125f5760405162461bcd60e51b81526004016106f690613159565b60008061126e876127106107dd565b90925090508061127d88610e7d565b61128689611297565b909990985092965094509092505050565b60606105c282611d15565b60006000805160206133aa8339815191526112bc81611840565b6112c4611989565b6112cf338585611b67565b949350505050565b6000828152600960205260409020600101546112f281611840565b61079783836118d0565b600061130781611840565b6001600160a01b03821661134f5760405162461bcd60e51b815260206004820152600f60248201526e496e76616c6964206164647265737360881b60448201526064016106f6565b50600c80546001600160a01b0319166001600160a01b0392909216919091179055565b60608060606000600d6000866001600160a01b03166001600160a01b031681526020019081526020016000206040518060600160405290816000820180546113b99061307a565b80601f01602080910402602001604051908101604052809291908181526020018280546113e59061307a565b80156114325780601f1061140757610100808354040283529160200191611432565b820191906000526020600020905b81548152906001019060200180831161141557829003601f168201915b5050505050815260200160018201805461144b9061307a565b80601f01602080910402602001604051908101604052809291908181526020018280546114779061307a565b80156114c45780601f10611499576101008083540402835291602001916114c4565b820191906000526020600020905b8154815290600101906020018083116114a757829003601f168201915b505050505081526020016002820180546114dd9061307a565b80601f01602080910402602001604051908101604052809291908181526020018280546115099061307a565b80156115565780601f1061152b57610100808354040283529160200191611556565b820191906000526020600020905b81548152906001019060200180831161153957829003601f168201915b5050509190925250508151602083015160409093015190989297509550909350505050565b60006001600160e01b03198216637965db0b60e01b14806105c257506105c282611e1e565b6115a9816119d1565b61095e5760405162461bcd60e51b8152602060048201526018602482015277115490cdcc8c4e881a5b9d985b1a59081d1bdad95b88125160421b60448201526064016106f6565b600081815260066020526040902080546001600160a01b0319166001600160a01b038416908117909155819061162582610e7d565b6001600160a01b03167f8c5be1e5ebec7d5bd14f71427d1e84f3dd0314c0f7b2291e5b200ac8c7c3b92560405160405180910390a45050565b60008061166a83610e7d565b9050806001600160a01b0316846001600160a01b031614806116b157506001600160a01b0380821660009081526007602090815260408083209388168352929052205460ff165b806112cf5750836001600160a01b03166116ca8461065a565b6001600160a01b031614949350505050565b826001600160a01b03166116ef82610e7d565b6001600160a01b0316146117155760405162461bcd60e51b81526004016106f6906131b8565b6001600160a01b0382166117775760405162461bcd60e51b8152602060048201526024808201527f4552433732313a207472616e7366657220746f20746865207a65726f206164646044820152637265737360e01b60648201526084016106f6565b826001600160a01b031661178a82610e7d565b6001600160a01b0316146117b05760405162461bcd60e51b81526004016106f6906131b8565b600081815260066020908152604080832080546001600160a01b03199081169091556001600160a01b0387811680865260058552838620805460001901905590871680865283862080546001019055868652600490945282852080549092168417909155905184937fddf252ad1be2c89b69c2b068fc378daa952ba7f163c4a11628f55a4df523b3ef91a4505050565b61095e8133611e29565b6118548282611174565b6109285760008281526009602090815260408083206001600160a01b03851684529091529020805460ff1916600117905561188c3390565b6001600160a01b0316816001600160a01b0316837f2f8788117e7eff1d82e926ec794901d17c78024a50270940304540a733656f0d60405160405180910390a45050565b6118da8282611174565b156109285760008281526009602090815260408083206001600160a01b0385168085529252808320805460ff1916905551339285917ff6391f5c32d9c69d2a47ea670b442974b53935d1edc7fd64eb21e047a839171b9190a45050565b61193f611e82565b600a805460ff191690557f5db9ee0a495bf2e6ff9c91a7834c1ba4fdd244a5e8aa4e537bd38aeae4b073aa335b6040516001600160a01b03909116815260200160405180910390a1565b600a5460ff16156119cf5760405162461bcd60e51b815260206004820152601060248201526f14185d5cd8589b194e881c185d5cd95960821b60448201526064016106f6565b565b6000908152600460205260409020546001600160a01b0316151590565b61095e81611ecb565b6127106001600160601b0382161115611a655760405162461bcd60e51b815260206004820152602a60248201527f455243323938313a20726f79616c7479206665652077696c6c206578636565646044820152692073616c65507269636560b01b60648201526084016106f6565b6001600160a01b038216611abb5760405162461bcd60e51b815260206004820152601b60248201527f455243323938313a20496e76616c696420706172616d6574657273000000000060448201526064016106f6565b6040805180820182526001600160a01b0393841681526001600160601b0392831660208083019182526000968752600190529190942093519051909116600160a01b029116179055565b600080829050600781511015611b1e5750600092915050565b6000611b29826131fd565b90506001600160c81b031981166668747470733a2f60c81b14806112cf57506001600160c81b0319811666697066733a2f2f60c81b14949350505050565b6000611b738383611ee5565b6000611b7e8561204f565b9050611b8c81858786612076565b80856001600160a01b03167fdf92894dc4675a7333caa5903b69cf5d8e8ec0d3f361c88207b6688e525703bb86604051611bc69190612a28565b60405180910390a3949350505050565b611bde611989565b600a805460ff191660011790557f62e78cea01bee320cd4e420270b5ea74000d11b0c9f74754ebdbfc544b05a25861196c3390565b816001600160a01b0316836001600160a01b03161415611c755760405162461bcd60e51b815260206004820152601960248201527f4552433732313a20617070726f766520746f2063616c6c65720000000000000060448201526064016106f6565b6001600160a01b03838116600081815260076020908152604080832094871680845294825291829020805460ff191686151590811790915591519182527f17307eab39ab6107e8899845ad3d59bd9653f200f220920489ca2b5937696c31910160405180910390a3505050565b611ced8484846116dc565b611cf98484848461208b565b610ac65760405162461bcd60e51b81526004016106f690613234565b6060611d20826115a0565b60008281526008602052604081208054611d399061307a565b80601f0160208091040260200160405190810160405280929190818152602001828054611d659061307a565b8015611db25780601f10611d8757610100808354040283529160200191611db2565b820191906000526020600020905b815481529060010190602001808311611d9557829003601f168201915b505050505090506000611dd060408051602081019091526000815290565b9050805160001415611de3575092915050565b815115611e15578082604051602001611dfd929190613286565b60405160208183030381529060405292505050919050565b6112cf84612198565b60006105c28261220c565b611e338282611174565b61092857611e4081612231565b611e4b836020612243565b604051602001611e5c9291906132b5565b60408051601f198184030181529082905262461bcd60e51b82526106f691600401612a28565b600a5460ff166119cf5760405162461bcd60e51b815260206004820152601460248201527314185d5cd8589b194e881b9bdd081c185d5cd95960621b60448201526064016106f6565b611ed4816123df565b600090815260016020526040812055565b6000825111611f365760405162461bcd60e51b815260206004820152601960248201527f546f6b656e205552492063616e6e6f7420626520656d7074790000000000000060448201526064016106f6565b611f3f82611b05565b611fb3576040805162461bcd60e51b81526020600482015260248101919091527f496e76616c6964206d657461646174612055524920666f726d61743a206d757360448201527f7420737461727420776974682068747470733a2f2f206f7220697066733a2f2f60648201526084016106f6565b60c882511115611ffa5760405162461bcd60e51b8152602060048201526012602482015271546f6b656e2055524920746f6f206c6f6e6760701b60448201526064016106f6565b612710816001600160601b031611156109285760405162461bcd60e51b8152602060048201526017602482015276526f79616c7479206d757374206265203c3d203130302560481b60448201526064016106f6565b600061205f600b80546001019055565b600061206a600b5490565b90506105c2838261241f565b612080848461258c565b610ac68483836119f7565b60006001600160a01b0384163b1561218d57604051630a85bd0160e11b81526001600160a01b0385169063150b7a02906120cf90339089908890889060040161332a565b602060405180830381600087803b1580156120e957600080fd5b505af1925050508015612119575060408051601f3d908101601f191682019092526121169181019061335d565b60015b612173573d808015612147576040519150601f19603f3d011682016040523d82523d6000602084013e61214c565b606091505b50805161216b5760405162461bcd60e51b81526004016106f690613234565b805181602001fd5b6001600160e01b031916630a85bd0160e11b1490506112cf565b506001949350505050565b60606121a3826115a0565b60006121ba60408051602081019091526000815290565b905060008151116121da5760405180602001604052806000815250612205565b806121e48461264f565b6040516020016121f5929190613286565b6040516020818303038152906040525b9392505050565b60006001600160e01b03198216632483248360e11b14806105c257506105c2826126ec565b60606105c26001600160a01b03831660145b60606000612252836002613118565b61225d90600261337a565b67ffffffffffffffff81111561227557612275612b77565b6040519080825280601f01601f19166020018201604052801561229f576020820181803683370190505b509050600360fc1b816000815181106122ba576122ba613187565b60200101906001600160f81b031916908160001a905350600f60fb1b816001815181106122e9576122e9613187565b60200101906001600160f81b031916908160001a905350600061230d846002613118565b61231890600161337a565b90505b6001811115612390576f181899199a1a9b1b9c1cb0b131b232b360811b85600f166010811061234c5761234c613187565b1a60f81b82828151811061236257612362613187565b60200101906001600160f81b031916908160001a90535060049490941c9361238981613392565b905061231b565b5083156122055760405162461bcd60e51b815260206004820181905260248201527f537472696e67733a20686578206c656e67746820696e73756666696369656e7460448201526064016106f6565b6123e88161272c565b600081815260086020526040902080546124019061307a565b15905061095e57600081815260086020526040812061095e91612952565b6001600160a01b0382166124755760405162461bcd60e51b815260206004820181905260248201527f4552433732313a206d696e7420746f20746865207a65726f206164647265737360448201526064016106f6565b61247e816119d1565b156124cb5760405162461bcd60e51b815260206004820152601c60248201527f4552433732313a20746f6b656e20616c7265616479206d696e7465640000000060448201526064016106f6565b6124d4816119d1565b156125215760405162461bcd60e51b815260206004820152601c60248201527f4552433732313a20746f6b656e20616c7265616479206d696e7465640000000060448201526064016106f6565b6001600160a01b038216600081815260056020908152604080832080546001019055848352600490915280822080546001600160a01b0319168417905551839291907fddf252ad1be2c89b69c2b068fc378daa952ba7f163c4a11628f55a4df523b3ef908290a45050565b612595826119d1565b6125f85760405162461bcd60e51b815260206004820152602e60248201527f45524337323155524953746f726167653a2055524920736574206f66206e6f6e60448201526d32bc34b9ba32b73a103a37b5b2b760911b60648201526084016106f6565b60008281526008602090815260409091208251612617928401906128ce565b506040518281527ff8e1a15aba9398e019f0b49df1a4fde98ee17ae345cb5f6b5e2c27f5033e8ce79060200160405180910390a15050565b6060600061265c836127c1565b600101905060008167ffffffffffffffff81111561267c5761267c612b77565b6040519080825280601f01601f1916602001820160405280156126a6576020820181803683370190505b5090508181016020015b600019016f181899199a1a9b1b9c1cb0b131b232b360811b600a86061a8153600a85049450846126df576126e4565b6126b0565b509392505050565b60006001600160e01b031982166380ac58cd60e01b148061271d57506001600160e01b03198216635b5e139f60e01b145b806105c257506105c282612899565b600061273782610e7d565b905061274282610e7d565b600083815260066020908152604080832080546001600160a01b03199081169091556001600160a01b0385168085526005845282852080546000190190558785526004909352818420805490911690555192935084927fddf252ad1be2c89b69c2b068fc378daa952ba7f163c4a11628f55a4df523b3ef908390a45050565b60008072184f03e93ff9f4daa797ed6e38ed64bf6a1f0160401b83106128005772184f03e93ff9f4daa797ed6e38ed64bf6a1f0160401b830492506040015b6d04ee2d6d415b85acef8100000000831061282c576d04ee2d6d415b85acef8100000000830492506020015b662386f26fc10000831061284a57662386f26fc10000830492506010015b6305f5e1008310612862576305f5e100830492506008015b612710831061287657612710830492506004015b60648310612888576064830492506002015b600a83106105c25760010192915050565b60006001600160e01b0319821663152a902d60e11b14806105c257506301ffc9a760e01b6001600160e01b03198316146105c2565b8280546128da9061307a565b90600052602060002090601f0160209004810192826128fc5760008555612942565b82601f1061291557805160ff1916838001178555612942565b82800160010185558215612942579182015b82811115612942578251825591602001919060010190612927565b5061294e929150612988565b5090565b50805461295e9061307a565b6000825580601f1061296e575050565b601f01602090049060005260206000209081019061095e91905b5b8082111561294e5760008155600101612989565b6001600160e01b03198116811461095e57600080fd5b6000602082840312156129c557600080fd5b81356122058161299d565b60005b838110156129eb5781810151838201526020016129d3565b83811115610ac65750506000910152565b60008151808452612a148160208601602086016129d0565b601f01601f19169290920160200192915050565b60208152600061220560208301846129fc565b600060208284031215612a4d57600080fd5b5035919050565b80356001600160a01b0381168114612a6b57600080fd5b919050565b60008060408385031215612a8357600080fd5b612a8c83612a54565b946020939093013593505050565b600080600060608486031215612aaf57600080fd5b612ab884612a54565b9250612ac660208501612a54565b9150604084013590509250925092565b60008060408385031215612ae957600080fd5b50508035926020909101359150565b60008060408385031215612b0b57600080fd5b82359150612b1b60208401612a54565b90509250929050565b80356001600160601b0381168114612a6b57600080fd5b600080600060608486031215612b5057600080fd5b83359250612b6060208501612a54565b9150612b6e60408501612b24565b90509250925092565b634e487b7160e01b600052604160045260246000fd5b604051601f8201601f1916810167ffffffffffffffff81118282101715612bb657612bb6612b77565b604052919050565b600067ffffffffffffffff831115612bd857612bd8612b77565b612beb601f8401601f1916602001612b8d565b9050828152838383011115612bff57600080fd5b828260208301376000602084830101529392505050565b600082601f830112612c2757600080fd5b61220583833560208501612bbe565b600080600060608486031215612c4b57600080fd5b833567ffffffffffffffff80821115612c6357600080fd5b612c6f87838801612c16565b94506020860135915080821115612c8557600080fd5b612c9187838801612c16565b93506040860135915080821115612ca757600080fd5b50612cb486828701612c16565b9150509250925092565b600060208284031215612cd057600080fd5b61220582612a54565b6020808252825182820181905260009190848201906040850190845b81811015612d1157835183529284019291840191600101612cf5565b50909695505050505050565b600067ffffffffffffffff821115612d3757612d37612b77565b5060051b60200190565b600082601f830112612d5257600080fd5b81356020612d67612d6283612d1d565b612b8d565b82815260059290921b84018101918181019086841115612d8657600080fd5b8286015b84811015612da857612d9b81612b24565b8352918301918301612d8a565b509695505050505050565b60008060408385031215612dc657600080fd5b823567ffffffffffffffff80821115612dde57600080fd5b818501915085601f830112612df257600080fd5b81356020612e02612d6283612d1d565b82815260059290921b84018101918181019089841115612e2157600080fd5b8286015b84811015612e5957803586811115612e3d5760008081fd5b612e4b8c86838b0101612c16565b845250918301918301612e25565b5096505086013592505080821115612e7057600080fd5b50612e7d85828601612d41565b9150509250929050565b60008060408385031215612e9a57600080fd5b612ea383612a54565b915060208301358015158114612eb857600080fd5b809150509250929050565b600080600060608486031215612ed857600080fd5b612ee184612a54565b9250602084013567ffffffffffffffff811115612efd57600080fd5b612f0986828701612c16565b925050612b6e60408501612b24565b60008060008060808587031215612f2e57600080fd5b612f3785612a54565b9350612f4560208601612a54565b925060408501359150606085013567ffffffffffffffff811115612f6857600080fd5b8501601f81018713612f7957600080fd5b612f8887823560208401612bbe565b91505092959194509250565b600060018060a01b03808716835260806020840152612fb660808401876129fc565b94166040830152506060015292915050565b60008060408385031215612fdb57600080fd5b823567ffffffffffffffff811115612ff257600080fd5b612ffe85828601612c16565b925050612b1b60208401612b24565b6000806040838503121561302057600080fd5b61302983612a54565b9150612b1b60208401612a54565b60608152600061304a60608301866129fc565b828103602084015261305c81866129fc565b9050828103604084015261307081856129fc565b9695505050505050565b600181811c9082168061308e57607f821691505b602082108114156130af57634e487b7160e01b600052602260045260246000fd5b50919050565b6020808252602d908201527f4552433732313a2063616c6c6572206973206e6f7420746f6b656e206f776e6560408201526c1c881bdc88185c1c1c9bdd9959609a1b606082015260800190565b634e487b7160e01b600052601160045260246000fd5b600081600019048311821515161561313257613132613102565b500290565b60008261315457634e487b7160e01b600052601260045260246000fd5b500490565b602080825260149082015273151bdad95b88191bd95cc81b9bdd08195e1a5cdd60621b604082015260600190565b634e487b7160e01b600052603260045260246000fd5b60006000198214156131b1576131b1613102565b5060010190565b60208082526025908201527f4552433732313a207472616e736665722066726f6d20696e636f72726563742060408201526437bbb732b960d91b606082015260800190565b805160208201516001600160c81b0319808216929190600783101561322c5780818460070360031b1b83161693505b505050919050565b60208082526032908201527f4552433732313a207472616e7366657220746f206e6f6e20455243373231526560408201527131b2b4bb32b91034b6b83632b6b2b73a32b960711b606082015260800190565b600083516132988184602088016129d0565b8351908301906132ac8183602088016129d0565b01949350505050565b7f416363657373436f6e74726f6c3a206163636f756e74200000000000000000008152600083516132ed8160178501602088016129d0565b7001034b99036b4b9b9b4b733903937b6329607d1b601791840191820152835161331e8160288401602088016129d0565b01602801949350505050565b6001600160a01b0385811682528416602082015260408101839052608060608201819052600090613070908301846129fc565b60006020828403121561336f57600080fd5b81516122058161299d565b6000821982111561338d5761338d613102565b500190565b6000816133a1576133a1613102565b50600019019056fe877a78dc988c0ec5f58453b44888a55eb39755c3d5ed8d8ea990912aa3ef29c6a264697066735822122036db87c1db81f020f80e4178e98da20e99ca91feba9500df3539b15f0594e20464736f6c63430008090033",
  "linkReferences": {},
  "deployedLinkReferences": {}
}