{
  "_format": "hh-sol-artifact-1",
  "contractName": "DoArt",
  "sourceName": "contracts/DoArt.sol",
  "abi": [
    {
      "inputs": [
        {
          "internalType": "address",
          "name": "_storageContract",
          "type": "address"
        }
      ],
      "stateMutability": "nonpayable",
      "type": "constructor"
    },
    {
      "anonymous": false,
      "inputs": [
        {
          "indexed": true,
          "internalType": "address",
          "name": "owner",
          "type": "address"
        },
        {
          "indexed": true,
          "internalType": "address",
          "name": "approved",
          "type": "address"
        },
        {
          "indexed": true,
          "internalType": "uint256",
          "name": "tokenId",
          "type": "uint256"
        }
      ],
      "name": "Approval",
      "type": "event"
    },
    {
      "anonymous": false,
      "inputs": [
        {
          "indexed": true,
          "internalType": "address",
          "name": "owner",
          "type": "address"
        },
        {
          "indexed": true,
          "internalType": "address",
          "name": "operator",
          "type": "address"
        },
        {
          "indexed": false,
          "internalType": "bool",
          "name": "approved",
          "type": "bool"
        }
      ],
      "name": "ApprovalForAll",
      "type": "event"
    },
    {
      "anonymous": false,
      "inputs": [
        {
          "indexed": true,
          "internalType": "address",
          "name": "artist",
          "type": "address"
        },
        {
          "indexed": false,
          "internalType": "string",
          "name": "name",
          "type": "string"
        },
        {
          "indexed": false,
          "internalType": "string",
          "name": "bio",
          "type": "string"
        },
        {
          "indexed": false,
          "internalType": "string",
          "name": "portfolioUrl",
          "type": "string"
        }
      ],
      "name": "ArtistMetadataUpdated",
      "type": "event"
    },
    {
      "anonymous": false,
      "inputs": [
        {
          "indexed": false,
          "internalType": "uint256",
          "name": "_fromTokenId",
          "type": "uint256"
        },
        {
          "indexed": false,
          "internalType": "uint256",
          "name": "_toTokenId",
          "type": "uint256"
        }
      ],
      "name": "BatchMetadataUpdate",
      "type": "event"
    },
    {
      "anonymous": false,
      "inputs": [
        {
          "indexed": false,
          "internalType": "uint256",
          "name": "_tokenId",
          "type": "uint256"
        }
      ],
      "name": "MetadataUpdate",
      "type": "event"
    },
    {
      "anonymous": false,
      "inputs": [
        {
          "indexed": false,
          "internalType": "address",
          "name": "account",
          "type": "address"
        }
      ],
      "name": "Paused",
      "type": "event"
    },
    {
      "anonymous": false,
      "inputs": [
        {
          "indexed": true,
          "internalType": "bytes32",
          "name": "role",
          "type": "bytes32"
        },
        {
          "indexed": true,
          "internalType": "bytes32",
          "name": "previousAdminRole",
          "type": "bytes32"
        },
        {
          "indexed": true,
          "internalType": "bytes32",
          "name": "newAdminRole",
          "type": "bytes32"
        }
      ],
      "name": "RoleAdminChanged",
      "type": "event"
    },
    {
      "anonymous": false,
      "inputs": [
        {
          "indexed": true,
          "internalType": "bytes32",
          "name": "role",
          "type": "bytes32"
        },
        {
          "indexed": true,
          "internalType": "address",
          "name": "account",
          "type": "address"
        },
        {
          "indexed": true,
          "internalType": "address",
          "name": "sender",
          "type": "address"
        }
      ],
      "name": "RoleGranted",
      "type": "event"
    },
    {
      "anonymous": false,
      "inputs": [
        {
          "indexed": true,
          "internalType": "bytes32",
          "name": "role",
          "type": "bytes32"
        },
        {
          "indexed": true,
          "internalType": "address",
          "name": "account",
          "type": "address"
        },
        {
          "indexed": true,
          "internalType": "address",
          "name": "sender",
          "type": "address"
        }
      ],
      "name": "RoleRevoked",
      "type": "event"
    },
    {
      "anonymous": false,
      "inputs": [
        {
          "indexed": true,
          "internalType": "uint256",
          "name": "tokenId",
          "type": "uint256"
        }
      ],
      "name": "TokenBurned",
      "type": "event"
    },
    {
      "anonymous": false,
      "inputs": [
        {
          "indexed": true,
          "internalType": "address",
          "name": "owner",
          "type": "address"
        },
        {
          "indexed": true,
          "internalType": "uint256",
          "name": "tokenId",
          "type": "uint256"
        },
        {
          "indexed": false,
          "internalType": "string",
          "name": "metadataURI",
          "type": "string"
        }
      ],
      "name": "TokenMinted",
      "type": "event"
    },
    {
      "anonymous": false,
      "inputs": [
        {
          "indexed": true,
          "internalType": "address",
          "name": "from",
          "type": "address"
        },
        {
          "indexed": true,
          "internalType": "address",
          "name": "to",
          "type": "address"
        },
        {
          "indexed": true,
          "internalType": "uint256",
          "name": "tokenId",
          "type": "uint256"
        }
      ],
      "name": "Transfer",
      "type": "event"
    },
    {
      "anonymous": false,
      "inputs": [
        {
          "indexed": false,
          "internalType": "address",
          "name": "account",
          "type": "address"
        }
      ],
      "name": "Unpaused",
      "type": "event"
    },
    {
      "inputs": [],
      "name": "ARTIST_ROLE",
      "outputs": [
        {
          "internalType": "bytes32",
          "name": "",
          "type": "bytes32"
        }
      ],
      "stateMutability": "view",
      "type": "function"
    },
    {
      "inputs": [],
      "name": "DEFAULT_ADMIN_ROLE",
      "outputs": [
        {
          "internalType": "bytes32",
          "name": "",
          "type": "bytes32"
        }
      ],
      "stateMutability": "view",
      "type": "function"
    },
    {
      "inputs": [],
      "name": "MINTER_ROLE",
      "outputs": [
        {
          "internalType": "bytes32",
          "name": "",
          "type": "bytes32"
        }
      ],
      "stateMutability": "view",
      "type": "function"
    },
    {
      "inputs": [],
      "name": "PAUSER_ROLE",
      "outputs": [
        {
          "internalType": "bytes32",
          "name": "",
          "type": "bytes32"
        }
      ],
      "stateMutability": "view",
      "type": "function"
    },
    {
      "inputs": [
        {
          "internalType": "address",
          "name": "to",
          "type": "address"
        },
        {
          "internalType": "uint256",
          "name": "tokenId",
          "type": "uint256"
        }
      ],
      "name": "approve",
      "outputs": [],
      "stateMutability": "nonpayable",
      "type": "function"
    },
    {
      "inputs": [
        {
          "internalType": "address",
          "name": "owner",
          "type": "address"
        }
      ],
      "name": "balanceOf",
      "outputs": [
        {
          "internalType": "uint256",
          "name": "",
          "type": "uint256"
        }
      ],
      "stateMutability": "view",
      "type": "function"
    },
    {
      "inputs": [
        {
          "internalType": "string[]",
          "name": "metadataURIs",
          "type": "string[]"
        },
        {
          "internalType": "uint96[]",
          "name": "royaltyBps",
          "type": "uint96[]"
        }
      ],
      "name": "batchMint",
      "outputs": [
        {
          "internalType": "uint256[]",
          "name": "",
          "type": "uint256[]"
        }
      ],
      "stateMutability": "nonpayable",
      "type": "function"
    },
    {
      "inputs": [
        {
          "internalType": "uint256",
          "name": "tokenId",
          "type": "uint256"
        }
      ],
      "name": "burn",
      "outputs": [],
      "stateMutability": "nonpayable",
      "type": "function"
    },
    {
      "inputs": [
        {
          "internalType": "uint256",
          "name": "tokenId",
          "type": "uint256"
        }
      ],
      "name": "getApproved",
      "outputs": [
        {
          "internalType": "address",
          "name": "",
          "type": "address"
        }
      ],
      "stateMutability": "view",
      "type": "function"
    },
    {
      "inputs": [
        {
          "internalType": "address",
          "name": "artist",
          "type": "address"
        }
      ],
      "name": "getArtistMetadata",
      "outputs": [
        {
          "internalType": "string",
          "name": "name",
          "type": "string"
        },
        {
          "internalType": "string",
          "name": "bio",
          "type": "string"
        },
        {
          "internalType": "string",
          "name": "portfolioUrl",
          "type": "string"
        }
      ],
      "stateMutability": "view",
      "type": "function"
    },
    {
      "inputs": [
        {
          "internalType": "bytes32",
          "name": "role",
          "type": "bytes32"
        }
      ],
      "name": "getRoleAdmin",
      "outputs": [
        {
          "internalType": "bytes32",
          "name": "",
          "type": "bytes32"
        }
      ],
      "stateMutability": "view",
      "type": "function"
    },
    {
      "inputs": [
        {
          "internalType": "uint256",
          "name": "tokenId",
          "type": "uint256"
        }
      ],
      "name": "getTokenDetails",
      "outputs": [
        {
          "internalType": "address",
          "name": "owner",
          "type": "address"
        },
        {
          "internalType": "string",
          "name": "uri",
          "type": "string"
        },
        {
          "internalType": "address",
          "name": "royaltyRecipient",
          "type": "address"
        },
        {
          "internalType": "uint256",
          "name": "royaltyBps",
          "type": "uint256"
        }
      ],
      "stateMutability": "view",
      "type": "function"
    },
    {
      "inputs": [
        {
          "internalType": "address",
          "name": "owner",
          "type": "address"
        }
      ],
      "name": "getTokensOfOwner",
      "outputs": [
        {
          "internalType": "uint256[]",
          "name": "",
          "type": "uint256[]"
        }
      ],
      "stateMutability": "view",
      "type": "function"
    },
    {
      "inputs": [
        {
          "internalType": "bytes32",
          "name": "role",
          "type": "bytes32"
        },
        {
          "internalType": "address",
          "name": "account",
          "type": "address"
        }
      ],
      "name": "grantRole",
      "outputs": [],
      "stateMutability": "nonpayable",
      "type": "function"
    },
    {
      "inputs": [
        {
          "internalType": "bytes32",
          "name": "role",
          "type": "bytes32"
        },
        {
          "internalType": "address",
          "name": "account",
          "type": "address"
        }
      ],
      "name": "hasRole",
      "outputs": [
        {
          "internalType": "bool",
          "name": "",
          "type": "bool"
        }
      ],
      "stateMutability": "view",
      "type": "function"
    },
    {
      "inputs": [
        {
          "internalType": "address",
          "name": "owner",
          "type": "address"
        },
        {
          "internalType": "address",
          "name": "operator",
          "type": "address"
        }
      ],
      "name": "isApprovedForAll",
      "outputs": [
        {
          "internalType": "bool",
          "name": "",
          "type": "bool"
        }
      ],
      "stateMutability": "view",
      "type": "function"
    },
    {
      "inputs": [
        {
          "internalType": "string",
          "name": "metadataURI",
          "type": "string"
        },
        {
          "internalType": "uint96",
          "name": "royaltyBps",
          "type": "uint96"
        }
      ],
      "name": "mint",
      "outputs": [
        {
          "internalType": "uint256",
          "name": "",
          "type": "uint256"
        }
      ],
      "stateMutability": "nonpayable",
      "type": "function"
    },
    {
      "inputs": [
        {
          "internalType": "address",
          "name": "to",
          "type": "address"
        },
        {
          "internalType": "string",
          "name": "metadataURI",
          "type": "string"
        },
        {
          "internalType": "uint96",
          "name": "royaltyBps",
          "type": "uint96"
        }
      ],
      "name": "mintFor",
      "outputs": [
        {
          "internalType": "uint256",
          "name": "",
          "type": "uint256"
        }
      ],
      "stateMutability": "nonpayable",
      "type": "function"
    },
    {
      "inputs": [],
      "name": "name",
      "outputs": [
        {
          "internalType": "string",
          "name": "",
          "type": "string"
        }
      ],
      "stateMutability": "view",
      "type": "function"
    },
    {
      "inputs": [
        {
          "internalType": "uint256",
          "name": "tokenId",
          "type": "uint256"
        }
      ],
      "name": "ownerOf",
      "outputs": [
        {
          "internalType": "address",
          "name": "",
          "type": "address"
        }
      ],
      "stateMutability": "view",
      "type": "function"
    },
    {
      "inputs": [],
      "name": "pause",
      "outputs": [],
      "stateMutability": "nonpayable",
      "type": "function"
    },
    {
      "inputs": [],
      "name": "paused",
      "outputs": [
        {
          "internalType": "bool",
          "name": "",
          "type": "bool"
        }
      ],
      "stateMutability": "view",
      "type": "function"
    },
    {
      "inputs": [
        {
          "internalType": "bytes32",
          "name": "role",
          "type": "bytes32"
        },
        {
          "internalType": "address",
          "name": "account",
          "type": "address"
        }
      ],
      "name": "renounceRole",
      "outputs": [],
      "stateMutability": "nonpayable",
      "type": "function"
    },
    {
      "inputs": [
        {
          "internalType": "bytes32",
          "name": "role",
          "type": "bytes32"
        },
        {
          "internalType": "address",
          "name": "account",
          "type": "address"
        }
      ],
      "name": "revokeRole",
      "outputs": [],
      "stateMutability": "nonpayable",
      "type": "function"
    },
    {
      "inputs": [
        {
          "internalType": "uint256",
          "name": "tokenId",
          "type": "uint256"
        },
        {
          "internalType": "uint256",
          "name": "salePrice",
          "type": "uint256"
        }
      ],
      "name": "royaltyInfo",
      "outputs": [
        {
          "internalType": "address",
          "name": "",
          "type": "address"
        },
        {
          "internalType": "uint256",
          "name": "",
          "type": "uint256"
        }
      ],
      "stateMutability": "view",
      "type": "function"
    },
    {
      "inputs": [
        {
          "internalType": "address",
          "name": "from",
          "type": "address"
        },
        {
          "internalType": "address",
          "name": "to",
          "type": "address"
        },
        {
          "internalType": "uint256",
          "name": "tokenId",
          "type": "uint256"
        }
      ],
      "name": "safeTransferFrom",
      "outputs": [],
      "stateMutability": "nonpayable",
      "type": "function"
    },
    {
      "inputs": [
        {
          "internalType": "address",
          "name": "from",
          "type": "address"
        },
        {
          "internalType": "address",
          "name": "to",
          "type": "address"
        },
        {
          "internalType": "uint256",
          "name": "tokenId",
          "type": "uint256"
        },
        {
          "internalType": "bytes",
          "name": "data",
          "type": "bytes"
        }
      ],
      "name": "safeTransferFrom",
      "outputs": [],
      "stateMutability": "nonpayable",
      "type": "function"
    },
    {
      "inputs": [
        {
          "internalType": "address",
          "name": "operator",
          "type": "address"
        },
        {
          "internalType": "bool",
          "name": "approved",
          "type": "bool"
        }
      ],
      "name": "setApprovalForAll",
      "outputs": [],
      "stateMutability": "nonpayable",
      "type": "function"
    },
    {
      "inputs": [
        {
          "internalType": "string",
          "name": "name",
          "type": "string"
        },
        {
          "internalType": "string",
          "name": "bio",
          "type": "string"
        },
        {
          "internalType": "string",
          "name": "portfolioUrl",
          "type": "string"
        }
      ],
      "name": "setArtistMetadata",
      "outputs": [],
      "stateMutability": "nonpayable",
      "type": "function"
    },
    {
      "inputs": [
        {
          "internalType": "uint256",
          "name": "tokenId",
          "type": "uint256"
        },
        {
          "internalType": "address",
          "name": "recipient",
          "type": "address"
        },
        {
          "internalType": "uint96",
          "name": "royaltyBps",
          "type": "uint96"
        }
      ],
      "name": "setTokenRoyalty",
      "outputs": [],
      "stateMutability": "nonpayable",
      "type": "function"
    },
    {
      "inputs": [],
      "name": "storageContract",
      "outputs": [
        {
          "internalType": "contract EscrowStorage",
          "name": "",
          "type": "address"
        }
      ],
      "stateMutability": "view",
      "type": "function"
    },
    {
      "inputs": [
        {
          "internalType": "bytes4",
          "name": "interfaceId",
          "type": "bytes4"
        }
      ],
      "name": "supportsInterface",
      "outputs": [
        {
          "internalType": "bool",
          "name": "",
          "type": "bool"
        }
      ],
      "stateMutability": "view",
      "type": "function"
    },
    {
      "inputs": [],
      "name": "symbol",
      "outputs": [
        {
          "internalType": "string",
          "name": "",
          "type": "string"
        }
      ],
      "stateMutability": "view",
      "type": "function"
    },
    {
      "inputs": [
        {
          "internalType": "uint256",
          "name": "tokenId",
          "type": "uint256"
        }
      ],
      "name": "tokenURI",
      "outputs": [
        {
          "internalType": "string",
          "name": "",
          "type": "string"
        }
      ],
      "stateMutability": "view",
      "type": "function"
    },
    {
      "inputs": [],
      "name": "totalSupply",
      "outputs": [
        {
          "internalType": "uint256",
          "name": "",
          "type": "uint256"
        }
      ],
      "stateMutability": "view",
      "type": "function"
    },
    {
      "inputs": [
        {
          "internalType": "address",
          "name": "from",
          "type": "address"
        },
        {
          "internalType": "address",
          "name": "to",
          "type": "address"
        },
        {
          "internalType": "uint256",
          "name": "tokenId",
          "type": "uint256"
        }
      ],
      "name": "transferFrom",
      "outputs": [],
      "stateMutability": "nonpayable",
      "type": "function"
    },
    {
      "inputs": [],
      "name": "unpause",
      "outputs": [],
      "stateMutability": "nonpayable",
      "type": "function"
    }
  ],
  "bytecode": "0x60806040523480156200001157600080fd5b506040516200369f3803806200369f8339810160408190526200003491620002b5565b60405180604001604052806005815260200164111bd05c9d60da1b81525060405180604001604052806002815260200161444160f01b8152508160029080519060200190620000859291906200020f565b5080516200009b9060039060208401906200020f565b5050600a805460ff1916905550600c80546001600160a01b0319166001600160a01b038316179055620000d06000336200015b565b620000fc7f877a78dc988c0ec5f58453b44888a55eb39755c3d5ed8d8ea990912aa3ef29c6336200015b565b620001287f65d7a28e3265b37a6474929f336521b332c1681b933f6cb9f3376673440d862a336200015b565b620001547f9f2df0fed2c77648de5860a4cc508cd0818c85b8b8a1ab4ceeef8d981c8956a6336200015b565b5062000324565b6200016782826200016b565b5050565b60008281526009602090815260408083206001600160a01b038516845290915290205460ff16620001675760008281526009602090815260408083206001600160a01b03851684529091529020805460ff19166001179055620001cb3390565b6001600160a01b0316816001600160a01b0316837f2f8788117e7eff1d82e926ec794901d17c78024a50270940304540a733656f0d60405160405180910390a45050565b8280546200021d90620002e7565b90600052602060002090601f0160209004810192826200024157600085556200028c565b82601f106200025c57805160ff19168380011785556200028c565b828001600101855582156200028c579182015b828111156200028c5782518255916020019190600101906200026f565b506200029a9291506200029e565b5090565b5b808211156200029a57600081556001016200029f565b600060208284031215620002c857600080fd5b81516001600160a01b0381168114620002e057600080fd5b9392505050565b600181811c90821680620002fc57607f821691505b602082108114156200031e57634e487b7160e01b600052602260045260246000fd5b50919050565b61336b80620003346000396000f3fe608060405234801561001057600080fd5b50600436106102275760003560e01c80636352211e11610130578063ae7f3c0f116100b8578063d53913931161007c578063d5391393146104da578063d547741f14610501578063e63ab1e914610514578063e985e9c51461053b578063f15111b31461057757600080fd5b8063ae7f3c0f1461046b578063b88d4fde1461047e578063c1e0372814610491578063c87b56dd146104b4578063cbbb20a4146104c757600080fd5b806391d14854116100ff57806391d148541461042057806395d89b4114610433578063a217fddf1461043b578063a22cb46514610443578063a966a0df1461045657600080fd5b80636352211e146103df57806370a08231146103f25780637e59ff3d146104055780638456cb591461041857600080fd5b80632f2ff15d116101b357806342966c681161018257806342966c681461037b5780635944c7531461038e5780635c975abb146103a15780635dc7c38f146103ac5780635de6dc55146103bf57600080fd5b80632f2ff15d1461033a57806336568abe1461034d5780633f4ba83a1461036057806342842e0e1461036857600080fd5b806311ce0267116101fa57806311ce0267146102a957806318160ddd146102bc57806323b872dd146102d2578063248a9ca3146102e55780632a55205a1461030857600080fd5b806301ffc9a71461022c57806306fdde0314610254578063081812fc14610269578063095ea7b314610294575b600080fd5b61023f61023a36600461291f565b610599565b60405190151581526020015b60405180910390f35b61025c6105aa565b60405161024b9190612994565b61027c6102773660046129a7565b61063c565b6040516001600160a01b03909116815260200161024b565b6102a76102a23660046129dc565b610663565b005b600c5461027c906001600160a01b031681565b6102c461077e565b60405190815260200161024b565b6102a76102e0366004612a06565b61078e565b6102c46102f33660046129a7565b60009081526009602052604090206001015490565b61031b610316366004612a42565b6107bf565b604080516001600160a01b03909316835260208301919091520161024b565b6102a7610348366004612a64565b61086b565b6102a761035b366004612a64565b610890565b6102a761090e565b6102a7610376366004612a06565b610943565b6102a76103893660046129a7565b61095e565b6102a761039c366004612aa7565b610a18565b600a5460ff1661023f565b6102a76103ba366004612ba2565b610aae565b6103d26103cd366004612c2a565b610d80565b60405161024b9190612c45565b61027c6103ed3660046129a7565b610e5f565b6102c4610400366004612c2a565b610ebf565b6103d2610413366004612d1f565b610f45565b6102a7611124565b61023f61042e366004612a64565b611156565b61025c611181565b6102c4600081565b6102a7610451366004612df3565b611190565b6102c460008051602061331683398151915281565b6102c4610479366004612e2f565b61119b565b6102a761048c366004612e84565b6111e3565b6104a461049f3660046129a7565b611215565b60405161024b9493929190612f00565b61025c6104c23660046129a7565b611279565b6102c46104d5366004612f34565b611284565b6102c47f9f2df0fed2c77648de5860a4cc508cd0818c85b8b8a1ab4ceeef8d981c8956a681565b6102a761050f366004612a64565b6112b9565b6102c47f65d7a28e3265b37a6474929f336521b332c1681b933f6cb9f3376673440d862a81565b61023f610549366004612f79565b6001600160a01b03918216600090815260076020908152604080832093909416825291909152205460ff1690565b61058a610585366004612c2a565b6112de565b60405161024b93929190612fa3565b60006105a4826114e7565b92915050565b6060600280546105b990612fe6565b80601f01602080910402602001604051908101604052809291908181526020018280546105e590612fe6565b80156106325780601f1061060757610100808354040283529160200191610632565b820191906000526020600020905b81548152906001019060200180831161061557829003601f168201915b5050505050905090565b60006106478261150c565b506000908152600660205260409020546001600160a01b031690565b600061066e82610e5f565b9050806001600160a01b0316836001600160a01b031614156106e15760405162461bcd60e51b815260206004820152602160248201527f4552433732313a20617070726f76616c20746f2063757272656e74206f776e656044820152603960f91b60648201526084015b60405180910390fd5b336001600160a01b03821614806106fd57506106fd8133610549565b61076f5760405162461bcd60e51b815260206004820152603d60248201527f4552433732313a20617070726f76652063616c6c6572206973206e6f7420746f60448201527f6b656e206f776e6572206f7220617070726f76656420666f7220616c6c00000060648201526084016106d8565b610779838361155c565b505050565b6000610789600b5490565b905090565b61079833826115ca565b6107b45760405162461bcd60e51b81526004016106d890613021565b610779838383611648565b60008281526001602090815260408083208151808301909252546001600160a01b038116808352600160a01b9091046001600160601b03169282019290925282916108345750604080518082019091526000546001600160a01b0381168252600160a01b90046001600160601b031660208201525b602081015160009061271090610853906001600160601b031687613084565b61085d91906130a3565b915196919550909350505050565b600082815260096020526040902060010154610886816117ac565b61077983836117b6565b6001600160a01b03811633146109005760405162461bcd60e51b815260206004820152602f60248201527f416363657373436f6e74726f6c3a2063616e206f6e6c792072656e6f756e636560448201526e103937b632b9903337b91039b2b63360891b60648201526084016106d8565b61090a828261183c565b5050565b7f65d7a28e3265b37a6474929f336521b332c1681b933f6cb9f3376673440d862a610938816117ac565b6109406118a3565b50565b610779838383604051806020016040528060008152506111e3565b6109666118f5565b61096f8161193d565b61098b5760405162461bcd60e51b81526004016106d8906130c5565b61099533826115ca565b6109e15760405162461bcd60e51b815260206004820181905260248201527f43616c6c6572206973206e6f74206f776e6572206e6f7220617070726f76656460448201526064016106d8565b6109ea8161195a565b60405181907f0c526103b8f47af5516191d0c89a598755bd00faa211a3cb52e4c2cc782f7fe290600090a250565b6000610a23816117ac565b610a2c8461193d565b610a485760405162461bcd60e51b81526004016106d8906130c5565b612710826001600160601b03161115610a9d5760405162461bcd60e51b8152602060048201526017602482015276526f79616c7479206d757374206265203c3d203130302560481b60448201526064016106d8565b610aa8848484611963565b50505050565b610ab66118f5565b610ace60008051602061331683398151915233611156565b80610adf5750610adf600033611156565b610b2b5760405162461bcd60e51b815260206004820152601d60248201527f43616c6c6572206973206e6f7420617274697374206f722061646d696e00000060448201526064016106d8565b6000835111610b735760405162461bcd60e51b81526020600482015260146024820152734e616d652063616e6e6f7420626520656d70747960601b60448201526064016106d8565b603283511115610bb55760405162461bcd60e51b815260206004820152600d60248201526c4e616d6520746f6f206c6f6e6760981b60448201526064016106d8565b6101f482511115610bf75760405162461bcd60e51b815260206004820152600c60248201526b42696f20746f6f206c6f6e6760a01b60448201526064016106d8565b60c881511115610c425760405162461bcd60e51b8152602060048201526016602482015275506f7274666f6c696f2055524c20746f6f206c6f6e6760501b60448201526064016106d8565b610c4b81611a71565b610cc75760405162461bcd60e51b815260206004820152604160248201527f496e76616c696420706f7274666f6c696f2055524c20666f726d61743a206d7560448201527f737420737461727420776974682068747470733a2f2f206f7220697066733a2f6064820152602f60f81b608482015260a4016106d8565b604080516060810182528481526020808201859052818301849052336000908152600d8252929092208151805192939192610d05928492019061283a565b506020828101518051610d1e926001850192019061283a565b5060408201518051610d3a91600284019160209091019061283a565b50506040513391507fe9927784634a05109ee24a89a84586a8fb404cbd7a9e83aa4bd60f2e9a5b9bd490610d7390869086908690612fa3565b60405180910390a2505050565b60606000610d8d83610ebf565b905060008167ffffffffffffffff811115610daa57610daa612ae3565b604051908082528060200260200182016040528015610dd3578160200160208202803683370190505b509050600060015b600b548111610e5557610ded8161193d565b8015610e125750856001600160a01b0316610e0782610e5f565b6001600160a01b0316145b15610e435780838381518110610e2a57610e2a6130f3565b602090810291909101015281610e3f81613109565b9250505b80610e4d81613109565b915050610ddb565b5090949350505050565b6000818152600460205260408120546001600160a01b0316806105a45760405162461bcd60e51b8152602060048201526018602482015277115490cdcc8c4e881a5b9d985b1a59081d1bdad95b88125160421b60448201526064016106d8565b60006001600160a01b038216610f295760405162461bcd60e51b815260206004820152602960248201527f4552433732313a2061646472657373207a65726f206973206e6f7420612076616044820152683634b21037bbb732b960b91b60648201526084016106d8565b506001600160a01b031660009081526005602052604090205490565b6060600080516020613316833981519152610f5f816117ac565b610f676118f5565b6000845111610fb85760405162461bcd60e51b815260206004820152601960248201527f4e6f206d6574616461746120555249732070726f76696465640000000000000060448201526064016106d8565b82518451146110095760405162461bcd60e51b815260206004820152601860248201527f4d69736d617463686564206172726179206c656e67746873000000000000000060448201526064016106d8565b60328451111561105b5760405162461bcd60e51b815260206004820152601860248201527f42617463682073697a652065786365656473206c696d6974000000000000000060448201526064016106d8565b6000845167ffffffffffffffff81111561107757611077612ae3565b6040519080825280602002602001820160405280156110a0578160200160208202803683370190505b50905060005b855181101561111b576110ec338783815181106110c5576110c56130f3565b60200260200101518784815181106110df576110df6130f3565b6020026020010151611ad3565b8282815181106110fe576110fe6130f3565b60209081029190910101528061111381613109565b9150506110a6565b50949350505050565b7f65d7a28e3265b37a6474929f336521b332c1681b933f6cb9f3376673440d862a61114e816117ac565b610940611b42565b60009182526009602090815260408084206001600160a01b0393909316845291905290205460ff1690565b6060600380546105b990612fe6565b61090a338383611b7f565b60007f9f2df0fed2c77648de5860a4cc508cd0818c85b8b8a1ab4ceeef8d981c8956a66111c7816117ac565b6111cf6118f5565b6111da858585611ad3565b95945050505050565b6111ed33836115ca565b6112095760405162461bcd60e51b81526004016106d890613021565b610aa884848484611c4e565b600060606000806112258561193d565b6112415760405162461bcd60e51b81526004016106d8906130c5565b600080611250876127106107bf565b90925090508061125f88610e5f565b61126889611279565b909990985092965094509092505050565b60606105a482611c81565b600060008051602061331683398151915261129e816117ac565b6112a66118f5565b6112b1338585611ad3565b949350505050565b6000828152600960205260409020600101546112d4816117ac565b610779838361183c565b60608060606000600d6000866001600160a01b03166001600160a01b0316815260200190815260200160002060405180606001604052908160008201805461132590612fe6565b80601f016020809104026020016040519081016040528092919081815260200182805461135190612fe6565b801561139e5780601f106113735761010080835404028352916020019161139e565b820191906000526020600020905b81548152906001019060200180831161138157829003601f168201915b505050505081526020016001820180546113b790612fe6565b80601f01602080910402602001604051908101604052809291908181526020018280546113e390612fe6565b80156114305780601f1061140557610100808354040283529160200191611430565b820191906000526020600020905b81548152906001019060200180831161141357829003601f168201915b5050505050815260200160028201805461144990612fe6565b80601f016020809104026020016040519081016040528092919081815260200182805461147590612fe6565b80156114c25780601f10611497576101008083540402835291602001916114c2565b820191906000526020600020905b8154815290600101906020018083116114a557829003601f168201915b5050509190925250508151602083015160409093015190989297509550909350505050565b60006001600160e01b03198216637965db0b60e01b14806105a457506105a482611d8a565b6115158161193d565b6109405760405162461bcd60e51b8152602060048201526018602482015277115490cdcc8c4e881a5b9d985b1a59081d1bdad95b88125160421b60448201526064016106d8565b600081815260066020526040902080546001600160a01b0319166001600160a01b038416908117909155819061159182610e5f565b6001600160a01b03167f8c5be1e5ebec7d5bd14f71427d1e84f3dd0314c0f7b2291e5b200ac8c7c3b92560405160405180910390a45050565b6000806115d683610e5f565b9050806001600160a01b0316846001600160a01b0316148061161d57506001600160a01b0380821660009081526007602090815260408083209388168352929052205460ff165b806112b15750836001600160a01b03166116368461063c565b6001600160a01b031614949350505050565b826001600160a01b031661165b82610e5f565b6001600160a01b0316146116815760405162461bcd60e51b81526004016106d890613124565b6001600160a01b0382166116e35760405162461bcd60e51b8152602060048201526024808201527f4552433732313a207472616e7366657220746f20746865207a65726f206164646044820152637265737360e01b60648201526084016106d8565b826001600160a01b03166116f682610e5f565b6001600160a01b03161461171c5760405162461bcd60e51b81526004016106d890613124565b600081815260066020908152604080832080546001600160a01b03199081169091556001600160a01b0387811680865260058552838620805460001901905590871680865283862080546001019055868652600490945282852080549092168417909155905184937fddf252ad1be2c89b69c2b068fc378daa952ba7f163c4a11628f55a4df523b3ef91a4505050565b6109408133611d95565b6117c08282611156565b61090a5760008281526009602090815260408083206001600160a01b03851684529091529020805460ff191660011790556117f83390565b6001600160a01b0316816001600160a01b0316837f2f8788117e7eff1d82e926ec794901d17c78024a50270940304540a733656f0d60405160405180910390a45050565b6118468282611156565b1561090a5760008281526009602090815260408083206001600160a01b0385168085529252808320805460ff1916905551339285917ff6391f5c32d9c69d2a47ea670b442974b53935d1edc7fd64eb21e047a839171b9190a45050565b6118ab611dee565b600a805460ff191690557f5db9ee0a495bf2e6ff9c91a7834c1ba4fdd244a5e8aa4e537bd38aeae4b073aa335b6040516001600160a01b03909116815260200160405180910390a1565b600a5460ff161561193b5760405162461bcd60e51b815260206004820152601060248201526f14185d5cd8589b194e881c185d5cd95960821b60448201526064016106d8565b565b6000908152600460205260409020546001600160a01b0316151590565b61094081611e37565b6127106001600160601b03821611156119d15760405162461bcd60e51b815260206004820152602a60248201527f455243323938313a20726f79616c7479206665652077696c6c206578636565646044820152692073616c65507269636560b01b60648201526084016106d8565b6001600160a01b038216611a275760405162461bcd60e51b815260206004820152601b60248201527f455243323938313a20496e76616c696420706172616d6574657273000000000060448201526064016106d8565b6040805180820182526001600160a01b0393841681526001600160601b0392831660208083019182526000968752600190529190942093519051909116600160a01b029116179055565b600080829050600781511015611a8a5750600092915050565b6000611a9582613169565b90506001600160c81b031981166668747470733a2f60c81b14806112b157506001600160c81b0319811666697066733a2f2f60c81b14949350505050565b6000611adf8383611e51565b6000611aea85611fbb565b9050611af881858786611fe2565b80856001600160a01b03167fdf92894dc4675a7333caa5903b69cf5d8e8ec0d3f361c88207b6688e525703bb86604051611b329190612994565b60405180910390a3949350505050565b611b4a6118f5565b600a805460ff191660011790557f62e78cea01bee320cd4e420270b5ea74000d11b0c9f74754ebdbfc544b05a2586118d83390565b816001600160a01b0316836001600160a01b03161415611be15760405162461bcd60e51b815260206004820152601960248201527f4552433732313a20617070726f766520746f2063616c6c65720000000000000060448201526064016106d8565b6001600160a01b03838116600081815260076020908152604080832094871680845294825291829020805460ff191686151590811790915591519182527f17307eab39ab6107e8899845ad3d59bd9653f200f220920489ca2b5937696c31910160405180910390a3505050565b611c59848484611648565b611c6584848484611ff7565b610aa85760405162461bcd60e51b81526004016106d8906131a0565b6060611c8c8261150c565b60008281526008602052604081208054611ca590612fe6565b80601f0160208091040260200160405190810160405280929190818152602001828054611cd190612fe6565b8015611d1e5780601f10611cf357610100808354040283529160200191611d1e565b820191906000526020600020905b815481529060010190602001808311611d0157829003601f168201915b505050505090506000611d3c60408051602081019091526000815290565b9050805160001415611d4f575092915050565b815115611d81578082604051602001611d699291906131f2565b60405160208183030381529060405292505050919050565b6112b184612104565b60006105a482612178565b611d9f8282611156565b61090a57611dac8161219d565b611db78360206121af565b604051602001611dc8929190613221565b60408051601f198184030181529082905262461bcd60e51b82526106d891600401612994565b600a5460ff1661193b5760405162461bcd60e51b815260206004820152601460248201527314185d5cd8589b194e881b9bdd081c185d5cd95960621b60448201526064016106d8565b611e408161234b565b600090815260016020526040812055565b6000825111611ea25760405162461bcd60e51b815260206004820152601960248201527f546f6b656e205552492063616e6e6f7420626520656d7074790000000000000060448201526064016106d8565b611eab82611a71565b611f1f576040805162461bcd60e51b81526020600482015260248101919091527f496e76616c6964206d657461646174612055524920666f726d61743a206d757360448201527f7420737461727420776974682068747470733a2f2f206f7220697066733a2f2f60648201526084016106d8565b60c882511115611f665760405162461bcd60e51b8152602060048201526012602482015271546f6b656e2055524920746f6f206c6f6e6760701b60448201526064016106d8565b612710816001600160601b0316111561090a5760405162461bcd60e51b8152602060048201526017602482015276526f79616c7479206d757374206265203c3d203130302560481b60448201526064016106d8565b6000611fcb600b80546001019055565b6000611fd6600b5490565b90506105a4838261238b565b611fec84846124f8565b610aa8848383611963565b60006001600160a01b0384163b156120f957604051630a85bd0160e11b81526001600160a01b0385169063150b7a029061203b903390899088908890600401613296565b602060405180830381600087803b15801561205557600080fd5b505af1925050508015612085575060408051601f3d908101601f19168201909252612082918101906132c9565b60015b6120df573d8080156120b3576040519150601f19603f3d011682016040523d82523d6000602084013e6120b8565b606091505b5080516120d75760405162461bcd60e51b81526004016106d8906131a0565b805181602001fd5b6001600160e01b031916630a85bd0160e11b1490506112b1565b506001949350505050565b606061210f8261150c565b600061212660408051602081019091526000815290565b905060008151116121465760405180602001604052806000815250612171565b80612150846125bb565b6040516020016121619291906131f2565b6040516020818303038152906040525b9392505050565b60006001600160e01b03198216632483248360e11b14806105a457506105a482612658565b60606105a46001600160a01b03831660145b606060006121be836002613084565b6121c99060026132e6565b67ffffffffffffffff8111156121e1576121e1612ae3565b6040519080825280601f01601f19166020018201604052801561220b576020820181803683370190505b509050600360fc1b81600081518110612226576122266130f3565b60200101906001600160f81b031916908160001a905350600f60fb1b81600181518110612255576122556130f3565b60200101906001600160f81b031916908160001a9053506000612279846002613084565b6122849060016132e6565b90505b60018111156122fc576f181899199a1a9b1b9c1cb0b131b232b360811b85600f16601081106122b8576122b86130f3565b1a60f81b8282815181106122ce576122ce6130f3565b60200101906001600160f81b031916908160001a90535060049490941c936122f5816132fe565b9050612287565b5083156121715760405162461bcd60e51b815260206004820181905260248201527f537472696e67733a20686578206c656e67746820696e73756666696369656e7460448201526064016106d8565b61235481612698565b6000818152600860205260409020805461236d90612fe6565b159050610940576000818152600860205260408120610940916128be565b6001600160a01b0382166123e15760405162461bcd60e51b815260206004820181905260248201527f4552433732313a206d696e7420746f20746865207a65726f206164647265737360448201526064016106d8565b6123ea8161193d565b156124375760405162461bcd60e51b815260206004820152601c60248201527f4552433732313a20746f6b656e20616c7265616479206d696e7465640000000060448201526064016106d8565b6124408161193d565b1561248d5760405162461bcd60e51b815260206004820152601c60248201527f4552433732313a20746f6b656e20616c7265616479206d696e7465640000000060448201526064016106d8565b6001600160a01b038216600081815260056020908152604080832080546001019055848352600490915280822080546001600160a01b0319168417905551839291907fddf252ad1be2c89b69c2b068fc378daa952ba7f163c4a11628f55a4df523b3ef908290a45050565b6125018261193d565b6125645760405162461bcd60e51b815260206004820152602e60248201527f45524337323155524953746f726167653a2055524920736574206f66206e6f6e60448201526d32bc34b9ba32b73a103a37b5b2b760911b60648201526084016106d8565b600082815260086020908152604090912082516125839284019061283a565b506040518281527ff8e1a15aba9398e019f0b49df1a4fde98ee17ae345cb5f6b5e2c27f5033e8ce79060200160405180910390a15050565b606060006125c88361272d565b600101905060008167ffffffffffffffff8111156125e8576125e8612ae3565b6040519080825280601f01601f191660200182016040528015612612576020820181803683370190505b5090508181016020015b600019016f181899199a1a9b1b9c1cb0b131b232b360811b600a86061a8153600a850494508461264b57612650565b61261c565b509392505050565b60006001600160e01b031982166380ac58cd60e01b148061268957506001600160e01b03198216635b5e139f60e01b145b806105a457506105a482612805565b60006126a382610e5f565b90506126ae82610e5f565b600083815260066020908152604080832080546001600160a01b03199081169091556001600160a01b0385168085526005845282852080546000190190558785526004909352818420805490911690555192935084927fddf252ad1be2c89b69c2b068fc378daa952ba7f163c4a11628f55a4df523b3ef908390a45050565b60008072184f03e93ff9f4daa797ed6e38ed64bf6a1f0160401b831061276c5772184f03e93ff9f4daa797ed6e38ed64bf6a1f0160401b830492506040015b6d04ee2d6d415b85acef81000000008310612798576d04ee2d6d415b85acef8100000000830492506020015b662386f26fc1000083106127b657662386f26fc10000830492506010015b6305f5e10083106127ce576305f5e100830492506008015b61271083106127e257612710830492506004015b606483106127f4576064830492506002015b600a83106105a45760010192915050565b60006001600160e01b0319821663152a902d60e11b14806105a457506301ffc9a760e01b6001600160e01b03198316146105a4565b82805461284690612fe6565b90600052602060002090601f01602090048101928261286857600085556128ae565b82601f1061288157805160ff19168380011785556128ae565b828001600101855582156128ae579182015b828111156128ae578251825591602001919060010190612893565b506128ba9291506128f4565b5090565b5080546128ca90612fe6565b6000825580601f106128da575050565b601f01602090049060005260206000209081019061094091905b5b808211156128ba57600081556001016128f5565b6001600160e01b03198116811461094057600080fd5b60006020828403121561293157600080fd5b813561217181612909565b60005b8381101561295757818101518382015260200161293f565b83811115610aa85750506000910152565b6000815180845261298081602086016020860161293c565b601f01601f19169290920160200192915050565b6020815260006121716020830184612968565b6000602082840312156129b957600080fd5b5035919050565b80356001600160a01b03811681146129d757600080fd5b919050565b600080604083850312156129ef57600080fd5b6129f8836129c0565b946020939093013593505050565b600080600060608486031215612a1b57600080fd5b612a24846129c0565b9250612a32602085016129c0565b9150604084013590509250925092565b60008060408385031215612a5557600080fd5b50508035926020909101359150565b60008060408385031215612a7757600080fd5b82359150612a87602084016129c0565b90509250929050565b80356001600160601b03811681146129d757600080fd5b600080600060608486031215612abc57600080fd5b83359250612acc602085016129c0565b9150612ada60408501612a90565b90509250925092565b634e487b7160e01b600052604160045260246000fd5b604051601f8201601f1916810167ffffffffffffffff81118282101715612b2257612b22612ae3565b604052919050565b600067ffffffffffffffff831115612b4457612b44612ae3565b612b57601f8401601f1916602001612af9565b9050828152838383011115612b6b57600080fd5b828260208301376000602084830101529392505050565b600082601f830112612b9357600080fd5b61217183833560208501612b2a565b600080600060608486031215612bb757600080fd5b833567ffffffffffffffff80821115612bcf57600080fd5b612bdb87838801612b82565b94506020860135915080821115612bf157600080fd5b612bfd87838801612b82565b93506040860135915080821115612c1357600080fd5b50612c2086828701612b82565b9150509250925092565b600060208284031215612c3c57600080fd5b612171826129c0565b6020808252825182820181905260009190848201906040850190845b81811015612c7d57835183529284019291840191600101612c61565b50909695505050505050565b600067ffffffffffffffff821115612ca357612ca3612ae3565b5060051b60200190565b600082601f830112612cbe57600080fd5b81356020612cd3612cce83612c89565b612af9565b82815260059290921b84018101918181019086841115612cf257600080fd5b8286015b84811015612d1457612d0781612a90565b8352918301918301612cf6565b509695505050505050565b60008060408385031215612d3257600080fd5b823567ffffffffffffffff80821115612d4a57600080fd5b818501915085601f830112612d5e57600080fd5b81356020612d6e612cce83612c89565b82815260059290921b84018101918181019089841115612d8d57600080fd5b8286015b84811015612dc557803586811115612da95760008081fd5b612db78c86838b0101612b82565b845250918301918301612d91565b5096505086013592505080821115612ddc57600080fd5b50612de985828601612cad565b9150509250929050565b60008060408385031215612e0657600080fd5b612e0f836129c0565b915060208301358015158114612e2457600080fd5b809150509250929050565b600080600060608486031215612e4457600080fd5b612e4d846129c0565b9250602084013567ffffffffffffffff811115612e6957600080fd5b612e7586828701612b82565b925050612ada60408501612a90565b60008060008060808587031215612e9a57600080fd5b612ea3856129c0565b9350612eb1602086016129c0565b925060408501359150606085013567ffffffffffffffff811115612ed457600080fd5b8501601f81018713612ee557600080fd5b612ef487823560208401612b2a565b91505092959194509250565b600060018060a01b03808716835260806020840152612f226080840187612968565b94166040830152506060015292915050565b60008060408385031215612f4757600080fd5b823567ffffffffffffffff811115612f5e57600080fd5b612f6a85828601612b82565b925050612a8760208401612a90565b60008060408385031215612f8c57600080fd5b612f95836129c0565b9150612a87602084016129c0565b606081526000612fb66060830186612968565b8281036020840152612fc88186612968565b90508281036040840152612fdc8185612968565b9695505050505050565b600181811c90821680612ffa57607f821691505b6020821081141561301b57634e487b7160e01b600052602260045260246000fd5b50919050565b6020808252602d908201527f4552433732313a2063616c6c6572206973206e6f7420746f6b656e206f776e6560408201526c1c881bdc88185c1c1c9bdd9959609a1b606082015260800190565b634e487b7160e01b600052601160045260246000fd5b600081600019048311821515161561309e5761309e61306e565b500290565b6000826130c057634e487b7160e01b600052601260045260246000fd5b500490565b602080825260149082015273151bdad95b88191bd95cc81b9bdd08195e1a5cdd60621b604082015260600190565b634e487b7160e01b600052603260045260246000fd5b600060001982141561311d5761311d61306e565b5060010190565b60208082526025908201527f4552433732313a207472616e736665722066726f6d20696e636f72726563742060408201526437bbb732b960d91b606082015260800190565b805160208201516001600160c81b031980821692919060078310156131985780818460070360031b1b83161693505b505050919050565b60208082526032908201527f4552433732313a207472616e7366657220746f206e6f6e20455243373231526560408201527131b2b4bb32b91034b6b83632b6b2b73a32b960711b606082015260800190565b6000835161320481846020880161293c565b83519083019061321881836020880161293c565b01949350505050565b7f416363657373436f6e74726f6c3a206163636f756e742000000000000000000081526000835161325981601785016020880161293c565b7001034b99036b4b9b9b4b733903937b6329607d1b601791840191820152835161328a81602884016020880161293c565b01602801949350505050565b6001600160a01b0385811682528416602082015260408101839052608060608201819052600090612fdc90830184612968565b6000602082840312156132db57600080fd5b815161217181612909565b600082198211156132f9576132f961306e565b500190565b60008161330d5761330d61306e565b50600019019056fe877a78dc988c0ec5f58453b44888a55eb39755c3d5ed8d8ea990912aa3ef29c6a264697066735822122006fe9b20adbe8ef552d6c1e3cabe5b1a540c6f8a154879f47cdaf6f64bb15df764736f6c63430008090033",
  "linkReferences": {},
  "deployedLinkReferences": {}
}