{
  "_format": "hh-sol-artifact-1",
  "contractName": "EscrowLazyMinting",
  "sourceName": "contracts/EscrowLazyMinting.sol",
  "abi": [
    {
      "inputs": [
        {
          "internalType": "address",
          "name": "_storageContract",
          "type": "address"
        }
      ],
      "stateMutability": "nonpayable",
      "type": "constructor"
    },
    {
      "anonymous": false,
      "inputs": [
        {
          "indexed": true,
          "internalType": "address",
          "name": "nftContract",
          "type": "address"
        },
        {
          "indexed": true,
          "internalType": "uint256",
          "name": "tokenId",
          "type": "uint256"
        },
        {
          "indexed": false,
          "internalType": "uint8",
          "name": "actionType",
          "type": "uint8"
        },
        {
          "indexed": true,
          "internalType": "address",
          "name": "user",
          "type": "address"
        },
        {
          "indexed": false,
          "internalType": "uint256",
          "name": "value",
          "type": "uint256"
        }
      ],
      "name": "Action",
      "type": "event"
    },
    {
      "inputs": [
        {
          "internalType": "address",
          "name": "nftContract",
          "type": "address"
        },
        {
          "internalType": "address",
          "name": "to",
          "type": "address"
        },
        {
          "components": [
            {
              "internalType": "uint256",
              "name": "tokenId",
              "type": "uint256"
            },
            {
              "internalType": "address",
              "name": "creator",
              "type": "address"
            },
            {
              "internalType": "uint256",
              "name": "price",
              "type": "uint256"
            },
            {
              "internalType": "string",
              "name": "uri",
              "type": "string"
            },
            {
              "internalType": "uint96",
              "name": "royaltyBps",
              "type": "uint96"
            },
            {
              "internalType": "bytes",
              "name": "signature",
              "type": "bytes"
            }
          ],
          "internalType": "struct EscrowStorage.LazyMintVoucher",
          "name": "voucher",
          "type": "tuple"
        }
      ],
      "name": "mintFor",
      "outputs": [],
      "stateMutability": "nonpayable",
      "type": "function"
    },
    {
      "inputs": [
        {
          "internalType": "address",
          "name": "nftContract",
          "type": "address"
        },
        {
          "components": [
            {
              "internalType": "uint256",
              "name": "tokenId",
              "type": "uint256"
            },
            {
              "internalType": "address",
              "name": "creator",
              "type": "address"
            },
            {
              "internalType": "uint256",
              "name": "price",
              "type": "uint256"
            },
            {
              "internalType": "string",
              "name": "uri",
              "type": "string"
            },
            {
              "internalType": "uint96",
              "name": "royaltyBps",
              "type": "uint96"
            },
            {
              "internalType": "bytes",
              "name": "signature",
              "type": "bytes"
            }
          ],
          "internalType": "struct EscrowStorage.LazyMintVoucher",
          "name": "voucher",
          "type": "tuple"
        }
      ],
      "name": "redeemLazyMint",
      "outputs": [],
      "stateMutability": "payable",
      "type": "function"
    },
    {
      "inputs": [],
      "name": "storageContract",
      "outputs": [
        {
          "internalType": "contract EscrowStorage",
          "name": "",
          "type": "address"
        }
      ],
      "stateMutability": "view",
      "type": "function"
    },
    {
      "inputs": [
        {
          "components": [
            {
              "internalType": "uint256",
              "name": "tokenId",
              "type": "uint256"
            },
            {
              "internalType": "address",
              "name": "creator",
              "type": "address"
            },
            {
              "internalType": "uint256",
              "name": "price",
              "type": "uint256"
            },
            {
              "internalType": "string",
              "name": "uri",
              "type": "string"
            },
            {
              "internalType": "uint96",
              "name": "royaltyBps",
              "type": "uint96"
            },
            {
              "internalType": "bytes",
              "name": "signature",
              "type": "bytes"
            }
          ],
          "internalType": "struct EscrowStorage.LazyMintVoucher",
          "name": "voucher",
          "type": "tuple"
        },
        {
          "internalType": "bytes",
          "name": "signature",
          "type": "bytes"
        }
      ],
      "name": "verify",
      "outputs": [
        {
          "internalType": "bool",
          "name": "",
          "type": "bool"
        }
      ],
      "stateMutability": "view",
      "type": "function"
    }
  ],
  "bytecode": "0x608060405234801561001057600080fd5b506040516112d93803806112d983398101604081905261002f91610054565b600080546001600160a01b0319166001600160a01b0392909216919091179055610084565b60006020828403121561006657600080fd5b81516001600160a01b038116811461007d57600080fd5b9392505050565b611246806100936000396000f3fe60806040526004361061003f5760003560e01c806311ce02671461004457806321a5554414610081578063a4ea038114610096578063de8a2d76146100b6575b600080fd5b34801561005057600080fd5b50600054610064906001600160a01b031681565b6040516001600160a01b0390911681526020015b60405180910390f35b61009461008f366004610c9e565b6100e6565b005b3480156100a257600080fd5b506100946100b1366004610cee565b610234565b3480156100c257600080fd5b506100d66100d1366004610d50565b61042c565b6040519015158152602001610078565b600054600160a01b900460ff16156101365760405162461bcd60e51b815260206004820152600e60248201526d1499595b9d1c985b9d0818d85b1b60921b60448201526064015b60405180910390fd5b6000805460ff60a01b1916600160a01b17905560408101353410156101945760405162461bcd60e51b8152602060048201526014602482015273125b9cdd59999a58da595b9d081c185e5b595b9d60621b604482015260640161012d565b61019d816104a5565b6101a8828235610565565b336101c8838335604085018035906101c39060208801610de7565b61061d565b6101d3838284610708565b60408051600a81528184013560208201526001600160a01b0380841692853592918716917f32eff1bfb84317b72fc67258659433fb15f2547105f2dc1af90191b532c2baa8910160405180910390a450506000805460ff60a01b1916905550565b3330146102835760405162461bcd60e51b815260206004820152601960248201527f4f6e6c792063616c6c61626c6520627920636f6e747261637400000000000000604482015260640161012d565b6001600160a01b03831663ae7f3c0f836102a06060850185610e0b565b6102b060a0870160808801610e6e565b6040518563ffffffff1660e01b81526004016102cf9493929190610eb2565b602060405180830381600087803b1580156102e957600080fd5b505af1925050508015610319575060408051601f3d908101601f1916820190925261031691810190610ef1565b60015b6103c657610325610f0a565b806308c379a0141561037c575061033a610f61565b80610345575061037e565b806040516020016103569190611017565b60408051601f198184030181529082905262461bcd60e51b825261012d9160040161104f565b505b60405162461bcd60e51b815260206004820152601d60248201527f4d696e74696e67206661696c65643a20556e6b6e6f776e206572726f72000000604482015260640161012d565b813581146104255760405162461bcd60e51b815260206004820152602660248201527f4d696e74656420746f6b656e20494420646f6573206e6f74206d61746368207660448201526537bab1b432b960d11b606482015260840161012d565b505b505050565b60008061043885610797565b9050600061047c8286868080601f01602080910402602001604051908101604052809392919081815260200183838082843760009201919091525061096092505050565b905061048e6040870160208801610de7565b6001600160a01b0391821691161495945050505050565b60006104b082610797565b905060006104ff826104c560a0860186610e0b565b8080601f01602080910402602001604051908101604052809392919081815260200183838082843760009201919091525061096092505050565b90506105116040840160208501610de7565b6001600160a01b0316816001600160a01b0316146104275760405162461bcd60e51b8152602060048201526011602482015270496e76616c6964207369676e617475726560781b604482015260640161012d565b6040516331a9108f60e11b8152600481018290526001600160a01b03831690636352211e9060240160206040518083038186803b1580156105a557600080fd5b505afa9250505080156105d5575060408051601f3d908101601f191682019092526105d291810190611082565b60015b6105dd575050565b5060405162461bcd60e51b8152602060048201526014602482015273151bdad95b88185b1c9958591e481b5a5b9d195960621b604482015260640161012d565b60008061062b868686610984565b9092509050600061063c828661109f565b905081156106c8576040516001600160a01b0384169083156108fc029084906000818181858888f1935050505015801561067a573d6000803e3d6000fd5b506040805160028152602081018490526001600160a01b03808616928992918b16917f32eff1bfb84317b72fc67258659433fb15f2547105f2dc1af90191b532c2baa8910160405180910390a45b6040516001600160a01b0385169082156108fc029083906000818181858888f193505050501580156106fe573d6000803e3d6000fd5b5050505050505050565b60405163a4ea038160e01b8152309063a4ea03819061072f9086908690869060040161110a565b600060405180830381600087803b15801561074957600080fd5b505af192505050801561075a575060015b6104275760405162461bcd60e51b815260206004820152600e60248201526d135a5b9d1a5b99c819985a5b195960921b604482015260640161012d565b604080518082018252601081526f446f4172744e4654506c6174666f726d60801b6020918201528151808301835260018152603160f81b9082015281517f8b73c3c69bb8fe3d512ecc4cf759cc79239f7b179b0ffacaa9a75d522b39400f818301527f3f85bd22ee297b8b119d18dfee886f14a2e2252d08ceaec440609d4348df7651818401527fc89efdaa54c0f20c7adf612882df0950f5a951637e0307cdcb4c672f298b8bc660608201524660808201523060a0808301919091528351808303909101815260c09091018352805190820120600092909183917f04f498bcd7873952fe0da55c96a85e284a2e4a198a292ac42a9b2948da3863d7918635916108a691908801908801610de7565b60408701356108b86060890189610e0b565b6040516108c69291906111bc565b6040519081900390206108df60a08a0160808b01610e6e565b6040805160208101979097528601949094526001600160a01b039092166060850152608084015260a08301526001600160601b031660c082015260e001604051602081830303815290604052805190602001209050610958828260405161190160f01b8152600281019290925260228201526042902090565b949350505050565b600080600061096f8585610a16565b9150915061097c81610a5c565b509392505050565b60405163152a902d60e11b8152600481018390526024810182905260009081906001600160a01b03861690632a55205a90604401604080518083038186803b1580156109cf57600080fd5b505afa9250505080156109ff575060408051601f3d908101601f191682019092526109fc918101906111cc565b60015b610a0857610a0e565b90925090505b935093915050565b600080825160411415610a4d5760208301516040840151606085015160001a610a4187828585610bad565b94509450505050610a55565b506000905060025b9250929050565b6000816004811115610a7057610a706111fa565b1415610a795750565b6001816004811115610a8d57610a8d6111fa565b1415610adb5760405162461bcd60e51b815260206004820152601860248201527f45434453413a20696e76616c6964207369676e61747572650000000000000000604482015260640161012d565b6002816004811115610aef57610aef6111fa565b1415610b3d5760405162461bcd60e51b815260206004820152601f60248201527f45434453413a20696e76616c6964207369676e6174757265206c656e67746800604482015260640161012d565b6003816004811115610b5157610b516111fa565b1415610baa5760405162461bcd60e51b815260206004820152602260248201527f45434453413a20696e76616c6964207369676e6174757265202773272076616c604482015261756560f01b606482015260840161012d565b50565b6000807f7fffffffffffffffffffffffffffffff5d576e7357a4501ddfe92f46681b20a0831115610be45750600090506003610c68565b6040805160008082526020820180845289905260ff881692820192909252606081018690526080810185905260019060a0016020604051602081039080840390855afa158015610c38573d6000803e3d6000fd5b5050604051601f1901519150506001600160a01b038116610c6157600060019250925050610c68565b9150600090505b94509492505050565b6001600160a01b0381168114610baa57600080fd5b600060c08284031215610c9857600080fd5b50919050565b60008060408385031215610cb157600080fd5b8235610cbc81610c71565b9150602083013567ffffffffffffffff811115610cd857600080fd5b610ce485828601610c86565b9150509250929050565b600080600060608486031215610d0357600080fd5b8335610d0e81610c71565b92506020840135610d1e81610c71565b9150604084013567ffffffffffffffff811115610d3a57600080fd5b610d4686828701610c86565b9150509250925092565b600080600060408486031215610d6557600080fd5b833567ffffffffffffffff80821115610d7d57600080fd5b610d8987838801610c86565b94506020860135915080821115610d9f57600080fd5b818601915086601f830112610db357600080fd5b813581811115610dc257600080fd5b876020828501011115610dd457600080fd5b6020830194508093505050509250925092565b600060208284031215610df957600080fd5b8135610e0481610c71565b9392505050565b6000808335601e19843603018112610e2257600080fd5b83018035915067ffffffffffffffff821115610e3d57600080fd5b602001915036819003821315610a5557600080fd5b80356001600160601b0381168114610e6957600080fd5b919050565b600060208284031215610e8057600080fd5b610e0482610e52565b81835281816020850137506000828201602090810191909152601f909101601f19169091010190565b6001600160a01b0385168152606060208201819052600090610ed79083018587610e89565b90506001600160601b038316604083015295945050505050565b600060208284031215610f0357600080fd5b5051919050565b600060033d1115610f235760046000803e5060005160e01c5b90565b601f8201601f1916810167ffffffffffffffff81118282101715610f5a57634e487b7160e01b600052604160045260246000fd5b6040525050565b600060443d1015610f6f5790565b6040516003193d81016004833e81513d67ffffffffffffffff8160248401118184111715610f9f57505050505090565b8285019150815181811115610fb75750505050505090565b843d8701016020828501011115610fd15750505050505090565b610fe060208286010187610f26565b509095945050505050565b60005b83811015611006578181015183820152602001610fee565b838111156104255750506000910152565b6f026b4b73a34b733903330b4b632b21d160851b815260008251611042816010850160208701610feb565b9190910160100192915050565b602081526000825180602084015261106e816040850160208701610feb565b601f01601f19169190910160400192915050565b60006020828403121561109457600080fd5b8151610e0481610c71565b6000828210156110bf57634e487b7160e01b600052601160045260246000fd5b500390565b6000808335601e198436030181126110db57600080fd5b830160208101925035905067ffffffffffffffff8111156110fb57600080fd5b803603831315610a5557600080fd5b600060018060a01b03808616835280851660208401526060604084015283356060840152602084013561113c81610c71565b166080830152604083013560a083015261115960608401846110c4565b60c08085015261116e61012085018284610e89565b9150506001600160601b0361118560808601610e52565b1660e084015261119860a08501856110c4565b848303605f19016101008601526111b0838284610e89565b98975050505050505050565b8183823760009101908152919050565b600080604083850312156111df57600080fd5b82516111ea81610c71565b6020939093015192949293505050565b634e487b7160e01b600052602160045260246000fdfea264697066735822122060abcdad73c93f2fba414f9d2f0d397386f689b3e649d9b1ed14b6dd03c8ac3f64736f6c63430008090033",
  "linkReferences": {},
  "deployedLinkReferences": {}
}