{
  "_format": "hh-sol-artifact-1",
  "contractName": "EscrowStorage",
  "sourceName": "contracts/EscrowStorage.sol",
  "abi": [
    {
      "inputs": [],
      "stateMutability": "nonpayable",
      "type": "constructor"
    },
    {
      "anonymous": false,
      "inputs": [
        {
          "indexed": true,
          "internalType": "address",
          "name": "nftContract",
          "type": "address"
        },
        {
          "indexed": true,
          "internalType": "uint256",
          "name": "tokenId",
          "type": "uint256"
        }
      ],
      "name": "AuctionChanged",
      "type": "event"
    },
    {
      "anonymous": false,
      "inputs": [
        {
          "indexed": true,
          "internalType": "address",
          "name": "nftContract",
          "type": "address"
        },
        {
          "indexed": true,
          "internalType": "uint256",
          "name": "tokenId",
          "type": "uint256"
        }
      ],
      "name": "BidChanged",
      "type": "event"
    },
    {
      "anonymous": false,
      "inputs": [
        {
          "indexed": true,
          "internalType": "address",
          "name": "nftContract",
          "type": "address"
        },
        {
          "indexed": true,
          "internalType": "uint256",
          "name": "tokenId",
          "type": "uint256"
        }
      ],
      "name": "ListingChanged",
      "type": "event"
    },
    {
      "anonymous": false,
      "inputs": [
        {
          "indexed": true,
          "internalType": "bytes32",
          "name": "role",
          "type": "bytes32"
        },
        {
          "indexed": true,
          "internalType": "bytes32",
          "name": "previousAdminRole",
          "type": "bytes32"
        },
        {
          "indexed": true,
          "internalType": "bytes32",
          "name": "newAdminRole",
          "type": "bytes32"
        }
      ],
      "name": "RoleAdminChanged",
      "type": "event"
    },
    {
      "anonymous": false,
      "inputs": [
        {
          "indexed": true,
          "internalType": "bytes32",
          "name": "role",
          "type": "bytes32"
        },
        {
          "indexed": true,
          "internalType": "address",
          "name": "account",
          "type": "address"
        },
        {
          "indexed": true,
          "internalType": "address",
          "name": "sender",
          "type": "address"
        }
      ],
      "name": "RoleGranted",
      "type": "event"
    },
    {
      "anonymous": false,
      "inputs": [
        {
          "indexed": true,
          "internalType": "bytes32",
          "name": "role",
          "type": "bytes32"
        },
        {
          "indexed": true,
          "internalType": "address",
          "name": "account",
          "type": "address"
        },
        {
          "indexed": true,
          "internalType": "address",
          "name": "sender",
          "type": "address"
        }
      ],
      "name": "RoleRevoked",
      "type": "event"
    },
    {
      "inputs": [],
      "name": "ADMIN_ROLE",
      "outputs": [
        {
          "internalType": "bytes32",
          "name": "",
          "type": "bytes32"
        }
      ],
      "stateMutability": "view",
      "type": "function"
    },
    {
      "inputs": [],
      "name": "ANTI_SNIPING_EXTENSION",
      "outputs": [
        {
          "internalType": "uint256",
          "name": "",
          "type": "uint256"
        }
      ],
      "stateMutability": "view",
      "type": "function"
    },
    {
      "inputs": [],
      "name": "ANTI_SNIPING_WINDOW",
      "outputs": [
        {
          "internalType": "uint256",
          "name": "",
          "type": "uint256"
        }
      ],
      "stateMutability": "view",
      "type": "function"
    },
    {
      "inputs": [],
      "name": "DEFAULT_ADMIN_ROLE",
      "outputs": [
        {
          "internalType": "bytes32",
          "name": "",
          "type": "bytes32"
        }
      ],
      "stateMutability": "view",
      "type": "function"
    },
    {
      "inputs": [],
      "name": "DEFAULT_VIEWING_PERIOD",
      "outputs": [
        {
          "internalType": "uint256",
          "name": "",
          "type": "uint256"
        }
      ],
      "stateMutability": "view",
      "type": "function"
    },
    {
      "inputs": [
        {
          "internalType": "address",
          "name": "",
          "type": "address"
        },
        {
          "internalType": "uint256",
          "name": "",
          "type": "uint256"
        }
      ],
      "name": "auctions",
      "outputs": [
        {
          "internalType": "uint256",
          "name": "endTime",
          "type": "uint256"
        },
        {
          "internalType": "uint256",
          "name": "minBid",
          "type": "uint256"
        },
        {
          "internalType": "uint256",
          "name": "minIncrement",
          "type": "uint256"
        },
        {
          "internalType": "address",
          "name": "highestBidder",
          "type": "address"
        },
        {
          "internalType": "uint256",
          "name": "highestBid",
          "type": "uint256"
        },
        {
          "internalType": "bool",
          "name": "isActive",
          "type": "bool"
        }
      ],
      "stateMutability": "view",
      "type": "function"
    },
    {
      "inputs": [
        {
          "internalType": "address",
          "name": "",
          "type": "address"
        },
        {
          "internalType": "uint256",
          "name": "",
          "type": "uint256"
        },
        {
          "internalType": "uint256",
          "name": "",
          "type": "uint256"
        }
      ],
      "name": "bids",
      "outputs": [
        {
          "internalType": "address",
          "name": "bidder",
          "type": "address"
        },
        {
          "internalType": "uint256",
          "name": "amount",
          "type": "uint256"
        }
      ],
      "stateMutability": "view",
      "type": "function"
    },
    {
      "inputs": [
        {
          "internalType": "address",
          "name": "nftContract",
          "type": "address"
        },
        {
          "internalType": "uint256",
          "name": "tokenId",
          "type": "uint256"
        }
      ],
      "name": "deleteAuction",
      "outputs": [],
      "stateMutability": "nonpayable",
      "type": "function"
    },
    {
      "inputs": [
        {
          "internalType": "address",
          "name": "nftContract",
          "type": "address"
        },
        {
          "internalType": "uint256",
          "name": "tokenId",
          "type": "uint256"
        }
      ],
      "name": "deleteBids",
      "outputs": [],
      "stateMutability": "nonpayable",
      "type": "function"
    },
    {
      "inputs": [
        {
          "internalType": "address",
          "name": "nftContract",
          "type": "address"
        },
        {
          "internalType": "uint256",
          "name": "tokenId",
          "type": "uint256"
        }
      ],
      "name": "deleteListing",
      "outputs": [],
      "stateMutability": "nonpayable",
      "type": "function"
    },
    {
      "inputs": [
        {
          "internalType": "address",
          "name": "nftContract",
          "type": "address"
        },
        {
          "internalType": "uint256",
          "name": "tokenId",
          "type": "uint256"
        }
      ],
      "name": "getAuction",
      "outputs": [
        {
          "components": [
            {
              "internalType": "uint256",
              "name": "endTime",
              "type": "uint256"
            },
            {
              "internalType": "uint256",
              "name": "minBid",
              "type": "uint256"
            },
            {
              "internalType": "uint256",
              "name": "minIncrement",
              "type": "uint256"
            },
            {
              "internalType": "address",
              "name": "highestBidder",
              "type": "address"
            },
            {
              "internalType": "uint256",
              "name": "highestBid",
              "type": "uint256"
            },
            {
              "internalType": "bool",
              "name": "isActive",
              "type": "bool"
            }
          ],
          "internalType": "struct EscrowStorage.Auction",
          "name": "",
          "type": "tuple"
        }
      ],
      "stateMutability": "view",
      "type": "function"
    },
    {
      "inputs": [
        {
          "internalType": "address",
          "name": "nftContract",
          "type": "address"
        },
        {
          "internalType": "uint256",
          "name": "tokenId",
          "type": "uint256"
        }
      ],
      "name": "getBids",
      "outputs": [
        {
          "components": [
            {
              "internalType": "address",
              "name": "bidder",
              "type": "address"
            },
            {
              "internalType": "uint256",
              "name": "amount",
              "type": "uint256"
            }
          ],
          "internalType": "struct EscrowStorage.Bid[]",
          "name": "",
          "type": "tuple[]"
        }
      ],
      "stateMutability": "view",
      "type": "function"
    },
    {
      "inputs": [
        {
          "internalType": "address",
          "name": "nftContract",
          "type": "address"
        },
        {
          "internalType": "uint256",
          "name": "tokenId",
          "type": "uint256"
        }
      ],
      "name": "getListing",
      "outputs": [
        {
          "components": [
            {
              "internalType": "address",
              "name": "nftContract",
              "type": "address"
            },
            {
              "internalType": "address",
              "name": "seller",
              "type": "address"
            },
            {
              "internalType": "address",
              "name": "buyer",
              "type": "address"
            },
            {
              "internalType": "uint256",
              "name": "price",
              "type": "uint256"
            },
            {
              "internalType": "uint256",
              "name": "minBid",
              "type": "uint256"
            },
            {
              "internalType": "uint256",
              "name": "escrowAmount",
              "type": "uint256"
            },
            {
              "internalType": "uint256",
              "name": "buyerDeposit",
              "type": "uint256"
            },
            {
              "internalType": "uint256",
              "name": "viewingPeriodEnd",
              "type": "uint256"
            },
            {
              "internalType": "bool",
              "name": "isListed",
              "type": "bool"
            },
            {
              "internalType": "bool",
              "name": "isApproved",
              "type": "bool"
            },
            {
              "internalType": "address",
              "name": "saleApprover",
              "type": "address"
            },
            {
              "internalType": "bool",
              "name": "isAuction",
              "type": "bool"
            }
          ],
          "internalType": "struct EscrowStorage.Listing",
          "name": "",
          "type": "tuple"
        }
      ],
      "stateMutability": "view",
      "type": "function"
    },
    {
      "inputs": [
        {
          "internalType": "bytes32",
          "name": "role",
          "type": "bytes32"
        }
      ],
      "name": "getRoleAdmin",
      "outputs": [
        {
          "internalType": "bytes32",
          "name": "",
          "type": "bytes32"
        }
      ],
      "stateMutability": "view",
      "type": "function"
    },
    {
      "inputs": [
        {
          "internalType": "address",
          "name": "nftContract",
          "type": "address"
        },
        {
          "internalType": "uint256",
          "name": "tokenId",
          "type": "uint256"
        }
      ],
      "name": "getVoucherRedeemed",
      "outputs": [
        {
          "internalType": "bool",
          "name": "",
          "type": "bool"
        }
      ],
      "stateMutability": "view",
      "type": "function"
    },
    {
      "inputs": [
        {
          "internalType": "bytes32",
          "name": "role",
          "type": "bytes32"
        },
        {
          "internalType": "address",
          "name": "account",
          "type": "address"
        }
      ],
      "name": "grantRole",
      "outputs": [],
      "stateMutability": "nonpayable",
      "type": "function"
    },
    {
      "inputs": [
        {
          "internalType": "bytes32",
          "name": "role",
          "type": "bytes32"
        },
        {
          "internalType": "address",
          "name": "account",
          "type": "address"
        }
      ],
      "name": "hasRole",
      "outputs": [
        {
          "internalType": "bool",
          "name": "",
          "type": "bool"
        }
      ],
      "stateMutability": "view",
      "type": "function"
    },
    {
      "inputs": [
        {
          "internalType": "address",
          "name": "",
          "type": "address"
        },
        {
          "internalType": "uint256",
          "name": "",
          "type": "uint256"
        }
      ],
      "name": "listings",
      "outputs": [
        {
          "internalType": "address",
          "name": "nftContract",
          "type": "address"
        },
        {
          "internalType": "address",
          "name": "seller",
          "type": "address"
        },
        {
          "internalType": "address",
          "name": "buyer",
          "type": "address"
        },
        {
          "internalType": "uint256",
          "name": "price",
          "type": "uint256"
        },
        {
          "internalType": "uint256",
          "name": "minBid",
          "type": "uint256"
        },
        {
          "internalType": "uint256",
          "name": "escrowAmount",
          "type": "uint256"
        },
        {
          "internalType": "uint256",
          "name": "buyerDeposit",
          "type": "uint256"
        },
        {
          "internalType": "uint256",
          "name": "viewingPeriodEnd",
          "type": "uint256"
        },
        {
          "internalType": "bool",
          "name": "isListed",
          "type": "bool"
        },
        {
          "internalType": "bool",
          "name": "isApproved",
          "type": "bool"
        },
        {
          "internalType": "address",
          "name": "saleApprover",
          "type": "address"
        },
        {
          "internalType": "bool",
          "name": "isAuction",
          "type": "bool"
        }
      ],
      "stateMutability": "view",
      "type": "function"
    },
    {
      "inputs": [
        {
          "internalType": "address",
          "name": "nftContract",
          "type": "address"
        },
        {
          "internalType": "uint256",
          "name": "tokenId",
          "type": "uint256"
        },
        {
          "components": [
            {
              "internalType": "address",
              "name": "bidder",
              "type": "address"
            },
            {
              "internalType": "uint256",
              "name": "amount",
              "type": "uint256"
            }
          ],
          "internalType": "struct EscrowStorage.Bid",
          "name": "bid",
          "type": "tuple"
        }
      ],
      "name": "pushBid",
      "outputs": [],
      "stateMutability": "nonpayable",
      "type": "function"
    },
    {
      "inputs": [
        {
          "internalType": "bytes32",
          "name": "role",
          "type": "bytes32"
        },
        {
          "internalType": "address",
          "name": "account",
          "type": "address"
        }
      ],
      "name": "renounceRole",
      "outputs": [],
      "stateMutability": "nonpayable",
      "type": "function"
    },
    {
      "inputs": [
        {
          "internalType": "bytes32",
          "name": "role",
          "type": "bytes32"
        },
        {
          "internalType": "address",
          "name": "account",
          "type": "address"
        }
      ],
      "name": "revokeRole",
      "outputs": [],
      "stateMutability": "nonpayable",
      "type": "function"
    },
    {
      "inputs": [
        {
          "internalType": "address",
          "name": "nftContract",
          "type": "address"
        },
        {
          "internalType": "uint256",
          "name": "tokenId",
          "type": "uint256"
        },
        {
          "components": [
            {
              "internalType": "uint256",
              "name": "endTime",
              "type": "uint256"
            },
            {
              "internalType": "uint256",
              "name": "minBid",
              "type": "uint256"
            },
            {
              "internalType": "uint256",
              "name": "minIncrement",
              "type": "uint256"
            },
            {
              "internalType": "address",
              "name": "highestBidder",
              "type": "address"
            },
            {
              "internalType": "uint256",
              "name": "highestBid",
              "type": "uint256"
            },
            {
              "internalType": "bool",
              "name": "isActive",
              "type": "bool"
            }
          ],
          "internalType": "struct EscrowStorage.Auction",
          "name": "auction",
          "type": "tuple"
        }
      ],
      "name": "setAuction",
      "outputs": [],
      "stateMutability": "nonpayable",
      "type": "function"
    },
    {
      "inputs": [
        {
          "internalType": "address",
          "name": "nftContract",
          "type": "address"
        },
        {
          "internalType": "uint256",
          "name": "tokenId",
          "type": "uint256"
        },
        {
          "components": [
            {
              "internalType": "address",
              "name": "nftContract",
              "type": "address"
            },
            {
              "internalType": "address",
              "name": "seller",
              "type": "address"
            },
            {
              "internalType": "address",
              "name": "buyer",
              "type": "address"
            },
            {
              "internalType": "uint256",
              "name": "price",
              "type": "uint256"
            },
            {
              "internalType": "uint256",
              "name": "minBid",
              "type": "uint256"
            },
            {
              "internalType": "uint256",
              "name": "escrowAmount",
              "type": "uint256"
            },
            {
              "internalType": "uint256",
              "name": "buyerDeposit",
              "type": "uint256"
            },
            {
              "internalType": "uint256",
              "name": "viewingPeriodEnd",
              "type": "uint256"
            },
            {
              "internalType": "bool",
              "name": "isListed",
              "type": "bool"
            },
            {
              "internalType": "bool",
              "name": "isApproved",
              "type": "bool"
            },
            {
              "internalType": "address",
              "name": "saleApprover",
              "type": "address"
            },
            {
              "internalType": "bool",
              "name": "isAuction",
              "type": "bool"
            }
          ],
          "internalType": "struct EscrowStorage.Listing",
          "name": "listing",
          "type": "tuple"
        }
      ],
      "name": "setListing",
      "outputs": [],
      "stateMutability": "nonpayable",
      "type": "function"
    },
    {
      "inputs": [
        {
          "internalType": "address",
          "name": "nftContract",
          "type": "address"
        },
        {
          "internalType": "uint256",
          "name": "tokenId",
          "type": "uint256"
        },
        {
          "internalType": "bool",
          "name": "redeemed",
          "type": "bool"
        }
      ],
      "name": "setVoucherRedeemed",
      "outputs": [],
      "stateMutability": "nonpayable",
      "type": "function"
    },
    {
      "inputs": [
        {
          "internalType": "bytes4",
          "name": "interfaceId",
          "type": "bytes4"
        }
      ],
      "name": "supportsInterface",
      "outputs": [
        {
          "internalType": "bool",
          "name": "",
          "type": "bool"
        }
      ],
      "stateMutability": "view",
      "type": "function"
    },
    {
      "inputs": [
        {
          "internalType": "address",
          "name": "",
          "type": "address"
        },
        {
          "internalType": "uint256",
          "name": "",
          "type": "uint256"
        }
      ],
      "name": "voucherRedeemed",
      "outputs": [
        {
          "internalType": "bool",
          "name": "",
          "type": "bool"
        }
      ],
      "stateMutability": "view",
      "type": "function"
    }
  ],
  "bytecode": "0x608060405234801561001057600080fd5b5061001c60003361004b565b6100467fa49807205ce4d355092ef5a8a18f56e8913cf4a201fbe287825b095693c217753361004b565b6100ea565b6000828152602081815260408083206001600160a01b038516845290915290205460ff166100e6576000828152602081815260408083206001600160a01b03851684529091529020805460ff191660011790556100a53390565b6001600160a01b0316816001600160a01b0316837f2f8788117e7eff1d82e926ec794901d17c78024a50270940304540a733656f0d60405160405180910390a45b5050565b611886806100f96000396000f3fe608060405234801561001057600080fd5b506004361061018d5760003560e01c80634fe5d985116100de5780639faf1e3f11610097578063b5f38dce11610071578063b5f38dce1461069f578063b8912efc146106bf578063d547741f146106c8578063ebb3964a146106db57600080fd5b80639faf1e3f14610654578063a217fddf1461065e578063a59ef80a1461066657600080fd5b80634fe5d9851461044257806375b238fc14610455578063762a66a21461046a57806381c9db11146104cf57806388700d1c146104fd57806391d148541461064157600080fd5b806329c2cbbc1161014b5780633652a4a1116101255780633652a4a11461035757806336568abe1461036a57806344f91c1e1461037d57806346d029341461041057600080fd5b806329c2cbbc1461031e5780632b054064146103315780632f2ff15d1461034457600080fd5b806207df301461019257806301ffc9a7146102995780630e59a254146102bc578063114048ea146102d3578063248a9ca3146102e857806328142ed31461030b575b600080fd5b6102216101a0366004611200565b600160208181526000938452604080852090915291835291208054918101546002820154600383015460048401546005850154600686015460078701546008909701546001600160a01b03988916989687169795871696949593949293919260ff8083169261010081048216926201000082041691600160b01b909104168c565b604080516001600160a01b039d8e1681529b8d1660208d0152998c16998b019990995260608a0197909752608089019590955260a088019390935260c087019190915260e086015215156101008501521515610120840152909216610140820152901515610160820152610180015b60405180910390f35b6102ac6102a736600461122a565b6106ee565b6040519015158152602001610290565b6102c561025881565b604051908152602001610290565b6102e66102e13660046112d3565b610725565b005b6102c56102f6366004611366565b60009081526020819052604090206001015490565b6102e661031936600461138f565b6107c8565b6102e661032c366004611200565b610816565b6102e661033f366004611200565b6108b4565b6102e66103523660046113cb565b610933565b6102e66103653660046113f7565b61095d565b6102e66103783660046113cb565b610aa7565b6103d861038b366004611200565b600360208181526000938452604080852090915291835291208054600182015460028301549383015460048401546005909401549294919391926001600160a01b03909116919060ff1686565b604080519687526020870195909552938501929092526001600160a01b031660608401526080830152151560a082015260c001610290565b61042361041e3660046114f8565b610b2a565b604080516001600160a01b039093168352602083019190915201610290565b6102e6610450366004611200565b610b7e565b6102c560008051602061183183398151915281565b61047d610478366004611200565b610c41565b60405161029091908151815260208083015190820152604080830151908201526060808301516001600160a01b0316908201526080808301519082015260a09182015115159181019190915260c00190565b6102ac6104dd366004611200565b600460209081526000928352604080842090915290825290205460ff1681565b61063461050b366004611200565b6040805161018081018252600080825260208201819052918101829052606081018290526080810182905260a0810182905260c0810182905260e08101829052610100810182905261012081018290526101408101829052610160810191909152506001600160a01b039182166000908152600160208181526040808420948452938152918390208351610180810185528154861681529181015485169282019290925260028201548416928101929092526003810154606083015260048101546080830152600581015460a0830152600681015460c0830152600781015460e08301526008015460ff808216151561010080850191909152820481161515610120840152620100008204909316610140830152600160b01b9004909116151561016082015290565b604051610290919061152b565b6102ac61064f3660046113cb565b610cf6565b6102c56203f48081565b6102c5600081565b6102ac610674366004611200565b6001600160a01b03919091166000908152600460209081526040808320938352929052205460ff1690565b6106b26106ad366004611200565b610d1f565b60405161029091906115f0565b6102c561012c81565b6102e66106d63660046113cb565b610db3565b6102e66106e9366004611648565b610dd8565b60006001600160e01b03198216637965db0b60e01b148061071f57506301ffc9a760e01b6001600160e01b03198316145b92915050565b60008051602061183183398151915261073d81610e9a565b6001600160a01b03848116600081815260026020818152604080842089855282528084208054600180820183559186528386208a519190950290940180546001600160a01b03191694909716939093178655908701519490910193909355915185927f696ab19c9a5fff1fc78fcd7e8b4f8c7d06ccbadaa381a3630be38eba4e8ace9a91a350505050565b6000805160206118318339815191526107e081610e9a565b506001600160a01b0392909216600090815260046020908152604080832093835292905220805460ff1916911515919091179055565b60008051602061183183398151915261082e81610e9a565b6001600160a01b0383166000818152600360208181526040808420878552909152808320838155600181018490556002810184905591820180546001600160a01b0319169055600482018390556005909101805460ff19169055518492917f48f338e286bc6cc055c95197931190479610e1788c1a8822f02dcaafeae20f1091a3505050565b6000805160206118318339815191526108cc81610e9a565b6001600160a01b038316600090815260026020908152604080832085845290915281206108f89161119e565b60405182906001600160a01b038516907f696ab19c9a5fff1fc78fcd7e8b4f8c7d06ccbadaa381a3630be38eba4e8ace9a90600090a3505050565b60008281526020819052604090206001015461094e81610e9a565b6109588383610ea7565b505050565b60008051602061183183398151915261097581610e9a565b6001600160a01b0380851660008181526001602081815260408084208985528252808420885181549088166001600160a01b031991821617825592890151938101805494881694841694909417909355808801516002840180549188169190931617909155606087015160038301556080870151600483015560a0870151600583015560c0870151600683015560e0870151600783015561010080880151600890930180546101208a01516101408b01516101608c01511515600160b01b0260ff60b01b1991909a1662010000021662010000600160b81b031991151590940261ff00199615159690961661ffff1990921691909117949094179390931617949094179055915185927fe5317da7a2a5a513758a425cd8d8926ce3e58f239f2c630a790fc6b038dd3bd091a350505050565b6001600160a01b0381163314610b1c5760405162461bcd60e51b815260206004820152602f60248201527f416363657373436f6e74726f6c3a2063616e206f6e6c792072656e6f756e636560448201526e103937b632b9903337b91039b2b63360891b60648201526084015b60405180910390fd5b610b268282610f2b565b5050565b60026020528260005260406000206020528160005260406000208181548110610b5257600080fd5b6000918252602090912060029091020180546001909101546001600160a01b0390911693509150839050565b600080516020611831833981519152610b9681610e9a565b6001600160a01b038316600081815260016020818152604080842087855290915280832080546001600160a01b031990811682559281018054841690556002810180549093169092556003820183905560048201839055600582018390556006820183905560078201839055600890910180546001600160b81b0319169055518492917fe5317da7a2a5a513758a425cd8d8926ce3e58f239f2c630a790fc6b038dd3bd091a3505050565b610c856040518060c0016040528060008152602001600081526020016000815260200160006001600160a01b03168152602001600081526020016000151581525090565b506001600160a01b03918216600090815260036020818152604080842094845293815291839020835160c081018552815481526001820154938101939093526002810154938301939093528201549092166060830152600481015460808301526005015460ff16151560a082015290565b6000918252602082815260408084206001600160a01b0393909316845291905290205460ff1690565b6001600160a01b03821660009081526002602090815260408083208484528252808320805482518185028101850190935280835260609492939192909184015b82821015610da7576000848152602090819020604080518082019091526002850290910180546001600160a01b03168252600190810154828401529083529092019101610d5f565b50505050905092915050565b600082815260208190526040902060010154610dce81610e9a565b6109588383610f2b565b600080516020611831833981519152610df081610e9a565b6001600160a01b038481166000818152600360208181526040808420898552825280842088518155918801516001830155878101516002830155606088015192820180546001600160a01b03191693909616929092179094556080860151600485015560a08601516005909401805460ff191694151594909417909355915185927f48f338e286bc6cc055c95197931190479610e1788c1a8822f02dcaafeae20f1091a350505050565b610ea48133610f90565b50565b610eb18282610cf6565b610b26576000828152602081815260408083206001600160a01b03851684529091529020805460ff19166001179055610ee73390565b6001600160a01b0316816001600160a01b0316837f2f8788117e7eff1d82e926ec794901d17c78024a50270940304540a733656f0d60405160405180910390a45050565b610f358282610cf6565b15610b26576000828152602081815260408083206001600160a01b0385168085529252808320805460ff1916905551339285917ff6391f5c32d9c69d2a47ea670b442974b53935d1edc7fd64eb21e047a839171b9190a45050565b610f9a8282610cf6565b610b2657610fa781610fe9565b610fb2836020610ffb565b604051602001610fc392919061170e565b60408051601f198184030181529082905262461bcd60e51b8252610b1391600401611783565b606061071f6001600160a01b03831660145b6060600061100a8360026117cc565b6110159060026117eb565b67ffffffffffffffff81111561102d5761102d611254565b6040519080825280601f01601f191660200182016040528015611057576020820181803683370190505b509050600360fc1b8160008151811061107257611072611803565b60200101906001600160f81b031916908160001a905350600f60fb1b816001815181106110a1576110a1611803565b60200101906001600160f81b031916908160001a90535060006110c58460026117cc565b6110d09060016117eb565b90505b6001811115611148576f181899199a1a9b1b9c1cb0b131b232b360811b85600f166010811061110457611104611803565b1a60f81b82828151811061111a5761111a611803565b60200101906001600160f81b031916908160001a90535060049490941c9361114181611819565b90506110d3565b5083156111975760405162461bcd60e51b815260206004820181905260248201527f537472696e67733a20686578206c656e67746820696e73756666696369656e746044820152606401610b13565b9392505050565b5080546000825560020290600052602060002090810190610ea491905b808211156111e05780546001600160a01b0319168155600060018201556002016111bb565b5090565b80356001600160a01b03811681146111fb57600080fd5b919050565b6000806040838503121561121357600080fd5b61121c836111e4565b946020939093013593505050565b60006020828403121561123c57600080fd5b81356001600160e01b03198116811461119757600080fd5b634e487b7160e01b600052604160045260246000fd5b604051610180810167ffffffffffffffff8111828210171561129c57634e487b7160e01b600052604160045260246000fd5b60405290565b60405160c0810167ffffffffffffffff8111828210171561129c57634e487b7160e01b600052604160045260246000fd5b600080600083850360808112156112e957600080fd5b6112f2856111e4565b9350602085013592506040603f198201121561130d57600080fd5b506040516040810181811067ffffffffffffffff8211171561133f57634e487b7160e01b600052604160045260246000fd5b8060405250611350604086016111e4565b8152606094909401356020850152509093909250565b60006020828403121561137857600080fd5b5035919050565b803580151581146111fb57600080fd5b6000806000606084860312156113a457600080fd5b6113ad846111e4565b9250602084013591506113c26040850161137f565b90509250925092565b600080604083850312156113de57600080fd5b823591506113ee602084016111e4565b90509250929050565b60008060008385036101c081121561140e57600080fd5b611417856111e4565b93506020850135925061018080603f198301121561143457600080fd5b61143c61126a565b915061144a604087016111e4565b8252611458606087016111e4565b6020830152611469608087016111e4565b604083015260a0860135606083015260c0860135608083015260e086013560a08301526101008087013560c08401526101208088013560e08501526101406114b2818a0161137f565b8386015261016092506114c6838a0161137f565b828601526114d5848a016111e4565b90850152506114e76101a0880161137f565b818401525050809150509250925092565b60008060006060848603121561150d57600080fd5b611516846111e4565b95602085013595506040909401359392505050565b81516001600160a01b031681526101808101602083015161155760208401826001600160a01b03169052565b50604083015161157260408401826001600160a01b03169052565b50606083015160608301526080830151608083015260a083015160a083015260c083015160c083015260e083015160e0830152610100808401516115b98285018215159052565b505061012083810151151590830152610140808401516001600160a01b031690830152610160928301511515929091019190915290565b602080825282518282018190526000919060409081850190868401855b8281101561163b57815180516001600160a01b0316855286015186850152928401929085019060010161160d565b5091979650505050505050565b600080600083850361010081121561165f57600080fd5b611668856111e4565b93506020850135925060c0603f198201121561168357600080fd5b5061168c6112a2565b6040850135815260608501356020820152608085013560408201526116b360a086016111e4565b606082015260c085013560808201526116ce60e0860161137f565b60a0820152809150509250925092565b60005b838110156116f95781810151838201526020016116e1565b83811115611708576000848401525b50505050565b7f416363657373436f6e74726f6c3a206163636f756e74200000000000000000008152600083516117468160178501602088016116de565b7001034b99036b4b9b9b4b733903937b6329607d1b60179184019182015283516117778160288401602088016116de565b01602801949350505050565b60208152600082518060208401526117a28160408501602087016116de565b601f01601f19169190910160400192915050565b634e487b7160e01b600052601160045260246000fd5b60008160001904831182151516156117e6576117e66117b6565b500290565b600082198211156117fe576117fe6117b6565b500190565b634e487b7160e01b600052603260045260246000fd5b600081611828576118286117b6565b50600019019056fea49807205ce4d355092ef5a8a18f56e8913cf4a201fbe287825b095693c21775a2646970667358221220a9d8e133d39f96d9fe42a84908cedae6672a36341abae2906dc9faf29eaa6d5264736f6c63430008090033",
  "linkReferences": {},
  "deployedLinkReferences": {}
}