{
  "_format": "hh-sol-artifact-1",
  "contractName": "EscrowAuctions",
  "sourceName": "contracts/EscrowAuctions.sol",
  "abi": [
    {
      "inputs": [
        {
          "internalType": "address",
          "name": "_storageContract",
          "type": "address"
        },
        {
          "internalType": "address",
          "name": "_escrowListings",
          "type": "address"
        }
      ],
      "stateMutability": "nonpayable",
      "type": "constructor"
    },
    {
      "anonymous": false,
      "inputs": [
        {
          "indexed": true,
          "internalType": "address",
          "name": "nftContract",
          "type": "address"
        },
        {
          "indexed": true,
          "internalType": "uint256",
          "name": "tokenId",
          "type": "uint256"
        },
        {
          "indexed": false,
          "internalType": "uint8",
          "name": "actionType",
          "type": "uint8"
        },
        {
          "indexed": true,
          "internalType": "address",
          "name": "user",
          "type": "address"
        },
        {
          "indexed": false,
          "internalType": "uint256",
          "name": "value",
          "type": "uint256"
        }
      ],
      "name": "Action",
      "type": "event"
    },
    {
      "anonymous": false,
      "inputs": [
        {
          "indexed": true,
          "internalType": "address",
          "name": "previousOwner",
          "type": "address"
        },
        {
          "indexed": true,
          "internalType": "address",
          "name": "newOwner",
          "type": "address"
        }
      ],
      "name": "OwnershipTransferred",
      "type": "event"
    },
    {
      "inputs": [
        {
          "internalType": "address",
          "name": "nftContract",
          "type": "address"
        },
        {
          "internalType": "uint256",
          "name": "tokenId",
          "type": "uint256"
        },
        {
          "internalType": "uint256",
          "name": "bidIndex",
          "type": "uint256"
        }
      ],
      "name": "acceptBid",
      "outputs": [],
      "stateMutability": "nonpayable",
      "type": "function"
    },
    {
      "inputs": [
        {
          "internalType": "address",
          "name": "nftContract",
          "type": "address"
        },
        {
          "internalType": "uint256",
          "name": "tokenId",
          "type": "uint256"
        }
      ],
      "name": "cancelSale",
      "outputs": [],
      "stateMutability": "nonpayable",
      "type": "function"
    },
    {
      "inputs": [
        {
          "internalType": "address",
          "name": "nftContract",
          "type": "address"
        },
        {
          "internalType": "uint256",
          "name": "tokenId",
          "type": "uint256"
        }
      ],
      "name": "endAuction",
      "outputs": [],
      "stateMutability": "nonpayable",
      "type": "function"
    },
    {
      "inputs": [],
      "name": "escrowListings",
      "outputs": [
        {
          "internalType": "address",
          "name": "",
          "type": "address"
        }
      ],
      "stateMutability": "view",
      "type": "function"
    },
    {
      "inputs": [],
      "name": "owner",
      "outputs": [
        {
          "internalType": "address",
          "name": "",
          "type": "address"
        }
      ],
      "stateMutability": "view",
      "type": "function"
    },
    {
      "inputs": [
        {
          "internalType": "address",
          "name": "nftContract",
          "type": "address"
        },
        {
          "internalType": "uint256[]",
          "name": "tokenIds",
          "type": "uint256[]"
        },
        {
          "internalType": "uint256[]",
          "name": "amounts",
          "type": "uint256[]"
        }
      ],
      "name": "placeBid",
      "outputs": [],
      "stateMutability": "payable",
      "type": "function"
    },
    {
      "inputs": [],
      "name": "renounceOwnership",
      "outputs": [],
      "stateMutability": "nonpayable",
      "type": "function"
    },
    {
      "inputs": [
        {
          "internalType": "address",
          "name": "_escrowListings",
          "type": "address"
        }
      ],
      "name": "setEscrowListings",
      "outputs": [],
      "stateMutability": "nonpayable",
      "type": "function"
    },
    {
      "inputs": [],
      "name": "storageContract",
      "outputs": [
        {
          "internalType": "contract EscrowStorage",
          "name": "",
          "type": "address"
        }
      ],
      "stateMutability": "view",
      "type": "function"
    },
    {
      "inputs": [
        {
          "internalType": "address",
          "name": "newOwner",
          "type": "address"
        }
      ],
      "name": "transferOwnership",
      "outputs": [],
      "stateMutability": "nonpayable",
      "type": "function"
    }
  ],
  "bytecode": "0x60806040523480156200001157600080fd5b506040516200289a3803806200289a8339810160408190526200003491620000de565b6200003f3362000071565b600180546001600160a01b039384166001600160a01b0319918216179091556002805492909316911617905562000116565b600080546001600160a01b038381166001600160a01b0319831681178455604051919092169283917f8be0079c531659141344cd1fd0a4f28419497f9722a3daafe3b4186f6b6457e09190a35050565b80516001600160a01b0381168114620000d957600080fd5b919050565b60008060408385031215620000f257600080fd5b620000fd83620000c1565b91506200010d60208401620000c1565b90509250929050565b61277480620001266000396000f3fe6080604052600436106100915760003560e01c80637a022bd4116100595780637a022bd41461013c57806388cedbc41461015c5780638da5cb5b1461017c578063e13a40f01461019a578063f2fde38b146101ba57600080fd5b806311ce02671461009657806316f3a95b146100d25780634297b092146100f4578063658ee46814610114578063715018a614610127575b600080fd5b3480156100a257600080fd5b506001546100b6906001600160a01b031681565b6040516001600160a01b03909116815260200160405180910390f35b3480156100de57600080fd5b506100f26100ed366004612167565b6101da565b005b34801561010057600080fd5b506002546100b6906001600160a01b031681565b6100f26101223660046121df565b6105cb565b34801561013357600080fd5b506100f2610846565b34801561014857600080fd5b506100f2610157366004612262565b61085a565b34801561016857600080fd5b506100f2610177366004612167565b61090b565b34801561018857600080fd5b506000546001600160a01b03166100b6565b3480156101a657600080fd5b506100f26101b5366004612286565b610da2565b3480156101c657600080fd5b506100f26101d5366004612262565b611488565b600154600160a01b900460ff161561020d5760405162461bcd60e51b8152600401610204906122bb565b60405180910390fd5b6001805460ff60a01b198116600160a01b1790915560405163221c034760e21b81526000916001600160a01b0316906388700d1c9061025290869086906004016122e3565b6101806040518083038186803b15801561026b57600080fd5b505afa15801561027f573d6000803e3d6000fd5b505050506040513d601f19601f820116820180604052508101906102a391906123b0565b90508061010001516102c75760405162461bcd60e51b815260040161020490612479565b80602001516001600160a01b0316336001600160a01b03161461032c5760405162461bcd60e51b815260206004820152601e60248201527f4f6e6c792073656c6c65722063616e2063616e63656c2061756374696f6e00006044820152606401610204565b80610160015161036f5760405162461bcd60e51b815260206004820152600e60248201526d2737ba1030b71030bab1ba34b7b760911b6044820152606401610204565b600154604051633b15335160e11b81526000916001600160a01b03169063762a66a2906103a290879087906004016122e3565b60c06040518083038186803b1580156103ba57600080fd5b505afa1580156103ce573d6000803e3d6000fd5b505050506040513d601f19601f820116820180604052508101906103f291906124a3565b60608101519091506001600160a01b03161561044b5780606001516001600160a01b03166108fc82608001519081150290604051600060405180830381858888f19350505050158015610449573d6000803e3d6000fd5b505b60208201516040516323b872dd60e01b81523060048201526001600160a01b03918216602482015260448101859052908516906323b872dd90606401600060405180830381600087803b1580156104a157600080fd5b505af11580156104b5573d6000803e3d6000fd5b5050600154604051634fe5d98560e01b81526001600160a01b039091169250634fe5d98591506104eb90879087906004016122e3565b600060405180830381600087803b15801561050557600080fd5b505af1158015610519573d6000803e3d6000fd5b5050600154604051630a70b2ef60e21b81526001600160a01b0390911692506329c2cbbc915061054f90879087906004016122e3565b600060405180830381600087803b15801561056957600080fd5b505af115801561057d573d6000803e3d6000fd5b50506040805160078152600060208201523393508692506001600160a01b0388169160008051602061271f833981519152910160405180910390a450506001805460ff60a01b191690555050565b600154600160a01b900460ff16156105f55760405162461bcd60e51b8152600401610204906122bb565b6001805460ff60a01b1916600160a01b1790558261064a5760405162461bcd60e51b8152602060048201526012602482015271139bc81d1bdad95b9cc81c1c9bdd9a59195960721b6044820152606401610204565b8281146106995760405162461bcd60e51b815260206004820152601860248201527f4d69736d617463686564206172726179206c656e6774687300000000000000006044820152606401610204565b60328311156106ea5760405162461bcd60e51b815260206004820152601860248201527f42617463682073697a652065786365656473206c696d697400000000000000006044820152606401610204565b6000805b8281101561072e578383828181106107085761070861252a565b905060200201358261071a9190612556565b9150806107268161256e565b9150506106ee565b50803410156107765760405162461bcd60e51b8152602060048201526014602482015273125b9cdd59999a58da595b9d081c185e5b595b9d60621b6044820152606401610204565b60005b848110156107ce576107bc878787848181106107975761079761252a565b905060200201358686858181106107b0576107b061252a565b90506020020135611501565b806107c68161256e565b915050610779565b503385856000816107e1576107e161252a565b90506020020135876001600160a01b031660008051602061271f83398151915260018989905011610813576003610816565b600b5b6040805160ff9092168252602082018790520160405180910390a450506001805460ff60a01b1916905550505050565b61084e611d93565b6108586000611ded565b565b6000546001600160a01b031633146108a15760405162461bcd60e51b815260206004820152600a60248201526927b7363c9037bbb732b960b11b6044820152606401610204565b6001600160a01b0381166108e95760405162461bcd60e51b815260206004820152600f60248201526e496e76616c6964206164647265737360881b6044820152606401610204565b600280546001600160a01b0319166001600160a01b0392909216919091179055565b600154600160a01b900460ff16156109355760405162461bcd60e51b8152600401610204906122bb565b6001805460ff60a01b198116600160a01b1790915560405163221c034760e21b81526000916001600160a01b0316906388700d1c9061097a90869086906004016122e3565b6101806040518083038186803b15801561099357600080fd5b505afa1580156109a7573d6000803e3d6000fd5b505050506040513d601f19601f820116820180604052508101906109cb91906123b0565b600154604051633b15335160e11b81529192506000916001600160a01b039091169063762a66a290610a0390879087906004016122e3565b60c06040518083038186803b158015610a1b57600080fd5b505afa158015610a2f573d6000803e3d6000fd5b505050506040513d601f19601f82011682018060405250810190610a5391906124a3565b9050816101000151610a775760405162461bcd60e51b815260040161020490612479565b816101600151610aba5760405162461bcd60e51b815260206004820152600e60248201526d2737ba1030b71030bab1ba34b7b760911b6044820152606401610204565b8060a00151610b035760405162461bcd60e51b8152602060048201526015602482015274105d58dd1a5bdb88185b1c9958591e48195b991959605a1b6044820152606401610204565b8051421015610b4c5760405162461bcd60e51b8152602060048201526015602482015274105d58dd1a5bdb881b9bdd081e595d08195b991959605a1b6044820152606401610204565b6001546040805160c081018252835181526020808501519082015283820151818301526060808501516001600160a01b039081169183019190915260808086015190830152600060a083015291516375d9cb2560e11b8152919092169163ebb3964a91610bc0918891889190600401612589565b600060405180830381600087803b158015610bda57600080fd5b505af1158015610bee573d6000803e3d6000fd5b5050505060608101516001600160a01b0316610d765760208201516040516323b872dd60e01b81523060048201526001600160a01b03918216602482015260448101859052908516906323b872dd90606401600060405180830381600087803b158015610c5a57600080fd5b505af1158015610c6e573d6000803e3d6000fd5b5050600154604051634fe5d98560e01b81526001600160a01b039091169250634fe5d9859150610ca490879087906004016122e3565b600060405180830381600087803b158015610cbe57600080fd5b505af1158015610cd2573d6000803e3d6000fd5b5050600154604051630a70b2ef60e21b81526001600160a01b0390911692506329c2cbbc9150610d0890879087906004016122e3565b600060405180830381600087803b158015610d2257600080fd5b505af1158015610d36573d6000803e3d6000fd5b50506040805160078152600060208201523393508692506001600160a01b0388169160008051602061271f833981519152910160405180910390a4610d8f565b610d8f8484846020015184606001518560800151611e3d565b50506001805460ff60a01b191690555050565b600154600160a01b900460ff1615610dcc5760405162461bcd60e51b8152600401610204906122bb565b6001805460ff60a01b198116600160a01b1790915560405163221c034760e21b8152849184916000916001600160a01b0316906388700d1c90610e1590869086906004016122e3565b6101806040518083038186803b158015610e2e57600080fd5b505afa158015610e42573d6000803e3d6000fd5b505050506040513d601f19601f82011682018060405250810190610e6691906123b0565b905080602001516001600160a01b0316336001600160a01b031614610ebb5760405162461bcd60e51b815260206004820152600b60248201526a27b7363c9039b2b63632b960a91b6044820152606401610204565b60015460405163221c034760e21b81526000916001600160a01b0316906388700d1c90610eee908a908a906004016122e3565b6101806040518083038186803b158015610f0757600080fd5b505afa158015610f1b573d6000803e3d6000fd5b505050506040513d601f19601f82011682018060405250810190610f3f91906123b0565b9050806101000151610f635760405162461bcd60e51b815260040161020490612479565b80610160015115610fb65760405162461bcd60e51b815260206004820152601f60248201527f43616e6e6f7420616363657074206269647320666f722061756374696f6e73006044820152606401610204565b806101200151610fff5760405162461bcd60e51b8152602060048201526014602482015273105c9d1ddbdc9ac81b9bdd08185c1c1c9bdd995960621b6044820152606401610204565b600154604051635af9c6e760e11b81526000916001600160a01b03169063b5f38dce90611032908b908b906004016122e3565b60006040518083038186803b15801561104a57600080fd5b505afa15801561105e573d6000803e3d6000fd5b505050506040513d6000823e601f3d908101601f1916820160405261108691908101906125ea565b9050805186106110cc5760405162461bcd60e51b8152602060048201526011602482015270092dcecc2d8d2c840c4d2c840d2dcc8caf607b1b6044820152606401610204565b60008187815181106110e0576110e061252a565b602002602001015160000151905060008288815181106111025761110261252a565b602002602001015160200151905060005b83518110156111aa57888114611198578381815181106111355761113561252a565b6020026020010151600001516001600160a01b03166108fc85838151811061115f5761115f61252a565b6020026020010151602001519081150290604051600060405180830381858888f19350505050158015611196573d6000803e3d6000fd5b505b806111a28161256e565b915050611113565b50600154604051630ac1501960e21b81526001600160a01b0390911690632b054064906111dd908d908d906004016122e3565b600060405180830381600087803b1580156111f757600080fd5b505af115801561120b573d6000803e3d6000fd5b5050505060008061121d8c8c856120c0565b9092509050600061122e82856126c0565b905081156112b9576040516001600160a01b0384169083156108fc029084906000818181858888f1935050505015801561126c573d6000803e3d6000fd5b50826001600160a01b03168c8e6001600160a01b031660008051602061271f8339815191526002866040516112b092919060ff929092168252602082015260400190565b60405180910390a45b86602001516001600160a01b03166108fc829081150290604051600060405180830381858888f193505050501580156112f6573d6000803e3d6000fd5b506040516323b872dd60e01b81523060048201526001600160a01b038681166024830152604482018e90528e16906323b872dd90606401600060405180830381600087803b15801561134757600080fd5b505af115801561135b573d6000803e3d6000fd5b5050505060c0870151156113ac5786604001516001600160a01b03166108fc8860c001519081150290604051600060405180830381858888f193505050501580156113aa573d6000803e3d6000fd5b505b600160009054906101000a90046001600160a01b03166001600160a01b0316634fe5d9858e8e6040518363ffffffff1660e01b81526004016113ef9291906122e3565b600060405180830381600087803b15801561140957600080fd5b505af115801561141d573d6000803e3d6000fd5b50505050846001600160a01b03168c8e6001600160a01b031660008051602061271f83398151915260028860405161146492919060ff929092168252602082015260400190565b60405180910390a450506001805460ff60a01b191690555050505050505050505050565b611490611d93565b6001600160a01b0381166114f55760405162461bcd60e51b815260206004820152602660248201527f4f776e61626c653a206e6577206f776e657220697320746865207a65726f206160448201526564647265737360d01b6064820152608401610204565b6114fe81611ded565b50565b60015460405163221c034760e21b81526000916001600160a01b0316906388700d1c9061153490879087906004016122e3565b6101806040518083038186803b15801561154d57600080fd5b505afa158015611561573d6000803e3d6000fd5b505050506040513d601f19601f8201168201806040525081019061158591906123b0565b90508061010001516115a95760405162461bcd60e51b815260040161020490612479565b80602001516001600160a01b0316336001600160a01b031614156116035760405162461bcd60e51b815260206004820152601160248201527014d95b1b195c8818d85b9b9bdd08189a59607a1b6044820152606401610204565b80610160015115611afc57600154604051633b15335160e11b81526000916001600160a01b03169063762a66a29061164190889088906004016122e3565b60c06040518083038186803b15801561165957600080fd5b505afa15801561166d573d6000803e3d6000fd5b505050506040513d601f19601f8201168201806040525081019061169191906124a3565b90508060a001516116d45760405162461bcd60e51b815260206004820152600d60248201526c105d58dd1a5bdb88195b991959609a1b6044820152606401610204565b805142106117165760405162461bcd60e51b815260206004820152600f60248201526e105d58dd1a5bdb88195e1c1a5c9959608a1b6044820152606401610204565b806020015183101580156117495750608081015115806117495750806040015181608001516117459190612556565b8310155b6117835760405162461bcd60e51b815260206004820152600b60248201526a42696420746f6f206c6f7760a81b6044820152606401610204565b60608101516001600160a01b0316156117d95780606001516001600160a01b03166108fc82608001519081150290604051600060405180830381858888f193505050501580156117d7573d6000803e3d6000fd5b505b6001546040805180820182523381526020810186815291516308a0247560e11b81526001600160a01b03898116600483015260248201899052915182166044820152915160648301529091169063114048ea90608401600060405180830381600087803b15801561184957600080fd5b505af115801561185d573d6000803e3d6000fd5b50506001546040805160c081018252855181526020808701519082015285820151818301523360608201526080810188905260a08087015115159082015290516375d9cb2560e11b81526001600160a01b03909216935063ebb3964a92506118cb9189918991600401612589565b600060405180830381600087803b1580156118e557600080fd5b505af11580156118f9573d6000803e3d6000fd5b50505050600160009054906101000a90046001600160a01b03166001600160a01b031663b8912efc6040518163ffffffff1660e01b815260040160206040518083038186803b15801561194b57600080fd5b505afa15801561195f573d6000803e3d6000fd5b505050506040513d601f19601f8201168201806040525081019061198391906126d7565b81516119909042906126c0565b1015611af65760015460408051630396689560e21b815290516000926001600160a01b031691630e59a254916004808301926020929190829003018186803b1580156119db57600080fd5b505afa1580156119ef573d6000803e3d6000fd5b505050506040513d601f19601f82011682018060405250810190611a1391906126d7565b8251611a1f9190612556565b6001546040805160c0810182528381526020868101519082015285820151818301523360608201526080810188905260a08087015115159082015290516375d9cb2560e11b81529293506001600160a01b039091169163ebb3964a91611a8b918a918a91600401612589565b600060405180830381600087803b158015611aa557600080fd5b505af1158015611ab9573d6000803e3d6000fd5b50506040805160098152602081018590523393508892506001600160a01b038a169160008051602061271f833981519152910160405180910390a4505b50611d8d565b6000816080015111611b465760405162461bcd60e51b8152602060048201526013602482015272109a59191a5b99c81b9bdd08195b98589b1959606a1b6044820152606401610204565b60408101516001600160a01b031615611ba15760405162461bcd60e51b815260206004820152601b60248201527f42696464696e67206f6e6c7920666f72206f70656e2073616c657300000000006044820152606401610204565b8060800151821015611be95760405162461bcd60e51b81526020600482015260116024820152704269642062656c6f77206d696e696d756d60781b6044820152606401610204565b600154604051635af9c6e760e11b81526000916001600160a01b03169063b5f38dce90611c1c90889088906004016122e3565b60006040518083038186803b158015611c3457600080fd5b505afa158015611c48573d6000803e3d6000fd5b505050506040513d6000823e601f3d908101601f19168201604052611c7091908101906125ea565b805190915015611d03578060018251611c8991906126c0565b81518110611c9957611c9961252a565b6020026020010151602001518311611d035760405162461bcd60e51b815260206004820152602760248201527f426964206d75737420626520686967686572207468616e2063757272656e74206044820152661a1a59da195cdd60ca1b6064820152608401610204565b6001546040805180820182523381526020810186815291516308a0247560e11b81526001600160a01b03898116600483015260248201899052915182166044820152915160648301529091169063114048ea90608401600060405180830381600087803b158015611d7357600080fd5b505af1158015611d87573d6000803e3d6000fd5b50505050505b50505050565b6000546001600160a01b031633146108585760405162461bcd60e51b815260206004820181905260248201527f4f776e61626c653a2063616c6c6572206973206e6f7420746865206f776e65726044820152606401610204565b600080546001600160a01b038381166001600160a01b0319831681178455604051919092169283917f8be0079c531659141344cd1fd0a4f28419497f9722a3daafe3b4186f6b6457e09190a35050565b600080611e4b8787856120c0565b90925090506000611e5c82856126c0565b90508115611ed6576040516001600160a01b0384169083156108fc029084906000818181858888f19350505050158015611e9a573d6000803e3d6000fd5b506040805160028152602081018490526001600160a01b03808616928a92918c169160008051602061271f833981519152910160405180910390a45b6040516001600160a01b0387169082156108fc029083906000818181858888f19350505050158015611f0c573d6000803e3d6000fd5b5060025460405163796f702960e11b81526001600160a01b038a81166004830152602482018a905287811660448301529091169063f2dee05290606401600060405180830381600087803b158015611f6357600080fd5b505af1158015611f77573d6000803e3d6000fd5b5050600154604051634fe5d98560e01b81526001600160a01b039091169250634fe5d9859150611fad908b908b906004016122e3565b600060405180830381600087803b158015611fc757600080fd5b505af1158015611fdb573d6000803e3d6000fd5b5050600154604051630a70b2ef60e21b81526001600160a01b0390911692506329c2cbbc9150612011908b908b906004016122e3565b600060405180830381600087803b15801561202b57600080fd5b505af115801561203f573d6000803e3d6000fd5b50506040805160048152602081018890526001600160a01b03808a1694508b93508c169160008051602061271f833981519152910160405180910390a46040805160028152602081018690526001600160a01b03808816928a92918c169160008051602061271f833981519152910160405180910390a45050505050505050565b60405163152a902d60e11b8152600481018390526024810182905260009081906001600160a01b03861690632a55205a90604401604080518083038186803b15801561210b57600080fd5b505afa92505050801561213b575060408051601f3d908101601f19168201909252612138918101906126f0565b60015b6121445761214a565b90925090505b935093915050565b6001600160a01b03811681146114fe57600080fd5b6000806040838503121561217a57600080fd5b823561218581612152565b946020939093013593505050565b60008083601f8401126121a557600080fd5b50813567ffffffffffffffff8111156121bd57600080fd5b6020830191508360208260051b85010111156121d857600080fd5b9250929050565b6000806000806000606086880312156121f757600080fd5b853561220281612152565b9450602086013567ffffffffffffffff8082111561221f57600080fd5b61222b89838a01612193565b9096509450604088013591508082111561224457600080fd5b5061225188828901612193565b969995985093965092949392505050565b60006020828403121561227457600080fd5b813561227f81612152565b9392505050565b60008060006060848603121561229b57600080fd5b83356122a681612152565b95602085013595506040909401359392505050565b6020808252600e908201526d1499595b9d1c985b9d0818d85b1b60921b604082015260600190565b6001600160a01b03929092168252602082015260400190565b634e487b7160e01b600052604160045260246000fd5b604051610180810167ffffffffffffffff81118282101715612336576123366122fc565b60405290565b6040805190810167ffffffffffffffff81118282101715612336576123366122fc565b604051601f8201601f1916810167ffffffffffffffff81118282101715612388576123886122fc565b604052919050565b805161239b81612152565b919050565b8051801515811461239b57600080fd5b600061018082840312156123c357600080fd5b6123cb612312565b6123d483612390565b81526123e260208401612390565b60208201526123f360408401612390565b6040820152606083015160608201526080830151608082015260a083015160a082015260c083015160c082015260e083015160e08201526101006124388185016123a0565b9082015261012061244a8482016123a0565b9082015261014061245c848201612390565b9082015261016061246e8482016123a0565b908201529392505050565b60208082526010908201526f151bdad95b881b9bdd081b1a5cdd195960821b604082015260600190565b600060c082840312156124b557600080fd5b60405160c0810181811067ffffffffffffffff821117156124d8576124d86122fc565b8060405250825181526020830151602082015260408301516040820152606083015161250381612152565b60608201526080838101519082015261251e60a084016123a0565b60a08201529392505050565b634e487b7160e01b600052603260045260246000fd5b634e487b7160e01b600052601160045260246000fd5b6000821982111561256957612569612540565b500190565b600060001982141561258257612582612540565b5060010190565b60006101008201905060018060a01b0380861683528460208401528351604084015260208401516060840152604084015160808401528060608501511660a084015250608083015160c083015260a0830151151560e0830152949350505050565b600060208083850312156125fd57600080fd5b825167ffffffffffffffff8082111561261557600080fd5b818501915085601f83011261262957600080fd5b81518181111561263b5761263b6122fc565b612649848260051b0161235f565b818152848101925060069190911b83018401908782111561266957600080fd5b928401925b818410156126b557604084890312156126875760008081fd5b61268f61233c565b845161269a81612152565b8152848601518682015283526040909301929184019161266e565b979650505050505050565b6000828210156126d2576126d2612540565b500390565b6000602082840312156126e957600080fd5b5051919050565b6000806040838503121561270357600080fd5b825161270e81612152565b602093909301519294929350505056fe32eff1bfb84317b72fc67258659433fb15f2547105f2dc1af90191b532c2baa8a2646970667358221220cbbf98d92c438dd2091ec35e014497655a32ec1ddac628de854ef8a018f0a76664736f6c63430008090033",
  "linkReferences": {},
  "deployedLinkReferences": {}
}