{
  "_format": "hh-sol-artifact-1",
  "contractName": "EscrowStorage",
  "sourceName": "contracts/EscrowStorage.sol",
  "abi": [
    {
      "inputs": [
        {
          "internalType": "address",
          "name": "_doArtContract",
          "type": "address"
        }
      ],
      "stateMutability": "nonpayable",
      "type": "constructor"
    },
    {
      "anonymous": false,
      "inputs": [
        {
          "indexed": true,
          "internalType": "address",
          "name": "nftContract",
          "type": "address"
        },
        {
          "indexed": true,
          "internalType": "uint256",
          "name": "tokenId",
          "type": "uint256"
        }
      ],
      "name": "AuctionChanged",
      "type": "event"
    },
    {
      "anonymous": false,
      "inputs": [
        {
          "indexed": true,
          "internalType": "address",
          "name": "nftContract",
          "type": "address"
        },
        {
          "indexed": true,
          "internalType": "uint256",
          "name": "tokenId",
          "type": "uint256"
        }
      ],
      "name": "BidChanged",
      "type": "event"
    },
    {
      "anonymous": false,
      "inputs": [
        {
          "indexed": true,
          "internalType": "address",
          "name": "nftContract",
          "type": "address"
        },
        {
          "indexed": true,
          "internalType": "uint256",
          "name": "tokenId",
          "type": "uint256"
        }
      ],
      "name": "ListingChanged",
      "type": "event"
    },
    {
      "anonymous": false,
      "inputs": [
        {
          "indexed": true,
          "internalType": "bytes32",
          "name": "role",
          "type": "bytes32"
        },
        {
          "indexed": true,
          "internalType": "bytes32",
          "name": "previousAdminRole",
          "type": "bytes32"
        },
        {
          "indexed": true,
          "internalType": "bytes32",
          "name": "newAdminRole",
          "type": "bytes32"
        }
      ],
      "name": "RoleAdminChanged",
      "type": "event"
    },
    {
      "anonymous": false,
      "inputs": [
        {
          "indexed": true,
          "internalType": "bytes32",
          "name": "role",
          "type": "bytes32"
        },
        {
          "indexed": true,
          "internalType": "address",
          "name": "account",
          "type": "address"
        },
        {
          "indexed": true,
          "internalType": "address",
          "name": "sender",
          "type": "address"
        }
      ],
      "name": "RoleGranted",
      "type": "event"
    },
    {
      "anonymous": false,
      "inputs": [
        {
          "indexed": true,
          "internalType": "bytes32",
          "name": "role",
          "type": "bytes32"
        },
        {
          "indexed": true,
          "internalType": "address",
          "name": "account",
          "type": "address"
        },
        {
          "indexed": true,
          "internalType": "address",
          "name": "sender",
          "type": "address"
        }
      ],
      "name": "RoleRevoked",
      "type": "event"
    },
    {
      "inputs": [],
      "name": "ADMIN_ROLE",
      "outputs": [
        {
          "internalType": "bytes32",
          "name": "",
          "type": "bytes32"
        }
      ],
      "stateMutability": "view",
      "type": "function"
    },
    {
      "inputs": [],
      "name": "ANTI_SNIPING_EXTENSION",
      "outputs": [
        {
          "internalType": "uint256",
          "name": "",
          "type": "uint256"
        }
      ],
      "stateMutability": "view",
      "type": "function"
    },
    {
      "inputs": [],
      "name": "ANTI_SNIPING_WINDOW",
      "outputs": [
        {
          "internalType": "uint256",
          "name": "",
          "type": "uint256"
        }
      ],
      "stateMutability": "view",
      "type": "function"
    },
    {
      "inputs": [],
      "name": "DEFAULT_ADMIN_ROLE",
      "outputs": [
        {
          "internalType": "bytes32",
          "name": "",
          "type": "bytes32"
        }
      ],
      "stateMutability": "view",
      "type": "function"
    },
    {
      "inputs": [],
      "name": "DEFAULT_VIEWING_PERIOD",
      "outputs": [
        {
          "internalType": "uint256",
          "name": "",
          "type": "uint256"
        }
      ],
      "stateMutability": "view",
      "type": "function"
    },
    {
      "inputs": [
        {
          "internalType": "address",
          "name": "",
          "type": "address"
        },
        {
          "internalType": "uint256",
          "name": "",
          "type": "uint256"
        }
      ],
      "name": "auctions",
      "outputs": [
        {
          "internalType": "uint256",
          "name": "endTime",
          "type": "uint256"
        },
        {
          "internalType": "uint256",
          "name": "minBid",
          "type": "uint256"
        },
        {
          "internalType": "uint256",
          "name": "minIncrement",
          "type": "uint256"
        },
        {
          "internalType": "address",
          "name": "highestBidder",
          "type": "address"
        },
        {
          "internalType": "uint256",
          "name": "highestBid",
          "type": "uint256"
        },
        {
          "internalType": "bool",
          "name": "isActive",
          "type": "bool"
        }
      ],
      "stateMutability": "view",
      "type": "function"
    },
    {
      "inputs": [
        {
          "internalType": "address",
          "name": "",
          "type": "address"
        },
        {
          "internalType": "uint256",
          "name": "",
          "type": "uint256"
        },
        {
          "internalType": "uint256",
          "name": "",
          "type": "uint256"
        }
      ],
      "name": "bids",
      "outputs": [
        {
          "internalType": "address",
          "name": "bidder",
          "type": "address"
        },
        {
          "internalType": "uint256",
          "name": "amount",
          "type": "uint256"
        }
      ],
      "stateMutability": "view",
      "type": "function"
    },
    {
      "inputs": [
        {
          "internalType": "address",
          "name": "nftContract",
          "type": "address"
        },
        {
          "internalType": "uint256",
          "name": "tokenId",
          "type": "uint256"
        }
      ],
      "name": "deleteAuction",
      "outputs": [],
      "stateMutability": "nonpayable",
      "type": "function"
    },
    {
      "inputs": [
        {
          "internalType": "address",
          "name": "nftContract",
          "type": "address"
        },
        {
          "internalType": "uint256",
          "name": "tokenId",
          "type": "uint256"
        }
      ],
      "name": "deleteBids",
      "outputs": [],
      "stateMutability": "nonpayable",
      "type": "function"
    },
    {
      "inputs": [
        {
          "internalType": "address",
          "name": "nftContract",
          "type": "address"
        },
        {
          "internalType": "uint256",
          "name": "tokenId",
          "type": "uint256"
        }
      ],
      "name": "deleteListing",
      "outputs": [],
      "stateMutability": "nonpayable",
      "type": "function"
    },
    {
      "inputs": [],
      "name": "doArt",
      "outputs": [
        {
          "internalType": "contract IDoArt",
          "name": "",
          "type": "address"
        }
      ],
      "stateMutability": "view",
      "type": "function"
    },
    {
      "inputs": [
        {
          "internalType": "address",
          "name": "nftContract",
          "type": "address"
        },
        {
          "internalType": "uint256",
          "name": "tokenId",
          "type": "uint256"
        }
      ],
      "name": "getAuction",
      "outputs": [
        {
          "components": [
            {
              "internalType": "uint256",
              "name": "endTime",
              "type": "uint256"
            },
            {
              "internalType": "uint256",
              "name": "minBid",
              "type": "uint256"
            },
            {
              "internalType": "uint256",
              "name": "minIncrement",
              "type": "uint256"
            },
            {
              "internalType": "address",
              "name": "highestBidder",
              "type": "address"
            },
            {
              "internalType": "uint256",
              "name": "highestBid",
              "type": "uint256"
            },
            {
              "internalType": "bool",
              "name": "isActive",
              "type": "bool"
            }
          ],
          "internalType": "struct EscrowStorage.Auction",
          "name": "",
          "type": "tuple"
        }
      ],
      "stateMutability": "view",
      "type": "function"
    },
    {
      "inputs": [
        {
          "internalType": "address",
          "name": "nftContract",
          "type": "address"
        },
        {
          "internalType": "uint256",
          "name": "tokenId",
          "type": "uint256"
        }
      ],
      "name": "getBids",
      "outputs": [
        {
          "components": [
            {
              "internalType": "address",
              "name": "bidder",
              "type": "address"
            },
            {
              "internalType": "uint256",
              "name": "amount",
              "type": "uint256"
            }
          ],
          "internalType": "struct EscrowStorage.Bid[]",
          "name": "",
          "type": "tuple[]"
        }
      ],
      "stateMutability": "view",
      "type": "function"
    },
    {
      "inputs": [
        {
          "internalType": "address",
          "name": "nftContract",
          "type": "address"
        },
        {
          "internalType": "uint256",
          "name": "tokenId",
          "type": "uint256"
        }
      ],
      "name": "getListing",
      "outputs": [
        {
          "components": [
            {
              "internalType": "address",
              "name": "nftContract",
              "type": "address"
            },
            {
              "internalType": "address",
              "name": "seller",
              "type": "address"
            },
            {
              "internalType": "address",
              "name": "buyer",
              "type": "address"
            },
            {
              "internalType": "uint256",
              "name": "price",
              "type": "uint256"
            },
            {
              "internalType": "uint256",
              "name": "minBid",
              "type": "uint256"
            },
            {
              "internalType": "uint256",
              "name": "escrowAmount",
              "type": "uint256"
            },
            {
              "internalType": "uint256",
              "name": "buyerDeposit",
              "type": "uint256"
            },
            {
              "internalType": "uint256",
              "name": "viewingPeriodEnd",
              "type": "uint256"
            },
            {
              "internalType": "bool",
              "name": "isListed",
              "type": "bool"
            },
            {
              "internalType": "bool",
              "name": "isApproved",
              "type": "bool"
            },
            {
              "internalType": "address",
              "name": "saleApprover",
              "type": "address"
            },
            {
              "internalType": "bool",
              "name": "isAuction",
              "type": "bool"
            }
          ],
          "internalType": "struct EscrowStorage.Listing",
          "name": "",
          "type": "tuple"
        }
      ],
      "stateMutability": "view",
      "type": "function"
    },
    {
      "inputs": [
        {
          "internalType": "bytes32",
          "name": "role",
          "type": "bytes32"
        }
      ],
      "name": "getRoleAdmin",
      "outputs": [
        {
          "internalType": "bytes32",
          "name": "",
          "type": "bytes32"
        }
      ],
      "stateMutability": "view",
      "type": "function"
    },
    {
      "inputs": [],
      "name": "getTotalNfts",
      "outputs": [
        {
          "internalType": "uint256",
          "name": "",
          "type": "uint256"
        }
      ],
      "stateMutability": "view",
      "type": "function"
    },
    {
      "inputs": [
        {
          "internalType": "address",
          "name": "nftContract",
          "type": "address"
        },
        {
          "internalType": "uint256",
          "name": "tokenId",
          "type": "uint256"
        }
      ],
      "name": "getVoucherRedeemed",
      "outputs": [
        {
          "internalType": "bool",
          "name": "",
          "type": "bool"
        }
      ],
      "stateMutability": "view",
      "type": "function"
    },
    {
      "inputs": [
        {
          "internalType": "bytes32",
          "name": "role",
          "type": "bytes32"
        },
        {
          "internalType": "address",
          "name": "account",
          "type": "address"
        }
      ],
      "name": "grantRole",
      "outputs": [],
      "stateMutability": "nonpayable",
      "type": "function"
    },
    {
      "inputs": [
        {
          "internalType": "bytes32",
          "name": "role",
          "type": "bytes32"
        },
        {
          "internalType": "address",
          "name": "account",
          "type": "address"
        }
      ],
      "name": "hasRole",
      "outputs": [
        {
          "internalType": "bool",
          "name": "",
          "type": "bool"
        }
      ],
      "stateMutability": "view",
      "type": "function"
    },
    {
      "inputs": [
        {
          "internalType": "address",
          "name": "",
          "type": "address"
        },
        {
          "internalType": "uint256",
          "name": "",
          "type": "uint256"
        }
      ],
      "name": "listings",
      "outputs": [
        {
          "internalType": "address",
          "name": "nftContract",
          "type": "address"
        },
        {
          "internalType": "address",
          "name": "seller",
          "type": "address"
        },
        {
          "internalType": "address",
          "name": "buyer",
          "type": "address"
        },
        {
          "internalType": "uint256",
          "name": "price",
          "type": "uint256"
        },
        {
          "internalType": "uint256",
          "name": "minBid",
          "type": "uint256"
        },
        {
          "internalType": "uint256",
          "name": "escrowAmount",
          "type": "uint256"
        },
        {
          "internalType": "uint256",
          "name": "buyerDeposit",
          "type": "uint256"
        },
        {
          "internalType": "uint256",
          "name": "viewingPeriodEnd",
          "type": "uint256"
        },
        {
          "internalType": "bool",
          "name": "isListed",
          "type": "bool"
        },
        {
          "internalType": "bool",
          "name": "isApproved",
          "type": "bool"
        },
        {
          "internalType": "address",
          "name": "saleApprover",
          "type": "address"
        },
        {
          "internalType": "bool",
          "name": "isAuction",
          "type": "bool"
        }
      ],
      "stateMutability": "view",
      "type": "function"
    },
    {
      "inputs": [
        {
          "internalType": "address",
          "name": "nftContract",
          "type": "address"
        },
        {
          "internalType": "uint256",
          "name": "tokenId",
          "type": "uint256"
        },
        {
          "components": [
            {
              "internalType": "address",
              "name": "bidder",
              "type": "address"
            },
            {
              "internalType": "uint256",
              "name": "amount",
              "type": "uint256"
            }
          ],
          "internalType": "struct EscrowStorage.Bid",
          "name": "bid",
          "type": "tuple"
        }
      ],
      "name": "pushBid",
      "outputs": [],
      "stateMutability": "nonpayable",
      "type": "function"
    },
    {
      "inputs": [
        {
          "internalType": "bytes32",
          "name": "role",
          "type": "bytes32"
        },
        {
          "internalType": "address",
          "name": "account",
          "type": "address"
        }
      ],
      "name": "renounceRole",
      "outputs": [],
      "stateMutability": "nonpayable",
      "type": "function"
    },
    {
      "inputs": [
        {
          "internalType": "bytes32",
          "name": "role",
          "type": "bytes32"
        },
        {
          "internalType": "address",
          "name": "account",
          "type": "address"
        }
      ],
      "name": "revokeRole",
      "outputs": [],
      "stateMutability": "nonpayable",
      "type": "function"
    },
    {
      "inputs": [
        {
          "internalType": "address",
          "name": "nftContract",
          "type": "address"
        },
        {
          "internalType": "uint256",
          "name": "tokenId",
          "type": "uint256"
        },
        {
          "components": [
            {
              "internalType": "uint256",
              "name": "endTime",
              "type": "uint256"
            },
            {
              "internalType": "uint256",
              "name": "minBid",
              "type": "uint256"
            },
            {
              "internalType": "uint256",
              "name": "minIncrement",
              "type": "uint256"
            },
            {
              "internalType": "address",
              "name": "highestBidder",
              "type": "address"
            },
            {
              "internalType": "uint256",
              "name": "highestBid",
              "type": "uint256"
            },
            {
              "internalType": "bool",
              "name": "isActive",
              "type": "bool"
            }
          ],
          "internalType": "struct EscrowStorage.Auction",
          "name": "auction",
          "type": "tuple"
        }
      ],
      "name": "setAuction",
      "outputs": [],
      "stateMutability": "nonpayable",
      "type": "function"
    },
    {
      "inputs": [
        {
          "internalType": "address",
          "name": "nftContract",
          "type": "address"
        },
        {
          "internalType": "uint256",
          "name": "tokenId",
          "type": "uint256"
        },
        {
          "components": [
            {
              "internalType": "address",
              "name": "nftContract",
              "type": "address"
            },
            {
              "internalType": "address",
              "name": "seller",
              "type": "address"
            },
            {
              "internalType": "address",
              "name": "buyer",
              "type": "address"
            },
            {
              "internalType": "uint256",
              "name": "price",
              "type": "uint256"
            },
            {
              "internalType": "uint256",
              "name": "minBid",
              "type": "uint256"
            },
            {
              "internalType": "uint256",
              "name": "escrowAmount",
              "type": "uint256"
            },
            {
              "internalType": "uint256",
              "name": "buyerDeposit",
              "type": "uint256"
            },
            {
              "internalType": "uint256",
              "name": "viewingPeriodEnd",
              "type": "uint256"
            },
            {
              "internalType": "bool",
              "name": "isListed",
              "type": "bool"
            },
            {
              "internalType": "bool",
              "name": "isApproved",
              "type": "bool"
            },
            {
              "internalType": "address",
              "name": "saleApprover",
              "type": "address"
            },
            {
              "internalType": "bool",
              "name": "isAuction",
              "type": "bool"
            }
          ],
          "internalType": "struct EscrowStorage.Listing",
          "name": "listing",
          "type": "tuple"
        }
      ],
      "name": "setListing",
      "outputs": [],
      "stateMutability": "nonpayable",
      "type": "function"
    },
    {
      "inputs": [
        {
          "internalType": "address",
          "name": "nftContract",
          "type": "address"
        },
        {
          "internalType": "uint256",
          "name": "tokenId",
          "type": "uint256"
        },
        {
          "internalType": "bool",
          "name": "redeemed",
          "type": "bool"
        }
      ],
      "name": "setVoucherRedeemed",
      "outputs": [],
      "stateMutability": "nonpayable",
      "type": "function"
    },
    {
      "inputs": [
        {
          "internalType": "bytes4",
          "name": "interfaceId",
          "type": "bytes4"
        }
      ],
      "name": "supportsInterface",
      "outputs": [
        {
          "internalType": "bool",
          "name": "",
          "type": "bool"
        }
      ],
      "stateMutability": "view",
      "type": "function"
    },
    {
      "inputs": [
        {
          "internalType": "address",
          "name": "",
          "type": "address"
        },
        {
          "internalType": "uint256",
          "name": "",
          "type": "uint256"
        }
      ],
      "name": "voucherRedeemed",
      "outputs": [
        {
          "internalType": "bool",
          "name": "",
          "type": "bool"
        }
      ],
      "stateMutability": "view",
      "type": "function"
    }
  ],
  "bytecode": "0x60806040523480156200001157600080fd5b5060405162001b0038038062001b00833981016040819052620000349162000134565b6200004160003362000093565b6200006d7fa49807205ce4d355092ef5a8a18f56e8913cf4a201fbe287825b095693c217753362000093565b600580546001600160a01b0319166001600160a01b039290921691909117905562000166565b6000828152602081815260408083206001600160a01b038516845290915290205460ff1662000130576000828152602081815260408083206001600160a01b03851684529091529020805460ff19166001179055620000ef3390565b6001600160a01b0316816001600160a01b0316837f2f8788117e7eff1d82e926ec794901d17c78024a50270940304540a733656f0d60405160405180910390a45b5050565b6000602082840312156200014757600080fd5b81516001600160a01b03811681146200015f57600080fd5b9392505050565b61198a80620001766000396000f3fe608060405234801561001057600080fd5b50600436106101c35760003560e01c806375b238fc116100f95780639ffd36b011610097578063b5f38dce11610071578063b5f38dce14610708578063b8912efc14610728578063d547741f14610731578063ebb3964a1461074457600080fd5b80639ffd36b0146106bf578063a217fddf146106c7578063a59ef80a146106cf57600080fd5b806381c9db11116100d357806381c9db111461053057806388700d1c1461055e57806391d14854146106a25780639faf1e3f146106b557600080fd5b806375b238fc1461048b578063762a66a2146104a0578063811651ef1461050557600080fd5b80632b0540641161016657806336568abe1161014057806336568abe146103a057806344f91c1e146103b357806346d02934146104465780634fe5d9851461047857600080fd5b80632b054064146103675780632f2ff15d1461037a5780633652a4a11461038d57600080fd5b8063114048ea116101a2578063114048ea14610309578063248a9ca31461031e57806328142ed31461034157806329c2cbbc1461035457600080fd5b806207df30146101c857806301ffc9a7146102cf5780630e59a254146102f2575b600080fd5b6102576101d63660046112eb565b600160208181526000938452604080852090915291835291208054918101546002820154600383015460048401546005850154600686015460078701546008909701546001600160a01b03988916989687169795871696949593949293919260ff8083169261010081048216926201000082041691600160b01b909104168c565b604080516001600160a01b039d8e1681529b8d1660208d0152998c16998b019990995260608a0197909752608089019590955260a088019390935260c087019190915260e086015215156101008501521515610120840152909216610140820152901515610160820152610180015b60405180910390f35b6102e26102dd366004611315565b610757565b60405190151581526020016102c6565b6102fb61025881565b6040519081526020016102c6565b61031c6103173660046113be565b61078e565b005b6102fb61032c366004611451565b60009081526020819052604090206001015490565b61031c61034f36600461147a565b610831565b61031c6103623660046112eb565b61087f565b61031c6103753660046112eb565b61091d565b61031c6103883660046114b6565b61099c565b61031c61039b3660046114e2565b6109c6565b61031c6103ae3660046114b6565b610b10565b61040e6103c13660046112eb565b600360208181526000938452604080852090915291835291208054600182015460028301549383015460048401546005909401549294919391926001600160a01b03909116919060ff1686565b604080519687526020870195909552938501929092526001600160a01b031660608401526080830152151560a082015260c0016102c6565b6104596104543660046115e3565b610b93565b604080516001600160a01b0390931683526020830191909152016102c6565b61031c6104863660046112eb565b610be7565b6102fb60008051602061193583398151915281565b6104b36104ae3660046112eb565b610caa565b6040516102c691908151815260208083015190820152604080830151908201526060808301516001600160a01b0316908201526080808301519082015260a09182015115159181019190915260c00190565b600554610518906001600160a01b031681565b6040516001600160a01b0390911681526020016102c6565b6102e261053e3660046112eb565b600460209081526000928352604080842090915290825290205460ff1681565b61069561056c3660046112eb565b6040805161018081018252600080825260208201819052918101829052606081018290526080810182905260a0810182905260c0810182905260e08101829052610100810182905261012081018290526101408101829052610160810191909152506001600160a01b039182166000908152600160208181526040808420948452938152918390208351610180810185528154861681529181015485169282019290925260028201548416928101929092526003810154606083015260048101546080830152600581015460a0830152600681015460c0830152600781015460e08301526008015460ff808216151561010080850191909152820481161515610120840152620100008204909316610140830152600160b01b9004909116151561016082015290565b6040516102c69190611616565b6102e26106b03660046114b6565b610d5f565b6102fb6203f48081565b6102fb610d88565b6102fb600081565b6102e26106dd3660046112eb565b6001600160a01b03919091166000908152600460209081526040808320938352929052205460ff1690565b61071b6107163660046112eb565b610e0a565b6040516102c691906116db565b6102fb61012c81565b61031c61073f3660046114b6565b610e9e565b61031c610752366004611733565b610ec3565b60006001600160e01b03198216637965db0b60e01b148061078857506301ffc9a760e01b6001600160e01b03198316145b92915050565b6000805160206119358339815191526107a681610f85565b6001600160a01b03848116600081815260026020818152604080842089855282528084208054600180820183559186528386208a519190950290940180546001600160a01b03191694909716939093178655908701519490910193909355915185927f696ab19c9a5fff1fc78fcd7e8b4f8c7d06ccbadaa381a3630be38eba4e8ace9a91a350505050565b60008051602061193583398151915261084981610f85565b506001600160a01b0392909216600090815260046020908152604080832093835292905220805460ff1916911515919091179055565b60008051602061193583398151915261089781610f85565b6001600160a01b0383166000818152600360208181526040808420878552909152808320838155600181018490556002810184905591820180546001600160a01b0319169055600482018390556005909101805460ff19169055518492917f48f338e286bc6cc055c95197931190479610e1788c1a8822f02dcaafeae20f1091a3505050565b60008051602061193583398151915261093581610f85565b6001600160a01b0383166000908152600260209081526040808320858452909152812061096191611289565b60405182906001600160a01b038516907f696ab19c9a5fff1fc78fcd7e8b4f8c7d06ccbadaa381a3630be38eba4e8ace9a90600090a3505050565b6000828152602081905260409020600101546109b781610f85565b6109c18383610f92565b505050565b6000805160206119358339815191526109de81610f85565b6001600160a01b0380851660008181526001602081815260408084208985528252808420885181549088166001600160a01b031991821617825592890151938101805494881694841694909417909355808801516002840180549188169190931617909155606087015160038301556080870151600483015560a0870151600583015560c0870151600683015560e0870151600783015561010080880151600890930180546101208a01516101408b01516101608c01511515600160b01b0260ff60b01b1991909a1662010000021662010000600160b81b031991151590940261ff00199615159690961661ffff1990921691909117949094179390931617949094179055915185927fe5317da7a2a5a513758a425cd8d8926ce3e58f239f2c630a790fc6b038dd3bd091a350505050565b6001600160a01b0381163314610b855760405162461bcd60e51b815260206004820152602f60248201527f416363657373436f6e74726f6c3a2063616e206f6e6c792072656e6f756e636560448201526e103937b632b9903337b91039b2b63360891b60648201526084015b60405180910390fd5b610b8f8282611016565b5050565b60026020528260005260406000206020528160005260406000208181548110610bbb57600080fd5b6000918252602090912060029091020180546001909101546001600160a01b0390911693509150839050565b600080516020611935833981519152610bff81610f85565b6001600160a01b038316600081815260016020818152604080842087855290915280832080546001600160a01b031990811682559281018054841690556002810180549093169092556003820183905560048201839055600582018390556006820183905560078201839055600890910180546001600160b81b0319169055518492917fe5317da7a2a5a513758a425cd8d8926ce3e58f239f2c630a790fc6b038dd3bd091a3505050565b610cee6040518060c0016040528060008152602001600081526020016000815260200160006001600160a01b03168152602001600081526020016000151581525090565b506001600160a01b03918216600090815260036020818152604080842094845293815291839020835160c081018552815481526001820154938101939093526002810154938301939093528201549092166060830152600481015460808301526005015460ff16151560a082015290565b6000918252602082815260408084206001600160a01b0393909316845291905290205460ff1690565b600554604080516318160ddd60e01b815290516000926001600160a01b0316916318160ddd916004808301926020929190829003018186803b158015610dcd57600080fd5b505afa158015610de1573d6000803e3d6000fd5b505050506040513d601f19601f82011682018060405250810190610e0591906117c9565b905090565b6001600160a01b03821660009081526002602090815260408083208484528252808320805482518185028101850190935280835260609492939192909184015b82821015610e92576000848152602090819020604080518082019091526002850290910180546001600160a01b03168252600190810154828401529083529092019101610e4a565b50505050905092915050565b600082815260208190526040902060010154610eb981610f85565b6109c18383611016565b600080516020611935833981519152610edb81610f85565b6001600160a01b038481166000818152600360208181526040808420898552825280842088518155918801516001830155878101516002830155606088015192820180546001600160a01b03191693909616929092179094556080860151600485015560a08601516005909401805460ff191694151594909417909355915185927f48f338e286bc6cc055c95197931190479610e1788c1a8822f02dcaafeae20f1091a350505050565b610f8f813361107b565b50565b610f9c8282610d5f565b610b8f576000828152602081815260408083206001600160a01b03851684529091529020805460ff19166001179055610fd23390565b6001600160a01b0316816001600160a01b0316837f2f8788117e7eff1d82e926ec794901d17c78024a50270940304540a733656f0d60405160405180910390a45050565b6110208282610d5f565b15610b8f576000828152602081815260408083206001600160a01b0385168085529252808320805460ff1916905551339285917ff6391f5c32d9c69d2a47ea670b442974b53935d1edc7fd64eb21e047a839171b9190a45050565b6110858282610d5f565b610b8f57611092816110d4565b61109d8360206110e6565b6040516020016110ae929190611812565b60408051601f198184030181529082905262461bcd60e51b8252610b7c91600401611887565b60606107886001600160a01b03831660145b606060006110f58360026118d0565b6111009060026118ef565b67ffffffffffffffff8111156111185761111861133f565b6040519080825280601f01601f191660200182016040528015611142576020820181803683370190505b509050600360fc1b8160008151811061115d5761115d611907565b60200101906001600160f81b031916908160001a905350600f60fb1b8160018151811061118c5761118c611907565b60200101906001600160f81b031916908160001a90535060006111b08460026118d0565b6111bb9060016118ef565b90505b6001811115611233576f181899199a1a9b1b9c1cb0b131b232b360811b85600f16601081106111ef576111ef611907565b1a60f81b82828151811061120557611205611907565b60200101906001600160f81b031916908160001a90535060049490941c9361122c8161191d565b90506111be565b5083156112825760405162461bcd60e51b815260206004820181905260248201527f537472696e67733a20686578206c656e67746820696e73756666696369656e746044820152606401610b7c565b9392505050565b5080546000825560020290600052602060002090810190610f8f91905b808211156112cb5780546001600160a01b0319168155600060018201556002016112a6565b5090565b80356001600160a01b03811681146112e657600080fd5b919050565b600080604083850312156112fe57600080fd5b611307836112cf565b946020939093013593505050565b60006020828403121561132757600080fd5b81356001600160e01b03198116811461128257600080fd5b634e487b7160e01b600052604160045260246000fd5b604051610180810167ffffffffffffffff8111828210171561138757634e487b7160e01b600052604160045260246000fd5b60405290565b60405160c0810167ffffffffffffffff8111828210171561138757634e487b7160e01b600052604160045260246000fd5b600080600083850360808112156113d457600080fd5b6113dd856112cf565b9350602085013592506040603f19820112156113f857600080fd5b506040516040810181811067ffffffffffffffff8211171561142a57634e487b7160e01b600052604160045260246000fd5b806040525061143b604086016112cf565b8152606094909401356020850152509093909250565b60006020828403121561146357600080fd5b5035919050565b803580151581146112e657600080fd5b60008060006060848603121561148f57600080fd5b611498846112cf565b9250602084013591506114ad6040850161146a565b90509250925092565b600080604083850312156114c957600080fd5b823591506114d9602084016112cf565b90509250929050565b60008060008385036101c08112156114f957600080fd5b611502856112cf565b93506020850135925061018080603f198301121561151f57600080fd5b611527611355565b9150611535604087016112cf565b8252611543606087016112cf565b6020830152611554608087016112cf565b604083015260a0860135606083015260c0860135608083015260e086013560a08301526101008087013560c08401526101208088013560e085015261014061159d818a0161146a565b8386015261016092506115b1838a0161146a565b828601526115c0848a016112cf565b90850152506115d26101a0880161146a565b818401525050809150509250925092565b6000806000606084860312156115f857600080fd5b611601846112cf565b95602085013595506040909401359392505050565b81516001600160a01b031681526101808101602083015161164260208401826001600160a01b03169052565b50604083015161165d60408401826001600160a01b03169052565b50606083015160608301526080830151608083015260a083015160a083015260c083015160c083015260e083015160e0830152610100808401516116a48285018215159052565b505061012083810151151590830152610140808401516001600160a01b031690830152610160928301511515929091019190915290565b602080825282518282018190526000919060409081850190868401855b8281101561172657815180516001600160a01b031685528601518685015292840192908501906001016116f8565b5091979650505050505050565b600080600083850361010081121561174a57600080fd5b611753856112cf565b93506020850135925060c0603f198201121561176e57600080fd5b5061177761138d565b60408501358152606085013560208201526080850135604082015261179e60a086016112cf565b606082015260c085013560808201526117b960e0860161146a565b60a0820152809150509250925092565b6000602082840312156117db57600080fd5b5051919050565b60005b838110156117fd5781810151838201526020016117e5565b8381111561180c576000848401525b50505050565b7f416363657373436f6e74726f6c3a206163636f756e742000000000000000000081526000835161184a8160178501602088016117e2565b7001034b99036b4b9b9b4b733903937b6329607d1b601791840191820152835161187b8160288401602088016117e2565b01602801949350505050565b60208152600082518060208401526118a68160408501602087016117e2565b601f01601f19169190910160400192915050565b634e487b7160e01b600052601160045260246000fd5b60008160001904831182151516156118ea576118ea6118ba565b500290565b60008219821115611902576119026118ba565b500190565b634e487b7160e01b600052603260045260246000fd5b60008161192c5761192c6118ba565b50600019019056fea49807205ce4d355092ef5a8a18f56e8913cf4a201fbe287825b095693c21775a26469706673582212205c02372ea1b8ad63d6c3a29474ef05266620681619a47082a87a79bbff70971f64736f6c63430008090033",
  "linkReferences": {},
  "deployedLinkReferences": {}
}