{
  "_format": "hh-sol-artifact-1",
  "contractName": "EscrowListings",
  "sourceName": "contracts/EscrowListings.sol",
  "abi": [
    {
      "inputs": [
        {
          "internalType": "address",
          "name": "_storageContract",
          "type": "address"
        },
        {
          "internalType": "address",
          "name": "_escrowAuctions",
          "type": "address"
        }
      ],
      "stateMutability": "nonpayable",
      "type": "constructor"
    },
    {
      "anonymous": false,
      "inputs": [
        {
          "indexed": true,
          "internalType": "address",
          "name": "nftContract",
          "type": "address"
        },
        {
          "indexed": true,
          "internalType": "uint256",
          "name": "tokenId",
          "type": "uint256"
        },
        {
          "indexed": false,
          "internalType": "uint8",
          "name": "actionType",
          "type": "uint8"
        },
        {
          "indexed": true,
          "internalType": "address",
          "name": "user",
          "type": "address"
        },
        {
          "indexed": false,
          "internalType": "uint256",
          "name": "value",
          "type": "uint256"
        }
      ],
      "name": "Action",
      "type": "event"
    },
    {
      "inputs": [
        {
          "internalType": "address",
          "name": "nftContract",
          "type": "address"
        },
        {
          "internalType": "uint256",
          "name": "tokenId",
          "type": "uint256"
        },
        {
          "internalType": "bool",
          "name": "approved",
          "type": "bool"
        }
      ],
      "name": "approveArtwork",
      "outputs": [],
      "stateMutability": "nonpayable",
      "type": "function"
    },
    {
      "inputs": [
        {
          "internalType": "address",
          "name": "nftContract",
          "type": "address"
        },
        {
          "internalType": "uint256",
          "name": "tokenId",
          "type": "uint256"
        }
      ],
      "name": "approveSale",
      "outputs": [],
      "stateMutability": "nonpayable",
      "type": "function"
    },
    {
      "inputs": [
        {
          "internalType": "address",
          "name": "nftContract",
          "type": "address"
        },
        {
          "internalType": "uint256",
          "name": "tokenId",
          "type": "uint256"
        }
      ],
      "name": "cancelSale",
      "outputs": [],
      "stateMutability": "nonpayable",
      "type": "function"
    },
    {
      "inputs": [
        {
          "internalType": "address",
          "name": "nftContract",
          "type": "address"
        },
        {
          "internalType": "uint256",
          "name": "tokenId",
          "type": "uint256"
        }
      ],
      "name": "depositEarnest",
      "outputs": [],
      "stateMutability": "payable",
      "type": "function"
    },
    {
      "inputs": [],
      "name": "escrowAuctions",
      "outputs": [
        {
          "internalType": "address",
          "name": "",
          "type": "address"
        }
      ],
      "stateMutability": "view",
      "type": "function"
    },
    {
      "inputs": [
        {
          "internalType": "address",
          "name": "nftContract",
          "type": "address"
        },
        {
          "internalType": "uint256",
          "name": "tokenId",
          "type": "uint256"
        },
        {
          "internalType": "uint256",
          "name": "additionalTime",
          "type": "uint256"
        }
      ],
      "name": "extendViewingPeriod",
      "outputs": [],
      "stateMutability": "nonpayable",
      "type": "function"
    },
    {
      "inputs": [
        {
          "internalType": "address",
          "name": "nftContract",
          "type": "address"
        },
        {
          "internalType": "uint256",
          "name": "tokenId",
          "type": "uint256"
        }
      ],
      "name": "finalizeSale",
      "outputs": [],
      "stateMutability": "payable",
      "type": "function"
    },
    {
      "inputs": [
        {
          "internalType": "address",
          "name": "nftContract",
          "type": "address"
        },
        {
          "internalType": "uint256",
          "name": "tokenId",
          "type": "uint256"
        },
        {
          "internalType": "address",
          "name": "buyer",
          "type": "address"
        },
        {
          "internalType": "uint256",
          "name": "price",
          "type": "uint256"
        },
        {
          "internalType": "uint256",
          "name": "minBid",
          "type": "uint256"
        },
        {
          "internalType": "uint256",
          "name": "escrowAmount",
          "type": "uint256"
        },
        {
          "internalType": "bool",
          "name": "isAuction",
          "type": "bool"
        },
        {
          "internalType": "uint256",
          "name": "auctionDuration",
          "type": "uint256"
        }
      ],
      "name": "list",
      "outputs": [],
      "stateMutability": "nonpayable",
      "type": "function"
    },
    {
      "inputs": [],
      "name": "storageContract",
      "outputs": [
        {
          "internalType": "contract EscrowStorage",
          "name": "",
          "type": "address"
        }
      ],
      "stateMutability": "view",
      "type": "function"
    },
    {
      "inputs": [
        {
          "internalType": "address",
          "name": "nftContract",
          "type": "address"
        },
        {
          "internalType": "uint256",
          "name": "tokenId",
          "type": "uint256"
        },
        {
          "internalType": "address",
          "name": "to",
          "type": "address"
        }
      ],
      "name": "transferForAuction",
      "outputs": [],
      "stateMutability": "nonpayable",
      "type": "function"
    }
  ],
  "bytecode": "0x60806040523480156200001157600080fd5b5060405162002c8338038062002c83833981016040819052620000349162000083565b600080546001600160a01b039384166001600160a01b03199182161790915560018054929093169116179055620000bb565b80516001600160a01b03811681146200007e57600080fd5b919050565b600080604083850312156200009757600080fd5b620000a28362000066565b9150620000b26020840162000066565b90509250929050565b612bb880620000cb6000396000f3fe6080604052600436106100915760003560e01c80637a746446116100595780637a74644614610147578063c58545fb14610167578063d1c63b161461017a578063f2dee0521461019a578063fdf456c5146101ba57600080fd5b806311ce02671461009657806316f3a95b146100d2578063320d2800146100f457806346433f4f146101075780634e2fb80114610127575b600080fd5b3480156100a257600080fd5b506000546100b6906001600160a01b031681565b6040516001600160a01b03909116815260200160405180910390f35b3480156100de57600080fd5b506100f26100ed36600461246c565b6101da565b005b6100f261010236600461246c565b6106a3565b34801561011357600080fd5b506100f2610122366004612498565b610c7b565b34801561013357600080fd5b506100f261014236600461246c565b610f64565b34801561015357600080fd5b506100f26101623660046124db565b611232565b6100f261017536600461246c565b61155b565b34801561018657600080fd5b506001546100b6906001600160a01b031681565b3480156101a657600080fd5b506100f26101b536600461251d565b6118da565b3480156101c657600080fd5b506100f26101d5366004612554565b611ac3565b600054600160a01b900460ff161561020d5760405162461bcd60e51b8152600401610204906125d0565b60405180910390fd5b6000805460ff60a01b198116600160a01b17825560405163221c034760e21b81526001600160a01b03909116906388700d1c9061025090869086906004016125f8565b6101806040518083038186803b15801561026957600080fd5b505afa15801561027d573d6000803e3d6000fd5b505050506040513d601f19601f820116820180604052508101906102a191906126c0565b90508061010001516102c55760405162461bcd60e51b815260040161020490612789565b80602001516001600160a01b0316336001600160a01b031614806103245750806101600151158015610303575060408101516001600160a01b031615155b8015610324575080604001516001600160a01b0316336001600160a01b0316145b6103705760405162461bcd60e51b815260206004820152601f60248201527f4f6e6c792073656c6c6572206f722062757965722063616e2063616e63656c006044820152606401610204565b806101200151156103c35760405162461bcd60e51b815260206004820152601e60248201527f43616e6e6f742063616e63656c20617070726f76656420617274776f726b00006044820152606401610204565b60008054604051635af9c6e760e11b81526001600160a01b039091169063b5f38dce906103f690879087906004016125f8565b60006040518083038186803b15801561040e57600080fd5b505afa158015610422573d6000803e3d6000fd5b505050506040513d6000823e601f3d908101601f1916820160405261044a91908101906127b3565b905060005b81518110156104de5781818151811061046a5761046a612889565b6020026020010151600001516001600160a01b03166108fc83838151811061049457610494612889565b6020026020010151602001519081150290604051600060405180830381858888f193505050501580156104cb573d6000803e3d6000fd5b50806104d6816128b5565b91505061044f565b50600054604051630ac1501960e21b81526001600160a01b0390911690632b0540649061051190879087906004016125f8565b600060405180830381600087803b15801561052b57600080fd5b505af115801561053f573d6000803e3d6000fd5b5050505060c0820151156105905781604001516001600160a01b03166108fc8360c001519081150290604051600060405180830381858888f1935050505015801561058e573d6000803e3d6000fd5b505b60208201516040516323b872dd60e01b81526001600160a01b038616916323b872dd916105c391309188906004016128d0565b600060405180830381600087803b1580156105dd57600080fd5b505af11580156105f1573d6000803e3d6000fd5b5050600054604051634fe5d98560e01b81526001600160a01b039091169250634fe5d985915061062790879087906004016125f8565b600060405180830381600087803b15801561064157600080fd5b505af1158015610655573d6000803e3d6000fd5b50506040805160078152600060208201523393508692506001600160a01b03881691600080516020612b3f833981519152910160405180910390a450506000805460ff60a01b191690555050565b600054600160a01b900460ff16156106cd5760405162461bcd60e51b8152600401610204906125d0565b6000805460ff60a01b198116600160a01b17825560405163221c034760e21b81526001600160a01b03909116906388700d1c9061071090869086906004016125f8565b6101806040518083038186803b15801561072957600080fd5b505afa15801561073d573d6000803e3d6000fd5b505050506040513d601f19601f8201168201806040525081019061076191906126c0565b90508061010001516107855760405162461bcd60e51b815260040161020490612789565b806101600151156107d85760405162461bcd60e51b815260206004820152601860248201527f43616e6e6f742066696e616c697a652061756374696f6e7300000000000000006044820152606401610204565b8061012001516108215760405162461bcd60e51b8152602060048201526014602482015273105c9d1ddbdc9ac81b9bdd08185c1c1c9bdd995960621b6044820152606401610204565b8060a001518160c00151101561086b5760405162461bcd60e51b815260206004820152600f60248201526e11195c1bdcda5d081b9bdd081b595d608a1b6044820152606401610204565b80606001513410156108b65760405162461bcd60e51b8152602060048201526014602482015273125b9cdd59999a58da595b9d081c185e5b595b9d60621b6044820152606401610204565b6040516331a9108f60e11b81526004810183905230906001600160a01b03851690636352211e9060240160206040518083038186803b1580156108f857600080fd5b505afa15801561090c573d6000803e3d6000fd5b505050506040513d601f19601f8201168201806040525081019061093091906128f4565b6001600160a01b03161461097c5760405162461bcd60e51b8152602060048201526013602482015272546f6b656e206e6f7420696e20657363726f7760681b6044820152606401610204565b60408101516001600160a01b031615806109ab575080604001516001600160a01b0316336001600160a01b0316145b6109c75760405162461bcd60e51b815260040161020490612918565b6101408101516001600160a01b0316610a165760405162461bcd60e51b815260206004820152601160248201527014d85b19481b9bdd08185c1c1c9bdd9959607a1b6044820152606401610204565b60408101516000906001600160a01b0316610a315733610a37565b81604001515b9050600080610a4b86868660600151611c45565b915091506000818560600151610a619190612947565b90508115610adb576040516001600160a01b0384169083156108fc029084906000818181858888f19350505050158015610a9f573d6000803e3d6000fd5b506040805160028152602081018490526001600160a01b03808616928992918b1691600080516020612b3f833981519152910160405180910390a45b84602001516001600160a01b03166108fc829081150290604051600060405180830381858888f19350505050158015610b18573d6000803e3d6000fd5b506040516323b872dd60e01b81526001600160a01b038816906323b872dd90610b4990309088908b906004016128d0565b600060405180830381600087803b158015610b6357600080fd5b505af1158015610b77573d6000803e3d6000fd5b5050505060c085015115610bc05760c08501516040516001600160a01b0386169180156108fc02916000818181858888f19350505050158015610bbe573d6000803e3d6000fd5b505b600054604051634fe5d98560e01b81526001600160a01b0390911690634fe5d98590610bf2908a908a906004016125f8565b600060405180830381600087803b158015610c0c57600080fd5b505af1158015610c20573d6000803e3d6000fd5b5050506060860151604080516002815260208101929092526001600160a01b0380881693508992908b1691600080516020612b3f83398151915291015b60405180910390a450506000805460ff60a01b191690555050505050565b6000805460405163221c034760e21b81528592859290916001600160a01b03909116906388700d1c90610cb490869086906004016125f8565b6101806040518083038186803b158015610ccd57600080fd5b505afa158015610ce1573d6000803e3d6000fd5b505050506040513d601f19601f82011682018060405250810190610d0591906126c0565b905080602001516001600160a01b0316336001600160a01b031614610d5a5760405162461bcd60e51b815260206004820152600b60248201526a27b7363c9039b2b63632b960a91b6044820152606401610204565b6000805460405163221c034760e21b81526001600160a01b03909116906388700d1c90610d8d908a908a906004016125f8565b6101806040518083038186803b158015610da657600080fd5b505afa158015610dba573d6000803e3d6000fd5b505050506040513d601f19601f82011682018060405250810190610dde91906126c0565b9050806101000151610e025760405162461bcd60e51b815260040161020490612789565b80610160015115610e4e5760405162461bcd60e51b815260206004820152601660248201527543616e6e6f7420657874656e642061756374696f6e7360501b6044820152606401610204565b60008511610e9e5760405162461bcd60e51b815260206004820152601b60248201527f4164646974696f6e616c2074696d65206d757374206265203e203000000000006044820152606401610204565b60e08101805182918791610eb390839061295e565b905250600054604051633652a4a160e01b81526001600160a01b0390911690633652a4a190610eea908b908b908690600401612976565b600060405180830381600087803b158015610f0457600080fd5b505af1158015610f18573d6000803e3d6000fd5b50505060e08201516040805160088152602081019290925233925089916001600160a01b038c1691600080516020612b3f83398151915291015b60405180910390a45050505050505050565b6000805460405163221c034760e21b81526001600160a01b03909116906388700d1c90610f9790869086906004016125f8565b6101806040518083038186803b158015610fb057600080fd5b505afa158015610fc4573d6000803e3d6000fd5b505050506040513d601f19601f82011682018060405250810190610fe891906126c0565b905080610100015161100c5760405162461bcd60e51b815260040161020490612789565b806101600151156110595760405162461bcd60e51b815260206004820152601760248201527643616e6e6f7420617070726f76652061756374696f6e7360481b6044820152606401610204565b80602001516001600160a01b0316336001600160a01b031614806110a9575060408101516001600160a01b0316158015906110a9575080604001516001600160a01b0316336001600160a01b0316145b6110f55760405162461bcd60e51b815260206004820181905260248201527f4f6e6c792073656c6c6572206f722062757965722063616e20617070726f76656044820152606401610204565b80610120015161113e5760405162461bcd60e51b8152602060048201526014602482015273105c9d1ddbdc9ac81b9bdd08185c1c1c9bdd995960621b6044820152606401610204565b8060a001518160c0015110156111885760405162461bcd60e51b815260206004820152600f60248201526e11195c1bdcda5d081b9bdd081b595d608a1b6044820152606401610204565b33610140820152600054604051633652a4a160e01b815282916001600160a01b031690633652a4a1906111c390879087908690600401612976565b600060405180830381600087803b1580156111dd57600080fd5b505af11580156111f1573d6000803e3d6000fd5b50506040805160068152600160208201523393508692506001600160a01b03881691600080516020612b3f833981519152910160405180910390a450505050565b6000805460405163221c034760e21b81528592859290916001600160a01b03909116906388700d1c9061126b90869086906004016125f8565b6101806040518083038186803b15801561128457600080fd5b505afa158015611298573d6000803e3d6000fd5b505050506040513d601f19601f820116820180604052508101906112bc91906126c0565b60408101519091506001600160a01b031615806112ee575080604001516001600160a01b0316336001600160a01b0316145b61130a5760405162461bcd60e51b815260040161020490612918565b6000805460405163221c034760e21b81526001600160a01b03909116906388700d1c9061133d908a908a906004016125f8565b6101806040518083038186803b15801561135657600080fd5b505afa15801561136a573d6000803e3d6000fd5b505050506040513d601f19601f8201168201806040525081019061138e91906126c0565b90508061010001516113b25760405162461bcd60e51b815260040161020490612789565b806101600151156113ff5760405162461bcd60e51b815260206004820152601760248201527643616e6e6f7420617070726f76652061756374696f6e7360481b6044820152606401610204565b8060e0015142111561144a5760405162461bcd60e51b8152602060048201526014602482015273159a595dda5b99c81c195c9a5bd908195b99195960621b6044820152606401610204565b8061012001511561149d5760405162461bcd60e51b815260206004820152601860248201527f417274776f726b20616c726561647920617070726f76656400000000000000006044820152606401610204565b841515610120820152600054604051633652a4a160e01b815282916001600160a01b031690633652a4a1906114da908b908b908690600401612976565b600060405180830381600087803b1580156114f457600080fd5b505af1158015611508573d6000803e3d6000fd5b50505050336001600160a01b031687896001600160a01b0316600080516020612b3f83398151915260068a61153e576000611541565b60015b6040805160ff938416815292909116602083015201610f52565b600054600160a01b900460ff16156115855760405162461bcd60e51b8152600401610204906125d0565b6000805460ff60a01b198116600160a01b17825560405163221c034760e21b81528492849290916001600160a01b03909116906388700d1c906115ce90869086906004016125f8565b6101806040518083038186803b1580156115e757600080fd5b505afa1580156115fb573d6000803e3d6000fd5b505050506040513d601f19601f8201168201806040525081019061161f91906126c0565b60408101519091506001600160a01b03161580611651575080604001516001600160a01b0316336001600160a01b0316145b61166d5760405162461bcd60e51b815260040161020490612918565b6000805460405163221c034760e21b81526001600160a01b03909116906388700d1c906116a090899089906004016125f8565b6101806040518083038186803b1580156116b957600080fd5b505afa1580156116cd573d6000803e3d6000fd5b505050506040513d601f19601f820116820180604052508101906116f191906126c0565b90508061010001516117155760405162461bcd60e51b815260040161020490612789565b806101600151156117685760405162461bcd60e51b815260206004820152601b60248201527f43616e6e6f74206465706f73697420666f722061756374696f6e7300000000006044820152606401610204565b600034116117ae5760405162461bcd60e51b815260206004820152601360248201527204465706f736974206d757374206265203e203606c1b6044820152606401610204565b8060a00151348260c001516117c3919061295e565b11156118115760405162461bcd60e51b815260206004820152601d60248201527f4465706f736974206578636565647320657363726f7720616d6f756e740000006044820152606401610204565b604081015181906001600160a01b031661182c573360408201525b348160c00181815161183e919061295e565b905250600054604051633652a4a160e01b81526001600160a01b0390911690633652a4a190611875908a908a908690600401612976565b600060405180830381600087803b15801561188f57600080fd5b505af11580156118a3573d6000803e3d6000fd5b505060408051600581523460208201523393508992506001600160a01b038b1691600080516020612b3f8339815191529101610c5d565b6119196040518060400160405280602081526020017f7472616e73666572466f7241756374696f6e3a206d73672e73656e646572203d81525033611cd7565b611946604051806060016040528060248152602001612b5f602491396001546001600160a01b0316611cd7565b6001546001600160a01b031633146119965760405162461bcd60e51b81526020600482015260136024820152724f6e6c7920457363726f7741756374696f6e7360681b6044820152606401610204565b6040516331a9108f60e11b81526004810183905230906001600160a01b03851690636352211e9060240160206040518083038186803b1580156119d857600080fd5b505afa1580156119ec573d6000803e3d6000fd5b505050506040513d601f19601f82011682018060405250810190611a1091906128f4565b6001600160a01b031614611a5c5760405162461bcd60e51b8152602060048201526013602482015272546f6b656e206e6f7420696e20657363726f7760681b6044820152606401610204565b6040516323b872dd60e01b81526001600160a01b038416906323b872dd90611a8c903090859087906004016128d0565b600060405180830381600087803b158015611aa657600080fd5b505af1158015611aba573d6000803e3d6000fd5b50505050505050565b600054600160a01b900460ff1615611aed5760405162461bcd60e51b8152600401610204906125d0565b6000805460ff60a01b1916600160a01b179055611b0e888888888888611d20565b6040516323b872dd60e01b81526001600160a01b038916906323b872dd90611b3e90339030908c906004016128d0565b600060405180830381600087803b158015611b5857600080fd5b505af1158015611b6c573d6000803e3d6000fd5b50505050611b7f8888888888888861214b565b8115611bf75760015460405163095ea7b360e01b81526001600160a01b038a81169263095ea7b392611bb992909116908b906004016125f8565b600060405180830381600087803b158015611bd357600080fd5b505af1158015611be7573d6000803e3d6000fd5b50505050611bf7888886846122d5565b604080516001815260208101879052339189916001600160a01b038c1691600080516020612b3f833981519152910160405180910390a450506000805460ff60a01b19169055505050505050565b60405163152a902d60e11b8152600481018390526024810182905260009081906001600160a01b03861690632a55205a90604401604080518083038186803b158015611c9057600080fd5b505afa925050508015611cc0575060408051601f3d908101601f19168201909252611cbd91810190612a52565b60015b611cc957611ccf565b90925090505b935093915050565b611d1c8282604051602401611ced929190612a80565b60408051601f198184030181529190526020810180516001600160e01b031663319af33360e01b17905261242a565b5050565b6001600160a01b038616611d6d5760405162461bcd60e51b8152602060048201526014602482015273125b9d985b1a59081391950818dbdb9d1c9858dd60621b6044820152606401610204565b6000831180611d7c5750600082115b611dc85760405162461bcd60e51b815260206004820152601b60248201527f5072696365206f72206d696e426964206d757374206265203e203000000000006044820152606401610204565b60008111611e185760405162461bcd60e51b815260206004820152601960248201527f457363726f7720616d6f756e74206d757374206265203e2030000000000000006044820152606401610204565b6040516331a9108f60e11b81526004810186905233906001600160a01b03881690636352211e9060240160206040518083038186803b158015611e5a57600080fd5b505afa158015611e6e573d6000803e3d6000fd5b505050506040513d601f19601f82011682018060405250810190611e9291906128f4565b6001600160a01b031614611eda5760405162461bcd60e51b815260206004820152600f60248201526e2737ba103a37b5b2b71037bbb732b960891b6044820152606401610204565b6001600160a01b038416331415611f2c5760405162461bcd60e51b8152602060048201526016602482015275213abcb2b91031b0b73737ba1031329039b2b63632b960511b6044820152606401610204565b60005460405163221c034760e21b81526001600160a01b03909116906388700d1c90611f5e90899089906004016125f8565b6101806040518083038186803b158015611f7757600080fd5b505afa158015611f8b573d6000803e3d6000fd5b505050506040513d601f19601f82011682018060405250810190611faf91906126c0565b610100015115611ff85760405162461bcd60e51b8152602060048201526014602482015273151bdad95b88185b1c9958591e481b1a5cdd195960621b6044820152606401610204565b60405163020604bf60e21b81526004810186905230906001600160a01b0388169063081812fc9060240160206040518083038186803b15801561203a57600080fd5b505afa15801561204e573d6000803e3d6000fd5b505050506040513d601f19601f8201168201806040525081019061207291906128f4565b6001600160a01b031614806120ff575060405163e985e9c560e01b81523360048201523060248201526001600160a01b0387169063e985e9c59060440160206040518083038186803b1580156120c757600080fd5b505afa1580156120db573d6000803e3d6000fd5b505050506040513d601f19601f820116820180604052508101906120ff9190612ae6565b6121435760405162461bcd60e51b815260206004820152601560248201527410dbdb9d1c9858dd081b9bdd08185c1c1c9bdd9959605a1b6044820152606401610204565b505050505050565b60008054906101000a90046001600160a01b03166001600160a01b0316633652a4a188886040518061018001604052808c6001600160a01b03168152602001336001600160a01b031681526020018a6001600160a01b031681526020018981526020018881526020018781526020016000815260200160008054906101000a90046001600160a01b03166001600160a01b0316639faf1e3f6040518163ffffffff1660e01b815260040160206040518083038186803b15801561220d57600080fd5b505afa158015612221573d6000803e3d6000fd5b505050506040513d601f19601f820116820180604052508101906122459190612b03565b61224f904261295e565b815260200160011515815260200160001515815260200160006001600160a01b031681526020018615158152506040518463ffffffff1660e01b815260040161229a93929190612976565b600060405180830381600087803b1580156122b457600080fd5b505af11580156122c8573d6000803e3d6000fd5b5050505050505050505050565b610e108110156123275760405162461bcd60e51b815260206004820152601a60248201527f41756374696f6e206475726174696f6e20746f6f2073686f72740000000000006044820152606401610204565b6000546040805160c081019091526001600160a01b039091169063ebb3964a908690869080612356874261295e565b81526020810188905260400161236d600a89612b1c565b815260006020808301829052604080840192909252600160609384015281516001600160e01b031960e089901b1681526001600160a01b0396871660048201526024810195909552835160448601528301516064850152820151608484015281015190921660a4820152608082015160c482015260a090910151151560e482015261010401600060405180830381600087803b15801561240c57600080fd5b505af1158015612420573d6000803e3d6000fd5b5050505050505050565b61243381612436565b50565b60006a636f6e736f6c652e6c6f679050600080835160208501845afa505050565b6001600160a01b038116811461243357600080fd5b6000806040838503121561247f57600080fd5b823561248a81612457565b946020939093013593505050565b6000806000606084860312156124ad57600080fd5b83356124b881612457565b95602085013595506040909401359392505050565b801515811461243357600080fd5b6000806000606084860312156124f057600080fd5b83356124fb81612457565b9250602084013591506040840135612512816124cd565b809150509250925092565b60008060006060848603121561253257600080fd5b833561253d81612457565b925060208401359150604084013561251281612457565b600080600080600080600080610100898b03121561257157600080fd5b883561257c81612457565b975060208901359650604089013561259381612457565b9550606089013594506080890135935060a0890135925060c08901356125b8816124cd565b8092505060e089013590509295985092959890939650565b6020808252600e908201526d1499595b9d1c985b9d0818d85b1b60921b604082015260600190565b6001600160a01b03929092168252602082015260400190565b634e487b7160e01b600052604160045260246000fd5b604051610180810167ffffffffffffffff8111828210171561264b5761264b612611565b60405290565b6040805190810167ffffffffffffffff8111828210171561264b5761264b612611565b604051601f8201601f1916810167ffffffffffffffff8111828210171561269d5761269d612611565b604052919050565b80516126b081612457565b919050565b80516126b0816124cd565b600061018082840312156126d357600080fd5b6126db612627565b6126e4836126a5565b81526126f2602084016126a5565b6020820152612703604084016126a5565b6040820152606083015160608201526080830151608082015260a083015160a082015260c083015160c082015260e083015160e08201526101006127488185016126b5565b9082015261012061275a8482016126b5565b9082015261014061276c8482016126a5565b9082015261016061277e8482016126b5565b908201529392505050565b60208082526010908201526f151bdad95b881b9bdd081b1a5cdd195960821b604082015260600190565b600060208083850312156127c657600080fd5b825167ffffffffffffffff808211156127de57600080fd5b818501915085601f8301126127f257600080fd5b81518181111561280457612804612611565b612812848260051b01612674565b818152848101925060069190911b83018401908782111561283257600080fd5b928401925b8184101561287e57604084890312156128505760008081fd5b612858612651565b845161286381612457565b81528486015186820152835260409093019291840191612837565b979650505050505050565b634e487b7160e01b600052603260045260246000fd5b634e487b7160e01b600052601160045260246000fd5b60006000198214156128c9576128c961289f565b5060010190565b6001600160a01b039384168152919092166020820152604081019190915260600190565b60006020828403121561290657600080fd5b815161291181612457565b9392505050565b60208082526015908201527427b7363c903232b9b4b3b730ba32b210313abcb2b960591b604082015260600190565b6000828210156129595761295961289f565b500390565b600082198211156129715761297161289f565b500190565b6001600160a01b0384811682526020820184905282511660408201526101c0810160208301516001600160a01b03811660608401525060408301516001600160a01b038116608084015250606083015160a0830152608083015160c083015260a083015160e083015260c0830151610100818185015260e0850151915061012082818601528186015192506101409150612a138286018415159052565b8501519150610160612a288582018415159052565b908501516001600160a01b03166101808501528401518015156101a0850152905050949350505050565b60008060408385031215612a6557600080fd5b8251612a7081612457565b6020939093015192949293505050565b604081526000835180604084015260005b81811015612aae5760208187018101516060868401015201612a91565b81811115612ac0576000606083860101525b506001600160a01b0393909316602083015250601f91909101601f191601606001919050565b600060208284031215612af857600080fd5b8151612911816124cd565b600060208284031215612b1557600080fd5b5051919050565b600082612b3957634e487b7160e01b600052601260045260246000fd5b50049056fe32eff1bfb84317b72fc67258659433fb15f2547105f2dc1af90191b532c2baa87472616e73666572466f7241756374696f6e3a20657363726f7741756374696f6e73203da2646970667358221220dda09a26368b0687d3bf65611cf0d12e02571c93cac02b5288ff8c3bea2e163a64736f6c63430008090033",
  "linkReferences": {},
  "deployedLinkReferences": {}
}