{
  "_format": "hh-sol-artifact-1",
  "contractName": "EscrowStorage",
  "sourceName": "contracts/EscrowStorage.sol",
  "abi": [
    {
      "inputs": [
        {
          "internalType": "address",
          "name": "_doArtContract",
          "type": "address"
        }
      ],
      "stateMutability": "nonpayable",
      "type": "constructor"
    },
    {
      "anonymous": false,
      "inputs": [
        {
          "indexed": true,
          "internalType": "address",
          "name": "nftContract",
          "type": "address"
        },
        {
          "indexed": true,
          "internalType": "uint256",
          "name": "tokenId",
          "type": "uint256"
        }
      ],
      "name": "AuctionChanged",
      "type": "event"
    },
    {
      "anonymous": false,
      "inputs": [
        {
          "indexed": true,
          "internalType": "address",
          "name": "nftContract",
          "type": "address"
        },
        {
          "indexed": true,
          "internalType": "uint256",
          "name": "tokenId",
          "type": "uint256"
        }
      ],
      "name": "BidChanged",
      "type": "event"
    },
    {
      "anonymous": false,
      "inputs": [
        {
          "indexed": true,
          "internalType": "address",
          "name": "nftContract",
          "type": "address"
        },
        {
          "indexed": true,
          "internalType": "uint256",
          "name": "tokenId",
          "type": "uint256"
        }
      ],
      "name": "ListingChanged",
      "type": "event"
    },
    {
      "anonymous": false,
      "inputs": [
        {
          "indexed": true,
          "internalType": "bytes32",
          "name": "role",
          "type": "bytes32"
        },
        {
          "indexed": true,
          "internalType": "bytes32",
          "name": "previousAdminRole",
          "type": "bytes32"
        },
        {
          "indexed": true,
          "internalType": "bytes32",
          "name": "newAdminRole",
          "type": "bytes32"
        }
      ],
      "name": "RoleAdminChanged",
      "type": "event"
    },
    {
      "anonymous": false,
      "inputs": [
        {
          "indexed": true,
          "internalType": "bytes32",
          "name": "role",
          "type": "bytes32"
        },
        {
          "indexed": true,
          "internalType": "address",
          "name": "account",
          "type": "address"
        },
        {
          "indexed": true,
          "internalType": "address",
          "name": "sender",
          "type": "address"
        }
      ],
      "name": "RoleGranted",
      "type": "event"
    },
    {
      "anonymous": false,
      "inputs": [
        {
          "indexed": true,
          "internalType": "bytes32",
          "name": "role",
          "type": "bytes32"
        },
        {
          "indexed": true,
          "internalType": "address",
          "name": "account",
          "type": "address"
        },
        {
          "indexed": true,
          "internalType": "address",
          "name": "sender",
          "type": "address"
        }
      ],
      "name": "RoleRevoked",
      "type": "event"
    },
    {
      "inputs": [],
      "name": "ADMIN_ROLE",
      "outputs": [
        {
          "internalType": "bytes32",
          "name": "",
          "type": "bytes32"
        }
      ],
      "stateMutability": "view",
      "type": "function"
    },
    {
      "inputs": [],
      "name": "ANTI_SNIPING_EXTENSION",
      "outputs": [
        {
          "internalType": "uint256",
          "name": "",
          "type": "uint256"
        }
      ],
      "stateMutability": "view",
      "type": "function"
    },
    {
      "inputs": [],
      "name": "ANTI_SNIPING_WINDOW",
      "outputs": [
        {
          "internalType": "uint256",
          "name": "",
          "type": "uint256"
        }
      ],
      "stateMutability": "view",
      "type": "function"
    },
    {
      "inputs": [],
      "name": "DEFAULT_ADMIN_ROLE",
      "outputs": [
        {
          "internalType": "bytes32",
          "name": "",
          "type": "bytes32"
        }
      ],
      "stateMutability": "view",
      "type": "function"
    },
    {
      "inputs": [],
      "name": "DEFAULT_VIEWING_PERIOD",
      "outputs": [
        {
          "internalType": "uint256",
          "name": "",
          "type": "uint256"
        }
      ],
      "stateMutability": "view",
      "type": "function"
    },
    {
      "inputs": [
        {
          "internalType": "address",
          "name": "",
          "type": "address"
        },
        {
          "internalType": "uint256",
          "name": "",
          "type": "uint256"
        }
      ],
      "name": "auctions",
      "outputs": [
        {
          "internalType": "uint256",
          "name": "endTime",
          "type": "uint256"
        },
        {
          "internalType": "uint256",
          "name": "minBid",
          "type": "uint256"
        },
        {
          "internalType": "uint256",
          "name": "minIncrement",
          "type": "uint256"
        },
        {
          "internalType": "address",
          "name": "highestBidder",
          "type": "address"
        },
        {
          "internalType": "uint256",
          "name": "highestBid",
          "type": "uint256"
        },
        {
          "internalType": "bool",
          "name": "isActive",
          "type": "bool"
        }
      ],
      "stateMutability": "view",
      "type": "function"
    },
    {
      "inputs": [
        {
          "internalType": "address",
          "name": "",
          "type": "address"
        },
        {
          "internalType": "uint256",
          "name": "",
          "type": "uint256"
        },
        {
          "internalType": "uint256",
          "name": "",
          "type": "uint256"
        }
      ],
      "name": "bids",
      "outputs": [
        {
          "internalType": "address",
          "name": "bidder",
          "type": "address"
        },
        {
          "internalType": "uint256",
          "name": "amount",
          "type": "uint256"
        }
      ],
      "stateMutability": "view",
      "type": "function"
    },
    {
      "inputs": [
        {
          "internalType": "address",
          "name": "nftContract",
          "type": "address"
        },
        {
          "internalType": "uint256",
          "name": "tokenId",
          "type": "uint256"
        }
      ],
      "name": "deleteAuction",
      "outputs": [],
      "stateMutability": "nonpayable",
      "type": "function"
    },
    {
      "inputs": [
        {
          "internalType": "address",
          "name": "nftContract",
          "type": "address"
        },
        {
          "internalType": "uint256",
          "name": "tokenId",
          "type": "uint256"
        }
      ],
      "name": "deleteBids",
      "outputs": [],
      "stateMutability": "nonpayable",
      "type": "function"
    },
    {
      "inputs": [
        {
          "internalType": "address",
          "name": "nftContract",
          "type": "address"
        },
        {
          "internalType": "uint256",
          "name": "tokenId",
          "type": "uint256"
        }
      ],
      "name": "deleteListing",
      "outputs": [],
      "stateMutability": "nonpayable",
      "type": "function"
    },
    {
      "inputs": [],
      "name": "doArt",
      "outputs": [
        {
          "internalType": "contract IDoArt",
          "name": "",
          "type": "address"
        }
      ],
      "stateMutability": "view",
      "type": "function"
    },
    {
      "inputs": [
        {
          "internalType": "address",
          "name": "nftContract",
          "type": "address"
        },
        {
          "internalType": "uint256",
          "name": "tokenId",
          "type": "uint256"
        }
      ],
      "name": "getAuction",
      "outputs": [
        {
          "components": [
            {
              "internalType": "uint256",
              "name": "endTime",
              "type": "uint256"
            },
            {
              "internalType": "uint256",
              "name": "minBid",
              "type": "uint256"
            },
            {
              "internalType": "uint256",
              "name": "minIncrement",
              "type": "uint256"
            },
            {
              "internalType": "address",
              "name": "highestBidder",
              "type": "address"
            },
            {
              "internalType": "uint256",
              "name": "highestBid",
              "type": "uint256"
            },
            {
              "internalType": "bool",
              "name": "isActive",
              "type": "bool"
            }
          ],
          "internalType": "struct EscrowStorage.Auction",
          "name": "",
          "type": "tuple"
        }
      ],
      "stateMutability": "view",
      "type": "function"
    },
    {
      "inputs": [
        {
          "internalType": "address",
          "name": "nftContract",
          "type": "address"
        },
        {
          "internalType": "uint256",
          "name": "tokenId",
          "type": "uint256"
        }
      ],
      "name": "getBids",
      "outputs": [
        {
          "components": [
            {
              "internalType": "address",
              "name": "bidder",
              "type": "address"
            },
            {
              "internalType": "uint256",
              "name": "amount",
              "type": "uint256"
            }
          ],
          "internalType": "struct EscrowStorage.Bid[]",
          "name": "",
          "type": "tuple[]"
        }
      ],
      "stateMutability": "view",
      "type": "function"
    },
    {
      "inputs": [
        {
          "internalType": "address",
          "name": "nftContract",
          "type": "address"
        },
        {
          "internalType": "uint256",
          "name": "tokenId",
          "type": "uint256"
        }
      ],
      "name": "getListing",
      "outputs": [
        {
          "components": [
            {
              "internalType": "address",
              "name": "nftContract",
              "type": "address"
            },
            {
              "internalType": "address",
              "name": "seller",
              "type": "address"
            },
            {
              "internalType": "address",
              "name": "buyer",
              "type": "address"
            },
            {
              "internalType": "uint256",
              "name": "price",
              "type": "uint256"
            },
            {
              "internalType": "uint256",
              "name": "minBid",
              "type": "uint256"
            },
            {
              "internalType": "uint256",
              "name": "escrowAmount",
              "type": "uint256"
            },
            {
              "internalType": "uint256",
              "name": "buyerDeposit",
              "type": "uint256"
            },
            {
              "internalType": "uint256",
              "name": "viewingPeriodEnd",
              "type": "uint256"
            },
            {
              "internalType": "bool",
              "name": "isListed",
              "type": "bool"
            },
            {
              "internalType": "bool",
              "name": "isApproved",
              "type": "bool"
            },
            {
              "internalType": "address",
              "name": "saleApprover",
              "type": "address"
            },
            {
              "internalType": "bool",
              "name": "isAuction",
              "type": "bool"
            }
          ],
          "internalType": "struct EscrowStorage.Listing",
          "name": "",
          "type": "tuple"
        }
      ],
      "stateMutability": "view",
      "type": "function"
    },
    {
      "inputs": [],
      "name": "getListings",
      "outputs": [
        {
          "components": [
            {
              "internalType": "address",
              "name": "nftContract",
              "type": "address"
            },
            {
              "internalType": "address",
              "name": "seller",
              "type": "address"
            },
            {
              "internalType": "address",
              "name": "buyer",
              "type": "address"
            },
            {
              "internalType": "uint256",
              "name": "price",
              "type": "uint256"
            },
            {
              "internalType": "uint256",
              "name": "minBid",
              "type": "uint256"
            },
            {
              "internalType": "uint256",
              "name": "escrowAmount",
              "type": "uint256"
            },
            {
              "internalType": "uint256",
              "name": "buyerDeposit",
              "type": "uint256"
            },
            {
              "internalType": "uint256",
              "name": "viewingPeriodEnd",
              "type": "uint256"
            },
            {
              "internalType": "bool",
              "name": "isListed",
              "type": "bool"
            },
            {
              "internalType": "bool",
              "name": "isApproved",
              "type": "bool"
            },
            {
              "internalType": "address",
              "name": "saleApprover",
              "type": "address"
            },
            {
              "internalType": "bool",
              "name": "isAuction",
              "type": "bool"
            }
          ],
          "internalType": "struct EscrowStorage.Listing[]",
          "name": "",
          "type": "tuple[]"
        }
      ],
      "stateMutability": "view",
      "type": "function"
    },
    {
      "inputs": [
        {
          "internalType": "bytes32",
          "name": "role",
          "type": "bytes32"
        }
      ],
      "name": "getRoleAdmin",
      "outputs": [
        {
          "internalType": "bytes32",
          "name": "",
          "type": "bytes32"
        }
      ],
      "stateMutability": "view",
      "type": "function"
    },
    {
      "inputs": [],
      "name": "getTotalNfts",
      "outputs": [
        {
          "internalType": "uint256",
          "name": "",
          "type": "uint256"
        }
      ],
      "stateMutability": "view",
      "type": "function"
    },
    {
      "inputs": [
        {
          "internalType": "address",
          "name": "nftContract",
          "type": "address"
        },
        {
          "internalType": "uint256",
          "name": "tokenId",
          "type": "uint256"
        }
      ],
      "name": "getVoucherRedeemed",
      "outputs": [
        {
          "internalType": "bool",
          "name": "",
          "type": "bool"
        }
      ],
      "stateMutability": "view",
      "type": "function"
    },
    {
      "inputs": [
        {
          "internalType": "bytes32",
          "name": "role",
          "type": "bytes32"
        },
        {
          "internalType": "address",
          "name": "account",
          "type": "address"
        }
      ],
      "name": "grantRole",
      "outputs": [],
      "stateMutability": "nonpayable",
      "type": "function"
    },
    {
      "inputs": [
        {
          "internalType": "bytes32",
          "name": "role",
          "type": "bytes32"
        },
        {
          "internalType": "address",
          "name": "account",
          "type": "address"
        }
      ],
      "name": "hasRole",
      "outputs": [
        {
          "internalType": "bool",
          "name": "",
          "type": "bool"
        }
      ],
      "stateMutability": "view",
      "type": "function"
    },
    {
      "inputs": [
        {
          "internalType": "address",
          "name": "",
          "type": "address"
        },
        {
          "internalType": "uint256",
          "name": "",
          "type": "uint256"
        }
      ],
      "name": "listings",
      "outputs": [
        {
          "internalType": "address",
          "name": "nftContract",
          "type": "address"
        },
        {
          "internalType": "address",
          "name": "seller",
          "type": "address"
        },
        {
          "internalType": "address",
          "name": "buyer",
          "type": "address"
        },
        {
          "internalType": "uint256",
          "name": "price",
          "type": "uint256"
        },
        {
          "internalType": "uint256",
          "name": "minBid",
          "type": "uint256"
        },
        {
          "internalType": "uint256",
          "name": "escrowAmount",
          "type": "uint256"
        },
        {
          "internalType": "uint256",
          "name": "buyerDeposit",
          "type": "uint256"
        },
        {
          "internalType": "uint256",
          "name": "viewingPeriodEnd",
          "type": "uint256"
        },
        {
          "internalType": "bool",
          "name": "isListed",
          "type": "bool"
        },
        {
          "internalType": "bool",
          "name": "isApproved",
          "type": "bool"
        },
        {
          "internalType": "address",
          "name": "saleApprover",
          "type": "address"
        },
        {
          "internalType": "bool",
          "name": "isAuction",
          "type": "bool"
        }
      ],
      "stateMutability": "view",
      "type": "function"
    },
    {
      "inputs": [
        {
          "internalType": "address",
          "name": "nftContract",
          "type": "address"
        },
        {
          "internalType": "uint256",
          "name": "tokenId",
          "type": "uint256"
        },
        {
          "components": [
            {
              "internalType": "address",
              "name": "bidder",
              "type": "address"
            },
            {
              "internalType": "uint256",
              "name": "amount",
              "type": "uint256"
            }
          ],
          "internalType": "struct EscrowStorage.Bid",
          "name": "bid",
          "type": "tuple"
        }
      ],
      "name": "pushBid",
      "outputs": [],
      "stateMutability": "nonpayable",
      "type": "function"
    },
    {
      "inputs": [
        {
          "internalType": "bytes32",
          "name": "role",
          "type": "bytes32"
        },
        {
          "internalType": "address",
          "name": "account",
          "type": "address"
        }
      ],
      "name": "renounceRole",
      "outputs": [],
      "stateMutability": "nonpayable",
      "type": "function"
    },
    {
      "inputs": [
        {
          "internalType": "bytes32",
          "name": "role",
          "type": "bytes32"
        },
        {
          "internalType": "address",
          "name": "account",
          "type": "address"
        }
      ],
      "name": "revokeRole",
      "outputs": [],
      "stateMutability": "nonpayable",
      "type": "function"
    },
    {
      "inputs": [
        {
          "internalType": "address",
          "name": "nftContract",
          "type": "address"
        },
        {
          "internalType": "uint256",
          "name": "tokenId",
          "type": "uint256"
        },
        {
          "components": [
            {
              "internalType": "uint256",
              "name": "endTime",
              "type": "uint256"
            },
            {
              "internalType": "uint256",
              "name": "minBid",
              "type": "uint256"
            },
            {
              "internalType": "uint256",
              "name": "minIncrement",
              "type": "uint256"
            },
            {
              "internalType": "address",
              "name": "highestBidder",
              "type": "address"
            },
            {
              "internalType": "uint256",
              "name": "highestBid",
              "type": "uint256"
            },
            {
              "internalType": "bool",
              "name": "isActive",
              "type": "bool"
            }
          ],
          "internalType": "struct EscrowStorage.Auction",
          "name": "auction",
          "type": "tuple"
        }
      ],
      "name": "setAuction",
      "outputs": [],
      "stateMutability": "nonpayable",
      "type": "function"
    },
    {
      "inputs": [
        {
          "internalType": "address",
          "name": "nftContract",
          "type": "address"
        },
        {
          "internalType": "uint256",
          "name": "tokenId",
          "type": "uint256"
        },
        {
          "components": [
            {
              "internalType": "address",
              "name": "nftContract",
              "type": "address"
            },
            {
              "internalType": "address",
              "name": "seller",
              "type": "address"
            },
            {
              "internalType": "address",
              "name": "buyer",
              "type": "address"
            },
            {
              "internalType": "uint256",
              "name": "price",
              "type": "uint256"
            },
            {
              "internalType": "uint256",
              "name": "minBid",
              "type": "uint256"
            },
            {
              "internalType": "uint256",
              "name": "escrowAmount",
              "type": "uint256"
            },
            {
              "internalType": "uint256",
              "name": "buyerDeposit",
              "type": "uint256"
            },
            {
              "internalType": "uint256",
              "name": "viewingPeriodEnd",
              "type": "uint256"
            },
            {
              "internalType": "bool",
              "name": "isListed",
              "type": "bool"
            },
            {
              "internalType": "bool",
              "name": "isApproved",
              "type": "bool"
            },
            {
              "internalType": "address",
              "name": "saleApprover",
              "type": "address"
            },
            {
              "internalType": "bool",
              "name": "isAuction",
              "type": "bool"
            }
          ],
          "internalType": "struct EscrowStorage.Listing",
          "name": "listing",
          "type": "tuple"
        }
      ],
      "name": "setListing",
      "outputs": [],
      "stateMutability": "nonpayable",
      "type": "function"
    },
    {
      "inputs": [
        {
          "internalType": "address",
          "name": "nftContract",
          "type": "address"
        },
        {
          "internalType": "uint256",
          "name": "tokenId",
          "type": "uint256"
        },
        {
          "internalType": "bool",
          "name": "redeemed",
          "type": "bool"
        }
      ],
      "name": "setVoucherRedeemed",
      "outputs": [],
      "stateMutability": "nonpayable",
      "type": "function"
    },
    {
      "inputs": [
        {
          "internalType": "bytes4",
          "name": "interfaceId",
          "type": "bytes4"
        }
      ],
      "name": "supportsInterface",
      "outputs": [
        {
          "internalType": "bool",
          "name": "",
          "type": "bool"
        }
      ],
      "stateMutability": "view",
      "type": "function"
    },
    {
      "inputs": [
        {
          "internalType": "address",
          "name": "",
          "type": "address"
        },
        {
          "internalType": "uint256",
          "name": "",
          "type": "uint256"
        }
      ],
      "name": "voucherRedeemed",
      "outputs": [
        {
          "internalType": "bool",
          "name": "",
          "type": "bool"
        }
      ],
      "stateMutability": "view",
      "type": "function"
    }
  ],
  "bytecode": "0x60806040523480156200001157600080fd5b5060405162001e5538038062001e55833981016040819052620000349162000134565b6200004160003362000093565b6200006d7fa49807205ce4d355092ef5a8a18f56e8913cf4a201fbe287825b095693c217753362000093565b600580546001600160a01b0319166001600160a01b039290921691909117905562000166565b6000828152602081815260408083206001600160a01b038516845290915290205460ff1662000130576000828152602081815260408083206001600160a01b03851684529091529020805460ff19166001179055620000ef3390565b6001600160a01b0316816001600160a01b0316837f2f8788117e7eff1d82e926ec794901d17c78024a50270940304540a733656f0d60405160405180910390a45b5050565b6000602082840312156200014757600080fd5b81516001600160a01b03811681146200015f57600080fd5b9392505050565b611cdf80620001766000396000f3fe608060405234801561001057600080fd5b50600436106101ce5760003560e01c806375b238fc116101045780639ffd36b0116100a2578063b8912efc11610071578063b8912efc1461060f578063d547741f14610618578063ebb3964a1461062b578063f1b2d6a31461063e57600080fd5b80639ffd36b0146105a6578063a217fddf146105ae578063a59ef80a146105b6578063b5f38dce146105ef57600080fd5b806381c9db11116100de57806381c9db111461053b57806388700d1c1461056957806391d14854146105895780639faf1e3f1461059c57600080fd5b806375b238fc14610496578063762a66a2146104ab578063811651ef1461051057600080fd5b80632b0540641161017157806336568abe1161014b57806336568abe146103ab57806344f91c1e146103be57806346d02934146104515780634fe5d9851461048357600080fd5b80632b054064146103725780632f2ff15d146103855780633652a4a11461039857600080fd5b8063114048ea116101ad578063114048ea14610314578063248a9ca31461032957806328142ed31461034c57806329c2cbbc1461035f57600080fd5b806207df30146101d357806301ffc9a7146102da5780630e59a254146102fd575b600080fd5b6102626101e13660046115cf565b600160208181526000938452604080852090915291835291208054918101546002820154600383015460048401546005850154600686015460078701546008909701546001600160a01b03988916989687169795871696949593949293919260ff8083169261010081048216926201000082041691600160b01b909104168c565b604080516001600160a01b039d8e1681529b8d1660208d0152998c16998b019990995260608a0197909752608089019590955260a088019390935260c087019190915260e086015215156101008501521515610120840152909216610140820152901515610160820152610180015b60405180910390f35b6102ed6102e83660046115f9565b610653565b60405190151581526020016102d1565b61030661025881565b6040519081526020016102d1565b6103276103223660046116a2565b61068a565b005b610306610337366004611735565b60009081526020819052604090206001015490565b61032761035a36600461175e565b61072d565b61032761036d3660046115cf565b61077b565b6103276103803660046115cf565b610819565b61032761039336600461179a565b610898565b6103276103a63660046117c6565b6108c2565b6103276103b936600461179a565b610a0c565b6104196103cc3660046115cf565b600360208181526000938452604080852090915291835291208054600182015460028301549383015460048401546005909401549294919391926001600160a01b03909116919060ff1686565b604080519687526020870195909552938501929092526001600160a01b031660608401526080830152151560a082015260c0016102d1565b61046461045f3660046118c7565b610a8f565b604080516001600160a01b0390931683526020830191909152016102d1565b6103276104913660046115cf565b610ae3565b610306600080516020611c8a83398151915281565b6104be6104b93660046115cf565b610ba6565b6040516102d191908151815260208083015190820152604080830151908201526060808301516001600160a01b0316908201526080808301519082015260a09182015115159181019190915260c00190565b600554610523906001600160a01b031681565b6040516001600160a01b0390911681526020016102d1565b6102ed6105493660046115cf565b600460209081526000928352604080842090915290825290205460ff1681565b61057c6105773660046115cf565b610c5b565b6040516102d191906119bb565b6102ed61059736600461179a565b610d2b565b6103066203f48081565b610306610d54565b610306600081565b6102ed6105c43660046115cf565b6001600160a01b03919091166000908152600460209081526040808320938352929052205460ff1690565b6106026105fd3660046115cf565b610dd6565b6040516102d191906119ca565b61030661012c81565b61032761062636600461179a565b610e6a565b610327610639366004611a22565b610e8f565b610646610f51565b6040516102d19190611ab8565b60006001600160e01b03198216637965db0b60e01b148061068457506301ffc9a760e01b6001600160e01b03198316145b92915050565b600080516020611c8a8339815191526106a281611200565b6001600160a01b03848116600081815260026020818152604080842089855282528084208054600180820183559186528386208a519190950290940180546001600160a01b03191694909716939093178655908701519490910193909355915185927f696ab19c9a5fff1fc78fcd7e8b4f8c7d06ccbadaa381a3630be38eba4e8ace9a91a350505050565b600080516020611c8a83398151915261074581611200565b506001600160a01b0392909216600090815260046020908152604080832093835292905220805460ff1916911515919091179055565b600080516020611c8a83398151915261079381611200565b6001600160a01b0383166000818152600360208181526040808420878552909152808320838155600181018490556002810184905591820180546001600160a01b0319169055600482018390556005909101805460ff19169055518492917f48f338e286bc6cc055c95197931190479610e1788c1a8822f02dcaafeae20f1091a3505050565b600080516020611c8a83398151915261083181611200565b6001600160a01b0383166000908152600260209081526040808320858452909152812061085d91611504565b60405182906001600160a01b038516907f696ab19c9a5fff1fc78fcd7e8b4f8c7d06ccbadaa381a3630be38eba4e8ace9a90600090a3505050565b6000828152602081905260409020600101546108b381611200565b6108bd838361120d565b505050565b600080516020611c8a8339815191526108da81611200565b6001600160a01b0380851660008181526001602081815260408084208985528252808420885181549088166001600160a01b031991821617825592890151938101805494881694841694909417909355808801516002840180549188169190931617909155606087015160038301556080870151600483015560a0870151600583015560c0870151600683015560e0870151600783015561010080880151600890930180546101208a01516101408b01516101608c01511515600160b01b0260ff60b01b1991909a1662010000021662010000600160b81b031991151590940261ff00199615159690961661ffff1990921691909117949094179390931617949094179055915185927fe5317da7a2a5a513758a425cd8d8926ce3e58f239f2c630a790fc6b038dd3bd091a350505050565b6001600160a01b0381163314610a815760405162461bcd60e51b815260206004820152602f60248201527f416363657373436f6e74726f6c3a2063616e206f6e6c792072656e6f756e636560448201526e103937b632b9903337b91039b2b63360891b60648201526084015b60405180910390fd5b610a8b8282611291565b5050565b60026020528260005260406000206020528160005260406000208181548110610ab757600080fd5b6000918252602090912060029091020180546001909101546001600160a01b0390911693509150839050565b600080516020611c8a833981519152610afb81611200565b6001600160a01b038316600081815260016020818152604080842087855290915280832080546001600160a01b031990811682559281018054841690556002810180549093169092556003820183905560048201839055600582018390556006820183905560078201839055600890910180546001600160b81b0319169055518492917fe5317da7a2a5a513758a425cd8d8926ce3e58f239f2c630a790fc6b038dd3bd091a3505050565b610bea6040518060c0016040528060008152602001600081526020016000815260200160006001600160a01b03168152602001600081526020016000151581525090565b506001600160a01b03918216600090815260036020818152604080842094845293815291839020835160c081018552815481526001820154938101939093526002810154938301939093528201549092166060830152600481015460808301526005015460ff16151560a082015290565b610c63611525565b506001600160a01b039182166000908152600160208181526040808420948452938152918390208351610180810185528154861681529181015485169282019290925260028201548416928101929092526003810154606083015260048101546080830152600581015460a0830152600681015460c0830152600781015460e08301526008015460ff808216151561010080850191909152820481161515610120840152620100008204909316610140830152600160b01b9004909116151561016082015290565b6000918252602082815260408084206001600160a01b0393909316845291905290205460ff1690565b600554604080516318160ddd60e01b815290516000926001600160a01b0316916318160ddd916004808301926020929190829003018186803b158015610d9957600080fd5b505afa158015610dad573d6000803e3d6000fd5b505050506040513d601f19601f82011682018060405250810190610dd19190611b07565b905090565b6001600160a01b03821660009081526002602090815260408083208484528252808320805482518185028101850190935280835260609492939192909184015b82821015610e5e576000848152602090819020604080518082019091526002850290910180546001600160a01b03168252600190810154828401529083529092019101610e16565b50505050905092915050565b600082815260208190526040902060010154610e8581611200565b6108bd8383611291565b600080516020611c8a833981519152610ea781611200565b6001600160a01b038481166000818152600360208181526040808420898552825280842088518155918801516001830155878101516002830155606088015192820180546001600160a01b03191693909616929092179094556080860151600485015560a08601516005909401805460ff191694151594909417909355915185927f48f338e286bc6cc055c95197931190479610e1788c1a8822f02dcaafeae20f1091a350505050565b60606000600560009054906101000a90046001600160a01b03166001600160a01b03166318160ddd6040518163ffffffff1660e01b815260040160206040518083038186803b158015610fa357600080fd5b505afa158015610fb7573d6000803e3d6000fd5b505050506040513d601f19601f82011682018060405250810190610fdb9190611b07565b905060008167ffffffffffffffff811115610ff857610ff8611623565b60405190808252806020026020018201604052801561103157816020015b61101e611525565b8152602001906001900390816110165790505b509050600060015b83811161114a57600580546001600160a01b03908116600090815260016020818152604080842087855282529283902083516101808101855281548616815292810154851691830191909152600281015484169282019290925260038201546060820152600482015460808201529281015460a0840152600681015460c0840152600781015460e08401526008015460ff80821615801561010086810191909152830482161515610120860152620100008304909316610140850152600160b01b909104161515610160830152611137578084848151811061111d5761111d611b20565b6020026020010181905250828061113390611b4c565b9350505b508061114281611b4c565b915050611039565b5060008167ffffffffffffffff81111561116657611166611623565b60405190808252806020026020018201604052801561119f57816020015b61118c611525565b8152602001906001900390816111845790505b50905060005b828110156111f7578381815181106111bf576111bf611b20565b60200260200101518282815181106111d9576111d9611b20565b602002602001018190525080806111ef90611b4c565b9150506111a5565b50949350505050565b61120a81336112f6565b50565b6112178282610d2b565b610a8b576000828152602081815260408083206001600160a01b03851684529091529020805460ff1916600117905561124d3390565b6001600160a01b0316816001600160a01b0316837f2f8788117e7eff1d82e926ec794901d17c78024a50270940304540a733656f0d60405160405180910390a45050565b61129b8282610d2b565b15610a8b576000828152602081815260408083206001600160a01b0385168085529252808320805460ff1916905551339285917ff6391f5c32d9c69d2a47ea670b442974b53935d1edc7fd64eb21e047a839171b9190a45050565b6113008282610d2b565b610a8b5761130d8161134f565b611318836020611361565b604051602001611329929190611b93565b60408051601f198184030181529082905262461bcd60e51b8252610a7891600401611c08565b60606106846001600160a01b03831660145b60606000611370836002611c3b565b61137b906002611c5a565b67ffffffffffffffff81111561139357611393611623565b6040519080825280601f01601f1916602001820160405280156113bd576020820181803683370190505b509050600360fc1b816000815181106113d8576113d8611b20565b60200101906001600160f81b031916908160001a905350600f60fb1b8160018151811061140757611407611b20565b60200101906001600160f81b031916908160001a905350600061142b846002611c3b565b611436906001611c5a565b90505b60018111156114ae576f181899199a1a9b1b9c1cb0b131b232b360811b85600f166010811061146a5761146a611b20565b1a60f81b82828151811061148057611480611b20565b60200101906001600160f81b031916908160001a90535060049490941c936114a781611c72565b9050611439565b5083156114fd5760405162461bcd60e51b815260206004820181905260248201527f537472696e67733a20686578206c656e67746820696e73756666696369656e746044820152606401610a78565b9392505050565b508054600082556002029060005260206000209081019061120a9190611589565b6040805161018081018252600080825260208201819052918101829052606081018290526080810182905260a0810182905260c0810182905260e0810182905261010081018290526101208101829052610140810182905261016081019190915290565b5b808211156115af5780546001600160a01b03191681556000600182015560020161158a565b5090565b80356001600160a01b03811681146115ca57600080fd5b919050565b600080604083850312156115e257600080fd5b6115eb836115b3565b946020939093013593505050565b60006020828403121561160b57600080fd5b81356001600160e01b0319811681146114fd57600080fd5b634e487b7160e01b600052604160045260246000fd5b604051610180810167ffffffffffffffff8111828210171561166b57634e487b7160e01b600052604160045260246000fd5b60405290565b60405160c0810167ffffffffffffffff8111828210171561166b57634e487b7160e01b600052604160045260246000fd5b600080600083850360808112156116b857600080fd5b6116c1856115b3565b9350602085013592506040603f19820112156116dc57600080fd5b506040516040810181811067ffffffffffffffff8211171561170e57634e487b7160e01b600052604160045260246000fd5b806040525061171f604086016115b3565b8152606094909401356020850152509093909250565b60006020828403121561174757600080fd5b5035919050565b803580151581146115ca57600080fd5b60008060006060848603121561177357600080fd5b61177c846115b3565b9250602084013591506117916040850161174e565b90509250925092565b600080604083850312156117ad57600080fd5b823591506117bd602084016115b3565b90509250929050565b60008060008385036101c08112156117dd57600080fd5b6117e6856115b3565b93506020850135925061018080603f198301121561180357600080fd5b61180b611639565b9150611819604087016115b3565b8252611827606087016115b3565b6020830152611838608087016115b3565b604083015260a0860135606083015260c0860135608083015260e086013560a08301526101008087013560c08401526101208088013560e0850152610140611881818a0161174e565b838601526101609250611895838a0161174e565b828601526118a4848a016115b3565b90850152506118b66101a0880161174e565b818401525050809150509250925092565b6000806000606084860312156118dc57600080fd5b6118e5846115b3565b95602085013595506040909401359392505050565b80516001600160a01b03168252602081015161192160208401826001600160a01b03169052565b50604081015161193c60408401826001600160a01b03169052565b50606081015160608301526080810151608083015260a081015160a083015260c081015160c083015260e081015160e0830152610100808201516119838285018215159052565b505061012081810151151590830152610140808201516001600160a01b03169083015261016080820151801515828501525b50505050565b610180810161068482846118fa565b602080825282518282018190526000919060409081850190868401855b82811015611a1557815180516001600160a01b031685528601518685015292840192908501906001016119e7565b5091979650505050505050565b6000806000838503610100811215611a3957600080fd5b611a42856115b3565b93506020850135925060c0603f1982011215611a5d57600080fd5b50611a66611671565b604085013581526060850135602082015260808501356040820152611a8d60a086016115b3565b606082015260c08501356080820152611aa860e0860161174e565b60a0820152809150509250925092565b6020808252825182820181905260009190848201906040850190845b81811015611afb57611ae78385516118fa565b928401926101809290920191600101611ad4565b50909695505050505050565b600060208284031215611b1957600080fd5b5051919050565b634e487b7160e01b600052603260045260246000fd5b634e487b7160e01b600052601160045260246000fd5b6000600019821415611b6057611b60611b36565b5060010190565b60005b83811015611b82578181015183820152602001611b6a565b838111156119b55750506000910152565b7f416363657373436f6e74726f6c3a206163636f756e7420000000000000000000815260008351611bcb816017850160208801611b67565b7001034b99036b4b9b9b4b733903937b6329607d1b6017918401918201528351611bfc816028840160208801611b67565b01602801949350505050565b6020815260008251806020840152611c27816040850160208701611b67565b601f01601f19169190910160400192915050565b6000816000190483118215151615611c5557611c55611b36565b500290565b60008219821115611c6d57611c6d611b36565b500190565b600081611c8157611c81611b36565b50600019019056fea49807205ce4d355092ef5a8a18f56e8913cf4a201fbe287825b095693c21775a2646970667358221220c405961886120acb1a18aba03ed368ea465a344f2428d7fc939d42d3c6f702da64736f6c63430008090033",
  "linkReferences": {},
  "deployedLinkReferences": {}
}